:020000040800F2
:1000000000000220210A00081D0A00080D660008F1
:100010001D0A00081D0A00081D0A00080000000053
:100020000000000000000000000000001D0A0008A1
:100030001D0A0008000000001D0A0008FD650008F8
:100040001D0A00081D0A00081D0A00081D0A0008F4
:100050001D0A00081D0A00081D0A00081D0A0008E4
:100060001D0A00081D0A00081D0A00082D4D000881
:10007000394D00081D0A0008454D0008514D000883
:100080003163000801FD00081D0A00081D0A000870
:100090001D0A00081D0A00081D0A00081D0A0008A4
:1000A0001D0A00081D0A00081D0A00081D0A000894
:1000B0001D0A00081D0A00081D0A000835FD000879
:1000C0001D0A000841FD00081D0A00081D0A00085D
:1000D0001D0A0008215D0008C95D0008755E000862
:1000E0001D0A00081D0A0008000000001D0A000883
:1000F0001D0A00081D0A00081D0A00081D0A000844
:100100001D0A00081D0A00081D0A00081D0A000833
:10011000215F0008CD5F00081D0A00081D0A0008C5
:100120001D0A00081D0A00081D0A00081D0A000813
:100130001D0A00081D0A00081D0A00081D0A000803
:1001400000000000000000000000000000000000AF
:100150001D0A00081D0A00081D0A00087960000831
:100160004DFD00081D0A00086543000871430008A2
:100170001D0A00087D4300081D0A00081D0A00082A
:100180001D0A00081D0A000825610008D161000849
:100190001D0A00081D0A00081D0A00081D0A0008A3
:1001A0001D0A00081D0A00081D0A00081D0A000893
:1001B000754A00081D0A00081D0A00081D0A0008EB
:1001C0001D0A00081D0A000889430008954300081D
:1001D0001D0A0008A14300081D0A00081D0A0008A6
:1001E0001D0A00081D0A00081D0A00081D0A000853
:1001F0001D0A00081D0A00081D0A00081D0A000843
:100200001D0A00081D0A00081D0A00081D0A000832
:100210001D0A00081D0A00081D0A00081D0A000822
:100220001D0A00081D0A00081D0A00080000000041
:100230001D0A00081D0A0008000000001D0A000831
:100240001D0A00081D0A00081D0A00081D0A0008F2
:100250001D0A00081D0A00081D0A00081D0A0008E2
:100260001D0A00081D0A00081D0A00081D0A0008D2
:100270001D0A00081D0A00087D6200080000000039
:100280001D0A00081D0A00081D0A000800000000E1
:08029000000000001D0A000837
:1002A00010B5054C237833B9044B13B10448AFF3B0
:1002B00000800123237010BD2804002400000000EA
:1002C000782C010808B5034B1BB103490348AFF371
:1002D000008008BD000000002C040024782C0108D8
:1002E00010F8012B11F8013B012A28BF9A42F7D0E0
:1002F000D01A70470000000000000000000000005D
:1003000001F0FF01102A2BDB10F0070F08D010F8C6
:10031000013B013A8B422DD010F0070F42B3F6D1CA
:10032000F0B441EA012141EA014122F007047FF0E3
:1003300000070023F0E80256083C85EA010586EA3A
:10034000010685FA47F5A3FA87F586FA47F6A5FA76
:1003500087F68EB9EED1F0BC01F0FF0102F0070282
:1003600032B110F8013B013A83EA010313B1F8D12D
:100370000020704701387047002D06BF354603380E
:10038000073815F0010F07D1013015F4807F02BF47
:10039000013015F4C03F0130F0BC0138704700BF98
:1003A00081F0004102E000BF83F0004330B54FEA26
:1003B00041044FEA430594EA050F08BF90EA020F93
:1003C0001FBF54EA000C55EA020C7FEA645C7FEA26
:1003D000655C00F0E2804FEA5454D4EB5555B8BF49
:1003E0006D420CDD2C4480EA020281EA030382EABA
:1003F000000083EA010180EA020281EA0303362D4C
:1004000088BF30BD11F0004F4FEA01314FF4801C1E
:100410004CEA113102D0404261EB410113F0004F30
:100420004FEA03334CEA133302D0524263EB4303E7
:1004300094EA050F00F0A780A4F10104D5F1200E85
:100440000DDB02FA0EFC22FA05F2801841F10001E0
:1004500003FA0EF2801843FA05F359410EE0A5F1B4
:1004600020050EF1200E012A03FA0EFC28BF4CF0E5
:10047000020C43FA05F3C01851EBE37101F000459B
:1004800007D54FF0000EDCF1000C7EEB00006EEBA8
:100490000101B1F5801F1BD3B1F5001F0CD3490832
:1004A0005FEA30004FEA3C0C04F101044FEA445289
:1004B00012F5800F80F09A80BCF1004F08BF5FEA10
:1004C000500C50F1000041EB045141EA050130BDF0
:1004D0005FEA4C0C404141EB0101013C28BFB1F502
:1004E000801FE9D291F0000F04BF01460020B1FA4D
:1004F00081F308BF2033A3F10B03B3F120020CDA20
:100500000C3208DD02F1140CC2F10C0201FA0CF0FD
:1005100021FA02F10CE002F11402D8BFC2F1200C62
:1005200001FA02F120FA0CFCDCBF41EA0C01904018
:10053000E41AA2BF01EB0451294330BD6FEA040461
:100540001F3C1CDA0C340EDC04F11404C4F120024C
:1005500020FA04F001FA02F340EA030021FA04F35E
:1005600045EA030130BDC4F10C04C4F1200220FAB5
:1005700002F001FA04F340EA0300294630BD21FAF3
:1005800004F0294630BD94F0000F83F4801306BFB9
:1005900081F480110134013D4EE77FEA645C18BFAD
:1005A0007FEA655C29D094EA050F08BF90EA020F44
:1005B00005D054EA000C04BF1946104630BD91EA3C
:1005C000030F1EBF0021002030BD5FEA545C05D13F
:1005D0004000494128BF41F0004130BD14F580047E
:1005E0003CBF01F5801130BD01F0004545F0FE41F2
:1005F00041F470014FF0000030BD7FEA645C1ABF27
:10060000194610467FEA655C1CBF0B46024650EA5D
:10061000013406BF52EA033591EA030F41F4002189
:1006200030BD00BF90F0000F04BF0021704730B50F
:100630004FF4806404F132044FF000054FF00001E4
:1006400050E700BF90F0000F04BF0021704730B5A5
:100650004FF4806404F1320410F0004548BF40427A
:100660004FF000013EE700BF42004FEAE2014FEACF
:1006700031014FEA02701FBF12F07F4393F07F4FAA
:1006800081F06051704732F07F4208BF704793F0AD
:100690007F4F04BF41F40021704730B54FF46074C0
:1006A00001F0004521F000411CE700BF50EA0102C3
:1006B00008BF704730B54FF000050AE050EA01026C
:1006C00008BF704730B511F0004502D5404261EBDC
:1006D00041014FF4806404F132045FEA915C3FF41D
:1006E000D8AE4FF003025FEADC0C18BF03325FEABA
:1006F000DC0C18BF033202EBDC02C2F1200300FA6B
:1007000003FC20FA02F001FA03FE40EA0E0021FA8F
:1007100002F11444BDE600BF53B94AB9002908BF2D
:1007200000281CBF4FF0FF314FF0FF3000F074B9CC
:10073000ADF1080C6DE904CE00F006F8DDF804E038
:10074000DDE9022304B070472DE9F047089D044617
:100750008E46002B4DD18A42944669D9B2FA82F274
:1007600052B101FA02F3C2F1200120FA01F10CFAB0
:1007700002FC41EA030E94404FEA1C48210CBEFBE8
:10078000F8F61FFA8CF708FB16E341EA034306FB71
:1007900007F199420AD91CEB030306F1FF3080F000
:1007A0001F81994240F21C81023E63445B1AA4B24D
:1007B000B3FBF8F008FB103344EA034400FB07F7EF
:1007C000A7420AD91CEB040400F1FF3380F00A8130
:1007D000A74240F207816444023840EA0640E41B25
:1007E00000261DB1D4400023C5E900433146BDE8D1
:1007F000F0878B4209D9002D00F0EF800026C5E973
:10080000000130463146BDE8F087B3FA83F6002E8A
:100810004AD18B4202D3824200F2F980841A61EB02
:10082000030301209E46002DE0D0C5E9004EDDE720
:1008300002B9FFDEB2FA82F2002A40F09280A1EB08
:100840000C014FEA1C471FFA8CFE0126200CB1FB5D
:10085000F7F307FB131140EA01410EFB03F0884256
:1008600008D91CEB010103F1FF3802D2884200F2E3
:10087000CB804346091AA4B2B1FBF7F007FB101175
:1008800044EA01440EFB00FEA64508D91CEB040413
:1008900000F1FF3102D2A64500F2BB800846A4EB6E
:1008A0000E0440EA03409CE7C6F12007B34022FA59
:1008B00007FC4CEA030C20FA07F401FA06F31C4388
:1008C000F9404FEA1C4900FA06F3B1FBF9F8200C95
:1008D0001FFA8CFE09FB181140EA014108FB0EF0DB
:1008E000884202FA06F20BD91CEB010108F1FF3A2B
:1008F00080F08880884240F28580A8F10208614437
:10090000091AA4B2B1FBF9F009FB101144EA014144
:1009100000FB0EFE8E4508D91CEB010100F1FF34EF
:100920006CD28E456AD90238614440EA0840A0FB87
:100930000294A1EB0E01A142C846A64656D353D05D
:100940005DB1B3EB080261EB0E0101FA07F722FA81
:1009500006F3F1401F43C5E9007100263146BDE8AA
:10096000F087C2F12003D8400CFA02FC21FA03F30D
:10097000914001434FEA1C471FFA8CFEB3FBF7F08E
:1009800007FB10360B0C43EA064300FB0EF69E42B3
:1009900004FA02F408D91CEB030300F1FF382FD24C
:1009A0009E422DD9023863449B1B89B2B3FBF7F6F4
:1009B00007FB163341EA034106FB0EF38B4208D9CD
:1009C0001CEB010106F1FF3816D28B4214D9023E0E
:1009D0006144C91A46EA004638E72E46284605E72C
:1009E0000646E3E61846F8E64B45A9D2B9EB0208FD
:1009F00064EB0C0E0138A3E74646EAE7204694E78D
:100A00004046D1E7D0467BE7023B614432E73046BF
:100A100009E76444023842E7704700BFFEE700BFC1
:100A20000B480C4A904203D0121A0B4910F070FC8C
:100A30000A480B4A904203D0121A002110F076FCAB
:100A400005F050FF10F038FC02F050F9FEE700BF4F
:100A50000000002428040024A02C010828040024FD
:100A6000B4CF00242DE9F04101268CB0074604469E
:100A7000804601918672002527F8081F384603F04A
:100A800095FCBDF80630A67128F8043F404603F0F7
:100A90008DFCA74B204606960293A64B0595CDE903
:100AA00003350223CDE90A3308230DEB0301079335
:100AB000CDE9085504F0F0FC2946404603F052FD0C
:100AC0000A2005F0A7FD3146404603F04BFD0A2001
:100AD00005F0A0FDAE23294638468DF8083003F016
:100AE00041FD324602A96423204604F057FDD52378
:100AF000294638468DF8083003F034FD324602A905
:100B00006423204604F04AFD8023294638468DF8A8
:100B1000083003F027FD324602A96423204604F082
:100B20003DFDA823294638468DF8083003F01AFD0C
:100B3000324602A96423204604F030FD3F232946B3
:100B400038468DF8083003F00DFD324602A96423C3
:100B5000204604F023FDDA23294638468DF8083074
:100B600003F000FD324602A96423204604F016FD7E
:100B70001223294638468DF8083003F0F3FC32463C
:100B800002A96423204604F009FDD32329463846F0
:100B90008DF8083003F0E6FC3246642302A92046B3
:100BA00004F0FCFC294638468DF8085003F0DAFCC6
:100BB000324602A96423204604F0F0FC4023294673
:100BC00038468DF8083003F0CDFC324602A9642384
:100BD000204604F0E3FCA623294638468DF8083069
:100BE00003F0C0FC324602A96423204604F0D6FC80
:100BF000A423294638468DF8083003F0B3FC32466A
:100C000002A96423204604F0C9FC8D2329463846F6
:100C10008DF8083003F0A6FC324602A96423204672
:100C200004F0BCFC1423294638468DF8083003F044
:100C300099FC324602A96423204604F0AFFCA123AC
:100C4000294638468DF8083003F08CFC324602A95C
:100C50006423204604F0A2FCC823294638468DF8B8
:100C6000083003F07FFC324602A96423204604F0DA
:100C700095FC8123294638468DF8083003F072FC34
:100C8000324602A96423204604F088FC8F232946BB
:100C900038468DF8083003F065FC324602A964231B
:100CA000204604F07BFCD923294638468DF80830CD
:100CB00003F058FC324602A96423204604F06EFC7F
:100CC0002523294638468DF8083003F04BFC324680
:100CD00002A96423204604F061FCDB232946384640
:100CE0008DF8083003F03EFC324602A9642320460A
:100CF00004F054FC3423294638468DF8083003F0BC
:100D000031FC324602A96423204604F047FCAF239D
:100D1000294638468DF8083003F024FC6423324617
:100D200002A9204604F03AFC0CB0BDE8F08100BFF7
:100D3000060B0B000105060A70B5054682B0144685
:100D40000E4602F0F9F90021284602F075FA092052
:100D500002F018FA03461E20ADF8003002F012FA35
:100D6000034606F108004FF07C56ADF802300099BA
:100D7000FFF778FE284602F01FFAB7EE006AF0EEA1
:100D8000407A9FED137A00232046B0EE470A84EDA7
:100D9000027AC6EE276AC4ED037A63616660C4ED29
:100DA000046A0FF0C9FCDFED0B7A40F20112022356
:100DB000204684ED060AA284B0EE670A23706660BE
:100DC000C4ED027A0FF0B8FC84ED060A02B070BDE3
:100DD0000000C8420000DC4349424FF480621430F6
:100DE000C9B210F0A3BA00BF8020704740207047FE
:100DF0002DE9F041B02482B000F1080600F11005A1
:100E000000F11408002728468DF8074001343946C0
:100E100003F0A8FB642301220DF107013046E4B280
:100E200004F0BCFB394628468DF8077003F09AFBA6
:100E3000012264230DF10701304604F0AFFB1023BB
:100E4000394628468DF8073003F08CFB64230122D5
:100E50000DF10701304604F0A1FB0121284603F003
:100E600081FB8022414664233046904404F096FB87
:100E7000B82CC7D102B0BDE8F08100BF2DE9F04F1A
:100E800083B05C1A0C9E002C9DF83490A6EB0208EF
:100E9000B8BF6442B8F1000FB8BFC8F100088B4278
:100EA0008CBF4FF0010A4FF0FF3A9642A4EB080CBA
:100EB00051D84FF0FF357F2B019512D83F2E10D817
:100EC000F50806F0070E012703EBC5150544B9F137
:100ED000000F47D007FA0EF795F814E047EA0E071F
:100EE0002F75964201D18B4229D0C8F100077F2986
:100EF00014D83F2A12D8D50802F0070B4FF0010E84
:100F000001EBC5150544B9F1000F1BD00EFA0BFE1D
:100F100095F814B04EEA0B0E85F814E0B7EB4C0FC1
:100F20004FEA4C0502DAACEB080C5144AC4202DD4E
:100F3000019DA4442A449942D9D19642D7D103B005
:100F4000BDE8F08F0EFA0BFB95F814E02EEA0B0EBD
:100F500085F814E0E2E701257F2B0195C5D83F2EE7
:100F6000AED9C2E707FA0EFE2F7D964227EA0E079A
:100F70002F75B8D0B9E700BF2DE9F04F87B09DF8C5
:100F80004850109C2E4601959DF844509EB39942BE
:100F90002ED89946A24228D87F29164694BF00230E
:100FA000012308E09CF814804EEA080E8CF814E047
:100FB0000136B44219D33F2EFAD8002BF8D14FEAAC
:100FC000D60C06F0070E4FF0010801EBCC1C08FA16
:100FD0000EFE8444002DE5D19CF814B001362BEAB6
:100FE0000E0AB4428CF814A0E5D201318945D1D261
:100FF00007B0BDE8F08FA3EB0108B8F1000FB8BF50
:10100000C8F100089942C0F04E817F2B4FF0FF3AA3
:1010100094BF002601263F2A009694BF002701278F
:101020000397A6B99FB9D60802F0070C012703EB76
:10103000C6160644002D00F0958107FA0CF796F8C5
:1010400014C047EA0C0737750026039600969942AC
:1010500000F09881464694468E46BEF17F0F16D822
:10106000BCF13F0F13D84FEADC070CF0070B4FF031
:1010700001090EEBC7170744002D00F0398109FA6A
:101080000BF997F814B049EA0B0987F81490770028
:1010900018BFD644B84502DD46440CF1FF3C734509
:1010A000DBD16245D9D100260496A4EB0209B9F13F
:1010B000000FB8BFC9F100093F2C94BF00260126DC
:1010C000A242C9F100080296C0F02481002E40F02F
:1010D0005281009E002E40F04E814FF0FF36009668
:1010E000E60803EBC6160644002D00F01F814FF002
:1010F000010C04F007070CFA07F796F814C047EA4A
:101100000C07377500260296A24200F03E81C446C5
:1011100016461F4605927F2F15D83F2E13D84FEA4B
:10112000D60E06F0070B4FF0010A07EBCE1E8644E1
:10113000002D00F0E6800AFA0BFA9EF814B04AEA95
:101140000B0A8EF814A0B8EB4C0F4FEA4C0E02DAE3
:10115000ACEB090C013FBEF1000F01D0009A164420
:10116000BB42D8D1B442D6D1059AA1EB030EBEF151
:10117000000FB8BFCEF1000E7F2994BF4FF0000AD8
:101180004FF0010A99428CBF4FF001094FF0FF392F
:10119000BAF1000F13D1029E8EB9E60801EBC61614
:1011A0000644002D00F0D4804FF0010C04F0070736
:1011B0000CFA07F796F814C047EA0C073775049E37
:1011C00026BB774626467F2B14D83F2E12D84FEAEF
:1011D000D60C06F0070B4FF0010803EBCC1C84443F
:1011E000002D73D008FA0BF89CF814B048EA0B08ED
:1011F0008CF814805FEA470C18BF4B44E64501DDCC
:101200007744013E9942DED1B442DCD1A2EB040E18
:10121000BEF1000FB8BFCEF1000EA2428CBF4FF05E
:1012200001084FF0FF38CEF1000CBAF1000F0ED1DB
:10123000039B63B9D30802F00707012601EBC31330
:101240000344002D7DD0BE401F7D3E431E75019B93
:10125000002B7FF4CDAE66460B467F2B12D83F2C79
:1012600010D8E70804F0070A4FF0010903EBC7178D
:101270000744A5B309FA0AF997F814A049EA0A093C
:1012800087F81490BCEB460F4FEA460702DAA6EB4C
:101290000E06013B07B144449942DED1A242DCD1A3
:1012A00007B0BDE8F08F3F2A4FF0010A94BF002637
:1012B00001267F2B039694BF002701270097002E5D
:1012C0007FF4C8AE002F3FF4AEAEC3E608FA0BFBC6
:1012D0009CF8148028EA0B088CF814808AE709FA35
:1012E0000AFA97F8149029EA0A0987F81490C9E7CE
:1012F00009FA0BFB97F8149029EA0B0987F8149068
:10130000C5E60AFA0BFB9EF814A02AEA0B0A8EF82F
:1013100014A018E79EBB009E8EBB01260096E6082F
:1013200003EBC6160644002D7FF4E1AE012704F05E
:10133000070C029507FA0CFC377D27EA0C07377576
:10134000E2E606FA07F71E7D26EA07061E757EE727
:10135000012704F0070C07FA0CFC377D27EA0C077D
:1013600037752CE707FA0CFC377D039527EA0C0745
:10137000009537756BE64FF0FF360096C4E6012600
:101380000096C4E6012604968FE601260196ECE657
:101390002DE9F04F0E6887B01C4A0C4633690746AA
:1013A000934241F0DD804FF48062002104F114008B
:1013B0000FF0BCFFF368164DD6F81C80AB4241F02D
:1013C000C5803626AB4241F0BA804C23114A904585
:1013D00022D1B34229D30621CA0801F0070C01200B
:1013E0007F2E06EBC212014400FA0CF0224404D80E
:1013F00092F814C040EA0C0010752229ECD1B342D7
:1014000006F1010211D01646E5E700BFD90D00082C
:10141000E90D0008790F0008012231462046CDE988
:101420000122212200920622C0472268D368D2F806
:101430001890AB4241F079804FF036084FF0400AE7
:10144000AB4241F06980402136230A46CB4EB1457C
:1014500041F05780A1EB0A0143458CBF4FF0010AD0
:101460004FF0FF3A7F2B81EAE179A9EBE179A9F10D
:101470000F0107D802F2F62214FA82F2107D40F032
:10148000100010754FF0250C4FEADC024FF0010BF5
:101490000CF00700B8F17F0F08EBC21201FA0BFE47
:1014A0000BFA00F0224407D8BCF13F0F04D892F8A1
:1014B00014B040EA0B0010751EF10E0FC0F2FD844F
:1014C000F145D044A1F10F0100F3F7849845DBD139
:1014D000BCF1340FD8D12268D368D2F81890AB424F
:1014E00041F004804FF03608C246AB4240F0F68728
:1014F000392340221946B14540F0E587A1EB0A01A6
:10150000984534BF4FF0010A4FF0FF3A7F2B81EA34
:10151000E179A9EBE179A9F10F0107D802F2F922EB
:1015200014FA82F2107D40F0100010754FF0250C77
:101530004FEADC024FF0010B0CF00700B8F17F0F0F
:1015400008EBC21201FA0BFE0BFA00F0224407D896
:10155000BCF13F0F04D892F814B040EA0B001075AC
:101560001EF10E0FC0F2A484F145D044A1F10F0189
:1015700000F39E849845DBD1BCF1340FD8D12268AA
:10158000D368D2F81890AB4240F092874FF03908F8
:10159000C246AB4240F084873C2340221946B14505
:1015A00040F07387A1EB0A01984534BF4FF0010A60
:1015B0004FF0FF3A7F2B81EAE179A9EBE179A9F1BC
:1015C0000F0107D802F5FE7214FA82F2107D40F086
:1015D000200010754FF0340C4FEADC024FF0010B85
:1015E0000CF00700B8F17F0F08EBC21201FA0BFEF6
:1015F0000BFA00F0224407D8BCF13F0F04D892F850
:1016000014B040EA0B0010751EF10E0FC0F24B84AF
:10161000F145D044A1F10F0100F345844345DBD1EE
:10162000BCF1250FD8D12268D368D2F81890AB420C
:1016300040F021874FF03C084FF0400AAB4240F0A9
:10164000128740213C230A46B14540F00187A1EBB7
:101650000A0143458CBF4FF0010A4FF0FF3A7F2B40
:1016600081EAE179A9EBE179A9F10F0107D802F547
:101670003F7214FA82F2107D40F0100010754FF0A6
:10168000250C4FEADC024FF0010B0CF00700B8F11B
:101690007F0F08EBC21201FA0BFE0BFA00F0224496
:1016A00007D8BCF13F0F04D892F814B040EA0B0001
:1016B00010751EF10E0FC0F2F283F145D044A1F176
:1016C0000F0100F3EC839845DBD1BCF1340FD8D186
:1016D0002268D368D2F81890AB4240F091864FF060
:1016E0003E084FF0400AAB4240F0828640213E2344
:1016F0000A46B14540F07186A1EB0A0143458CBF13
:101700004FF0010A4FF0FF3A7F2B81EAE179A9EB14
:10171000E179A9F10F0107D802F5FF7214FA82F2FC
:10172000107D40F0200010754FF0340C4FEADC02C1
:101730004FF0010B0CF00700B8F17F0F08EBC2125D
:1017400001FA0BFE0BFA00F0224407D8BCF13F0F60
:1017500004D892F814B040EA0B0010751EF10E0F79
:10176000C0F29983F145D044A1F10F0100F39383B6
:101770004345DBD1BCF1250FD8D101E07D0E000837
:101780002268D368D2F81890AB4240F006864FF03A
:101790003E08AB42C24640F00C864123B1454FF0B3
:1017A00040001A4640F01086A2EB0A0EBEF1000F70
:1017B000B8BFCEF1000E434500F284837F2A4FF07C
:1017C000FF3A07D800F2812214FA82F2117D41F02B
:1017D00020011175434520D0F4462D21CA0801F09F
:1017E00007090120B8F17F0F08EBC21200FA09F0D7
:1017F00007D83F29224404D892F8149040EA0900FF
:1018000010755FEA4C0218BFD044964501DDF444E0
:1018100001399845E2D12D29E0D12268D368D2F868
:101820001890AB4240F0AC854FF04108C246AB4245
:1018300040F058844123B1454FF04002184640F033
:101840005C84A0EB0A09B9F1000FB8BFC9F1000927
:1018500043458CBF4FF0010A4FF0FF3A7F28A9F1B2
:101860000F0107D802F2012214FA82F2107D40F033
:10187000200010754FF0340C4FEADC024FF0010BE2
:101880000CF00700B8F17F0F08EBC21201FA0BFE53
:101890000BFA00F0224407D8BCF13F0F04D892F8AD
:1018A00014B040EA0B0010751EF10E0FC0F2288331
:1018B000F145D044A1F10F0100F322839845DBD11B
:1018C000BCF1250FD8D12268D368D2F81890AB426A
:1018D00040F022844FF04308AB42C24640F02A84D5
:1018E0004323B1454FF04002184640F02E84A0EB50
:1018F0000A09B9F1000FB8BFC9F1000943458CBF0F
:101900004FF0010A4FF0FF3A7F28A9F10F0107D8E5
:1019100002F2033214FA82F2107D40F010001075CA
:101920004FF0250C4FEADC024FF0010B0CF00700E2
:10193000B8F17F0F08EBC21201FA0BFE0BFA00F0B0
:10194000224407D8BCF13F0F04D892F814B040EA03
:101950000B0010751EF10E0FC0F2CE82F145D0447F
:10196000A1F10F0100F3C8824345DBD1BCF1340F74
:10197000D8D12268D368D2F81890AB4240F0F583F2
:101980004FF04308AB42C24640F0FD834623B145C9
:101990004FF04002184640F00184A0EB0A09B9F16B
:1019A000000FB8BFC9F1000943458CBF4FF0010AD1
:1019B0004FF0FF3A7F28A9F10F0107D802F2063253
:1019C00014FA82F2107D40F0100010754FF0250CD3
:1019D0004FEADC024FF0010B0CF00700B8F17F0F6B
:1019E00008EBC21201FA0BFE0BFA00F0224407D8F2
:1019F000BCF13F0F04D892F814B040EA0B00107508
:101A00001EF10E0FC0F27482F145D044A1F10F0116
:101A100000F36E824345DBD1BCF1340FD8D122688C
:101A2000D368D2F81890AB4240F0C8834FF0460814
:101A3000AB42C24640F0D0834623B1454FF040024E
:101A4000184640F0D483A0EB0A09B9F1000FB8BFE3
:101A5000C9F1000943458CBF4FF0010A4FF0FF3A2E
:101A60007F28A9F10F0107D802F2062214FA82F2A8
:101A7000107D40F0200010754FF0340C4FEADC026E
:101A80004FF0010B0CF00700B8F17F0F08EBC2120A
:101A900001FA0BFE0BFA00F0224407D8BCF13F0F0D
:101AA00004D892F814B040EA0B0010751EF10E0F26
:101AB000C0F21A82F145D044A1F10F0100F3148263
:101AC0009845DBD1BCF1250FD8D12268D368D2F874
:101AD0001890AB4240F09B834FF04808AB42C2469F
:101AE00040F0A3834823B1454FF04002184640F030
:101AF000A783A0EB0A09B9F1000FB8BFC9F100092B
:101B000043458CBF4FF0010A4FF0FF3A7F28A9F1FF
:101B10000F0107D802F5027214FA82F2107D40F02C
:101B2000200010754FF0340C4FEADC024FF0010B2F
:101B30000CF00700B8F17F0F08EBC21201FA0BFEA0
:101B40000BFA00F0224407D8BCF13F0F04D892F8FA
:101B500014B040EA0B0010751EF10E0FC0F2C081E8
:101B6000F145D044A1F10F0100F3BA814345DBD127
:101B7000BCF1250FD8D12268D368D2F81890AB42B7
:101B800040F06E834FF04A08AB42C24640F0768385
:101B90004C23B1454FF040001A4640F07A83A2EB47
:101BA0000A0EBEF1000FB8BFCEF1000E434500F2A1
:101BB0005D827F2A4FF0FF3A07D800F5037214FACE
:101BC00082F2117D41F020011175434520D0F44689
:101BD0002521CA0801F007090120B8F17F0F08EBA1
:101BE000C21200FA09F007D83F29224404D892F81B
:101BF000149040EA090010755FEA4C0218BFD04407
:101C0000964501DDF44401394345E2D12529E0D16F
:101C10002268D368D2F81890AB4240F048834FF066
:101C20004A08AB42C24640F050834C23B1454FF0C6
:101C30004002184640F05483A0EB0A09B9F1000FA6
:101C4000B8BFC9F10009984534BF4FF0010A4FF001
:101C5000FF3A7F28A9F1070107D802F5237214FA89
:101C600082F2107D40F0100010754FF0250C4FEA05
:101C7000DC024FF0010B0CF00700B8F17F0F08EB0E
:101C8000C21201FA0BFE0BFA00F0224407D8BCF195
:101C90003F0F04D892F814B040EA0B0010751EF103
:101CA000060FC0F21981F145D044A1F1070100F3FC
:101CB00013819845DBD1BCF12C0FD8D12268D368B1
:101CC000D2F818A0AB4240F01B834FF04C08AB4257
:101CD000C34640F023834FF04A09B2454FF040021B
:101CE000484640F02683A0EB0B03002BB8BF5B42B5
:101CF000C1458CBF4FF0010A4FF0FF3A7F28A3F196
:101D0000080107D802F20A3214FA82F2107D40F07C
:101D1000100010754FF02C0C4FEADC024FF0010B55
:101D20000CF00700B8F17F0F08EBC21201FA0BFEAE
:101D30000BFA00F0224407D8BCF13F0F04D892F808
:101D400014B040EA0B0010751EF1070FC0F2C080FE
:101D50007345D044A1F1080100F3BA80C845DBD136
:101D6000BCF1340FD8D12268D368D2F81890AB42B6
:101D700040F0EF824FF04A08AB42C24640F0F78293
:101D80004C2340201A46B14540F07C81A2EB0A0C5E
:101D9000BCF1000FB8BFCCF1000C434500F26C81E0
:101DA0007F2A4FF0FF3E07D800F5437214FA82F203
:101DB000117D41F01001117543451FD06646342155
:101DC000CA0801F007090120B8F17F0F08EBC21221
:101DD00000FA09F007D83F29224404D892F8149059
:101DE00040EA09001075720018BFF044944501DD07
:101DF000664401394345E3D13429E1D1B0EE007A9C
:101E0000D7ED007A236877EE877ADA68DE69AA422E
:101E1000FCEEE77A17EE909A40F015834FF0800AB7
:101E20009B68DFF8BC82434540F00483DFEDA87A6D
:101E3000D7ED006AB0EE007AA64B77EEA67A9E4206
:101E400077EE877AFCEEE77A17EE902A40F0E78289
:101E50000023A446914518D87F2B494694BF0024FF
:101E60000124C80801F0070E01263F2903EBC0102A
:101E7000314406FA0EF606D8604424B990F814E00E
:101E80002EEA060606758A42EBD2534503F101019C
:101E90003AD00B46DEE749440CF1FF3C68E4494484
:101EA0000CF1010C0FE449440CF1FF3CFFF7B6BB09
:101EB00049440CF1010CFFF75DBB49440CF1010CE6
:101EC000FFF704BB7F2A4FF0010A7FF67BAC83E467
:101ED00019440CF1010C41E749440CF1010CE8E60E
:101EE00049440CF1FF3C41E649440CF1FF3CE7E575
:101EF00049440CF1010C8DE549440CF1010C33E52A
:101F000049440CF1FF3CD9E4644623689A68D3F84D
:101F10001CA0424540F0CD80DFED6D7AF0EE006A06
:101F200097ED007ADA6837EE267AAA4277EEC77A1A
:101F3000FCEEE77A17EE906A40F0AC809B684FF0B9
:101F40008009434540F0AE80DFED637AD7ED006A4B
:101F5000B0EE007A5F4A77EEE67A924577EE877ABE
:101F6000FCEEE77A17EE903A22D10020B4469C4569
:101F700018D87F28624694BF00260126D10802F0B7
:101F8000070E01253F2A00EBC1112A4405FA0EF580
:101F900006D8214426B991F814E02EEA05050D75FE
:101FA0009342EBD2814500F101020BD01046DEE7EF
:101FB000012000214B463246CDED007ACDE90110DB
:101FC0002046D04797ED007A2368B7EEC77A434A98
:101FD000DB6A9FED3D6B934237EE467BB7EEC77BE6
:101FE00087ED007A40F0168204F1080704F110062C
:101FF000B02514344FF0000830468DF817500135E5
:10200000414602F0AFFA642301220DF11701384670
:10201000EDB203F0C3FA414630468DF8178002F066
:10202000A1FA012264230DF11701384603F0B6FA34
:102030001023414630468DF8173002F093FA64239E
:1020400001220DF11701384603F0A8FA01213046AC
:1020500002F088FA8022214664233846144403F0B3
:102060009DFAB82DC6D107B0BDE8F08F7F2A4FF09A
:10207000010A7FF6A2ADAAE57F2A4FF0010E7FF696
:1020800093AE9BE6342201204146CDE90020204654
:10209000C847B3E620469047236881469B6843457E
:1020A0003FF452AF2046984707EE900AF8EEE77AE1
:1020B0004CE720469047C0F34F0307EE903A236861
:1020C000F8EEE77A2AE700BF9A9999999999B93F6A
:1020D00000000042790F000800008042F10D000866
:1020E000ED0D000820469847C0F34F02B14502F1BC
:1020F000010080B203463FF4A4AB252201204146F3
:10210000CDE9002034222046C8472268D368D2F89F
:102110001890AB423FF4DEAB2046984723684FEA65
:10212000500ADB680AF1030AAB421FFA8AFAD0466A
:102130003FF4D6AB20469847C0F34F02B14502F1B9
:10214000030080B203463FF4D2AB34224FF0010BC0
:1021500041462046CDE9002B2522C8472268D36896
:10216000D2F81890AB423FF40BAC20469847236856
:102170004FEA500ADB680AF1030AAB421FFA8AFAF7
:10218000D0463FF403AC20469847C0F34F02B14518
:1021900002F1060080B203463FF4FFAB34224FF059
:1021A000010A41462046CDE9002A2522C847226877
:1021B000D368D2F81890AB423FF438AC2046984729
:1021C00023684FEA500ADB680AF1060AAB421FFA9D
:1021D0008AFAD0463FF430AC20469847C0F34F020D
:1021E000B14502F1060080B203463FF42CAC4146F3
:1021F00025224FF001082046CDE900283422C847A7
:102200002268D368D2F81890AB423FF465AC204600
:10221000984723684FEA500ADB680AF1080AAB4284
:102220001FFA8AFAD0463FF45DAC20469847C0F3C7
:102230004F02B14502F1080080B203463FF459ACA9
:1022400025224FF0010E41462046CDE9002E3422D2
:10225000C8472268D368D2F81890AB423FF492ACDA
:102260002046984723684FEA500ADB680AF10A0AB9
:10227000AB421FFA8AFAD0463FF48AAC2046984710
:10228000C0F34F00B14500F10C0292B213463FF487
:1022900086AC252201204146CDE900202046C847D2
:1022A0002268D368D2F81890AB423FF4B8AC20460D
:1022B000984723684FEA500ADB680AF10A0AAB42E2
:1022C0001FFA8AFAD0463FF4B0AC20469847C0F3D4
:1022D0004F02B14502F10C0080B203463FF4ACACB2
:1022E0002C224FF0010C41462046CDE9002C25223E
:1022F000C8472268D368D2F818A0AB423FF4E5ACD7
:102300002046984723684FEA500BDB680BF10C0B13
:10231000AB421FFA8BFBD8463FF4DDAC2046984712
:10232000C0F34F02B24502F10A0080B281463FF489
:10233000DAAC342201204B464146CDE900202C2264
:102340002046D0472268D368D2F81890AB423FF4B9
:1023500011AD2046984723684FEA500ADB680AF11E
:102360000A0AAB421FFA8AFAD0463FF409AD20466A
:102370009847C0F34F0000F10C0292B2134602E5F9
:102380002046984723684FEA500ADB680AF1010AA1
:102390001FFA8AFAD046FFF74ABA204698472368C0
:1023A000C0F34F00DB68A0F1020AAB42D0463FF415
:1023B000F4A920469847C0F34F00B14500F101024F
:1023C00092B213463FF4F0A92D2201204146CDE9F7
:1023D00000202046C847FFF720BA25224FF0010C05
:1023E00041462046CDE9002C3422C847FFF7C8B942
:1023F00020469847C0F34F021146931EFFF779B964
:10240000204698472368C0F34F0ADB68AAF1020808
:10241000FFF769B9204607B0BDE8F04F1847002123
:10242000012053464A46CDED007ACDE90110204601
:10243000B0476AE520469847C0F34F0307EE903A4D
:10244000F8EEE77AF4E42046904723688246E7E412
:1024500034224FF0010E41462046CDE9002E2522C0
:10246000C847FFF735B920469847C0F34F021146D9
:10247000131FFFF7E9B8204698472368C0F34F0AB7
:10248000DB68AAF10408FFF7D9B8414625224FF0CE
:1024900001082046CDE900283422C847FFF7C3B819
:1024A00020469847C0F34F02111F0B46FFF777B83D
:1024B00020469847C0F34F002368A0F1070ADB6865
:1024C000D046FFF766B834224FF0010A4146204655
:1024D000CDE9002A2522C847FFF751B82046984782
:1024E000C0F34F02D11F0B46FFF705B820469847AF
:1024F000C0F34F002368A0F10A0ADB68D046FEF75C
:10250000F4BF34224FF0010B41462046CDE9002BA9
:102510002522C847FEF7DFBF20469847C0F34F0289
:102520001146A2F10A03FEF791BF2046984723689F
:10253000C0F34F0ADB68AAF10A08FEF781BF204604
:10254000984743080C339BB2FEF740BF204698479C
:102550002368C0F34F00DB68A0F10A06FEF732BF24
:102560000021204698472668FEF724BF704700BF29
:10257000704700BF704700BF704700BFA2B170B581
:102580000D461646002409480DF0F4FED5E9000377
:1025900000EB840003EB8403013480ED000AA642C3
:1025A00083ED000AEFD170BD704700BF3C7D002471
:1025B00010B5044640F214410EF042F9204610BD19
:1025C0002DE9F04F85B0A1F1200504AC9DF83870DD
:1025D000009104E90C00EBB25E2B00F295800368D9
:1025E00080465D4ADB689DF8084093429DF809608B
:1025F00040F094808020B8F804302344834200F3F4
:102600008380D8F80030554A9B68934240F0888018
:102610004020B8F8062093190192834274DC002E02
:1026200000F0898006FB05F56FF00040039B96469D
:1026300028442E44B8F804A003EB4000023B03EB0F
:10264000460B30F8026FBCB30EF007034FF0010CDD
:102650004FEADE0251460CFA03FC0AF114034FFA6A
:102660008CFC03EBC21200236FEA0C0942440EE01B
:102670007F2907D8BEF13F0F04D815789FB14CEAE7
:10268000050515700133013201319C4214D006FA60
:1026900003F52D04ECD47F29F4D8BEF13F0FF1D817
:1026A0001578002FEBD0013309EA0505013201311D
:1026B0009C4202F8015CEAD158450EF1010EC0D1EE
:1026C000D8F8003054442449DA68A4B28A422DD1A3
:1026D000802084421CD29B68204AA8F80440934280
:1026E00021D14020019B834207D3D8F800301B4AF8
:1026F0009B68934229D13F230193DDE90003A8F8A9
:10270000063005B0BDE8F08F002005B0BDE8F08FC1
:10271000DA6811498A4211D17F24DCE798476AE7D9
:102720004046984775E740469847DBE74046904764
:10273000D8F80030CDE7B8F804A0C1E7404690478C
:102740000138D8F8003084B2C5E7404698470138D0
:1027500083B20193D1E700BFE90D0008ED0D000839
:10276000F0B585B00C46097802AD9DF8287085E873
:102770000C0081B1064602E014F8011F59B1304641
:1027800095E80C000097FFF71BFF23789842F3D0E1
:10279000184605B0F0BD0023184605B0F0BD00BFD7
:1027A0007F291ED83F2A1CD86BB1D3084FF0010CEB
:1027B00002F0070201EBC3130CFA02F2C1180B7D01
:1027C0001A430A757047D3084FF0010C02F0070254
:1027D00001EBC3130CFA02FCC1180A7D22EA0C02B9
:1027E0000A757047000000002DE9F04F2DED068BB3
:1027F00083B01F4680460D469DF850301646019323
:10280000139B002BC0F22182129A134406EE103A59
:10281000DDED127AB8EEC66B9FEDCD4BB8EEE77BDF
:102820009FEDCD5B27EE047B26EE046B87EE050B58
:1028300086EE05ABF7EEC08BB0EE680A0EF09CF8A2
:1028400007EE907AB7EECAABF8EE679AB0EE408A20
:10285000B0EE680A0EF054FB60EE698AB0EE4A0AE8
:102860000EF08AF8B0EE409AB0EE4A0A0EF048FB3D
:1028700020EE690A29EE888A29EE899A70EE687A34
:10288000F0EE006A39EE487A67EEA77AE7EE077A4B
:10289000F4EEE67AF1EE10FA06D5139BB42B40F372
:1028A00096804FF0010901E04FF0000901247842C1
:1028B0004FF0000C0095E31B214627462246A3401B
:1028C000B9F1000F6AD1424206EE90CACCF1000184
:1028D00007EE102AB8EEE66A07EE901A06EE900AA6
:1028E000B8EEC77A139A66EE084AF8EEE77AB42A89
:1028F00027EE284AF8EEE66A67EE885A74EEC43A84
:1029000026EEA85A26EE096A66EE806A67EE897A94
:1029100027EE007AF5EEC03A40F3F280F1EE10FABD
:1029200000F17F8176EE473A74EEC54AF5EEC03A83
:10293000F1EE10FAF5EEC04ACCBF01220022F1EE12
:1029400010FA00F1778136EE666A35EEC55AB5EEBB
:10295000C06AF1EE10FAB5EEC05ACCBF01210021D9
:10296000F1EE10FA00F16F8177EEE66AF5EEC06ADB
:10297000F1EE10FACCBF0127002775EEC45AF5EE30
:10298000C05AF1EE10FA00F1478177EEC77AF5EE02
:10299000C07AF1EE10FACCBF01240024002A40F0E6
:1029A0008A80002964D1BFB9C4BB9C4558DB0CF1B7
:1029B000010C03EB4C0E1CEB000F0EF1010E00F0AE
:1029C000C08098424FDB734600287FF779AF03B091
:1029D000BDEC068BBDE8F08F009DA6EB0C0E00EB66
:1029E000050ABAF17F0FDFD8BEF13F0FDCD84FEAFE
:1029F000DE0B019D0AEBCB1A002D00F0B1800EF02A
:102A0000070BC2444FF0010E0EFA0BFE9AF814B0F9
:102A10004EEA0B0E8AF814E0002CC6D0009DA6EBFF
:102A20000C0EA5EB000ABAF17F0FBED8BEF13F0F26
:102A3000BBD84FEADE0B019D0AEBCB1A002D00F04C
:102A4000AE800EF0070BC2444FF0010E9C450EFA0B
:102A50000BFE9AF814B04EEA0B0E8AF814E0A6DAD0
:102A600098429E46AFDA01300EEB40030133ABE7EC
:102A7000009D0CEB060E00EB050ABAF17F0F92D811
:102A8000BEF13F0F8FD84FEADE0B019D0AEBCB1A48
:102A9000002D73D00EF0070BC2444FF0010E0EFA5A
:102AA0000BFE9AF814B04EEA0B0E8AF814E0002FD1
:102AB0003FF47AAF90E7009D0CEB060EA5EB000A01
:102AC000BAF17F0F3FF66DAFBEF13F0F3FF669AF32
:102AD0004FEADE0B019D0AEBCB1A002D6DD00EF0F4
:102AE000070BC2444FF0010E0EFA0BFE9AF814B019
:102AF0004EEA0B0E8AF814E000293FF454AFB7E712
:102B0000F1EE10FA7ED44A4674EEC54AF5EEC04A9C
:102B1000F1EE10FA6CD4002135EEC55AB5EEC05A6C
:102B2000F1EE10FA5AD4002775EEC45AF5EEC05AE9
:102B3000F1EE10FA3FF529AF0024002A3FF431AF3F
:102B4000B9E798428FDB00233BE700BFAFF300807B
:102B50007A008BFCFA2109400000000000806640EA
:102B6000C2444FF0010B0EF0070E0BFA0EFE9AF85E
:102B700014B02BEA0E0E8AF814E015E7C2444FF0A9
:102B8000010B0EF0070E0BFA0EFE9AF814B02BEAAA
:102B90000E0E8AF814E0002F3FF406AF1CE7C24483
:102BA0004FF0010B0EF0070E0BFA0EFE9AF814B060
:102BB0002BEA0E0E8AF814E0F7E6C2444FF0010B40
:102BC0000EF0070E0BFA0EFE9AF814B02BEA0E0E5A
:102BD0008AF814E000293FF4E6AE49E777EEE66AAA
:102BE000F5EEC06AF1EE10FACCBF012700279BE793
:102BF00036EE666AB5EEC06AF1EE10FACCBF01217E
:102C0000002189E776EE473AF5EEC03AF1EE10FA88
:102C1000CCBF0122002277E70124002A3FF4C1AE95
:102C200049E774EEC54A0122F5EEC04AF1EE10FA0A
:102C30007FF589AE35EEC55A0121B5EEC05AF1EEE9
:102C400010FA7FF591AE012797E6DDE912231344D0
:102C500006EE102A1293139B5B421393D8E500BF34
:102C600084B010B502AC84E80F009DF808309DF8E0
:102C7000112033B1012B00D162B9BDE8104004B07E
:102C80007047002AF9D0154B0022BDE810405A6069
:102C900004B070479DF81030F2EE080A9FED107AEC
:102CA000B0EE000A07EE903A0C4CF8EE677A77EE39
:102CB000C77AC7EEA00A0DF08FFFDFED0A7A204633
:102CC00020EE270A84ED020A0DF036FD064B84ED56
:102CD000060A6360BDE8104004B070473C7D0024E4
:102CE00000008A420000DC433333333F2DE9804843
:102CF000BC4AF3B0BC490026BC481BAFFEF71CF829
:102D00000021BB4801F0A8FABA4BBB4D5C791A68A8
:102D100005F108088DF8574105F5E04419799879CF
:102D20005692C4F88C24DA795B688DF8561155A94F
:102D3000C4F8903401238DF8540157935A9347F601
:102D40001223AE485B9302238DF855215993589670
:102D500003F0F4FA0A23C4F8806404F29440C4F83F
:102D60007C642B722E7103F06BFBA5499F4800F029
:102D70001FFA03F04DFC0646A04803F095FBF0B1A6
:102D80009E48C4F8846403F07BFB2B798246032BB6
:102D9000F2D8DFE803F04E764602F72800F0BD8057
:102DA00095F87630632B00F2B880EA1801339074FE
:102DB000924885F8763003F077FB0028E0D18F4801
:102DC00003F052FB0346002800F0018186498D483C
:102DD000FEF7DEFAD4F88034D4F87C249B1ADBB2F8
:102DE000002BC6D0D4F88034D4F87C249B1ADBB2F4
:102DF000002BF7D0D4F87C647422384602FB0651CD
:102E00000136F6B27C310EF083FA1FA964226846BF
:102E1000C4F87C640EF07CFA97E80F00FFF720FFFF
:102E2000A7E794F89834184200F0A88000232B718B
:102E3000A2E794F89834184200F0948094F89934FA
:102E400094F89C24034002401B09EA60092B2B7272
:102E500092D80122072B84F888342A718CD1002360
:102E600010F0080CEB6040F0F98000F0070385F8E3
:102E70007730002B40F0CA80032285F876302A7123
:102E80007AE794F898341842D0D194F8889494F85A
:102E90009A04A9F104030AEA000A012B85F810A09C
:102EA00006D995F8773003F0FD03012B40F09780A9
:102EB00000237422544938A82B710EF029FAD4F853
:102EC0007C34D4F88024013B9B1ADBB2002BF6D073
:102ED000742238A955A80EF01BFAD4F880B47422D5
:102EE00055A902FB0B500BF1010B7C300EF010FAD0
:102EF0005FFA8BF3C4F88034BAF1770F7FF63CAFFA
:102F0000B9F1030F7FF438AF0923AAF1780A2B72C5
:102F100084F8883485F879A02EE7002374223A4992
:102F200038A82B710EF0F4F9D4F87C34D4F880244E
:102F3000013B9B1ADBB2002BF6D0742238A955A8AE
:102F40000EF0E6F9D4F88094742255A902FB0950DA
:102F500009F101097C300EF0DBF95FFA89F3C4F85E
:102F6000803409E794F89A04022394F888240AEA42
:102F7000000A2B712A7285F810A0FDE694F89A34A5
:102F80007422214938A80AEA030A85F811A00EF034
:102F9000BFF9D4F87C34D4F88024013B9B1ADBB20F
:102FA000002BF6D0742238A955A80EF0B1F9D4F848
:102FB0008094742255A902FB095009F101097C3063
:102FC0000EF0A6F95FFA89F3C4F880342EE70B48B7
:102FD0002B7103F04DFA094803F032FAF6E60223AA
:102FE0002B7189E73C7D0024440400245808002408
:102FF0007C080024347D002494080024287D0024CB
:103000007D250008647D00249C08002410F0040F36
:103010003FF4B2AE7422414638A885F804C00EF0E1
:1030200077F9D4F87C34D4F88024013B9B1ADBB2C6
:10303000002BF6D0742238A955A80EF069F9D4F8FF
:103040008094742255A902FB09507C300EF060F97F
:1030500009F10103DBB2C4F880348DE694F89E14C4
:103060004FF0080C74222B7100EA010A414638A87F
:1030700085F808C084F888C485F878A00EF048F96F
:10308000D4F87C34D4F88024013B9B1ADBB2002BAB
:10309000F6D0CFE770B51B4800241B4A1B4944619A
:1030A00004620DF055FB1A4B1A481B490360164A7F
:1030B00084600DF04DFB144A184919480DF048FB87
:1030C0001848194900F5E0430F4A0E888D881749C2
:1030D000C3F88C44C3F898144FF60F01C3F8944416
:1030E000A3F89C140721A3F8906483F89E14A3F816
:1030F00092540F4904600DF02BFB0E4B1C609E8018
:10310000DD8070BD58080024000000246D250008F3
:10311000882401084404002475250008712500084E
:103120003C7D0024940800243C23010880707FF03B
:1031300079250008347D00240F4A01230F494FF000
:10314000060C80F82730816040F2027180F810C0D0
:10315000A0F8251080F82B3010B4094CC0E90042CB
:1031600002F181725DF8044B0532C26040F60662DE
:10317000A0F82920704700BF0105080509050705CB
:10318000000705001F2882B009D8084B03EB400256
:1031900013F81030507843EA002002B07047012342
:1031A0000C2043EA002002B0704700BFB824010899
:1031B000143001F025B800BF143001F01DB800BF75
:1031C00030B5032491B00125194900234FF4417211
:1031D000089106A9ADF8242002939FED137BCDE959
:1031E0000A45144D044602A88DED0C7B8DED0E7B37
:1031F000CDE9063501F028FE40F601333025ADF863
:103200000430019800F056F803214FF07E53029AE3
:1032100004F114000593CDE9035103A900F0B6FFB2
:1032200011B030BDAFF300800000000001000000CD
:10323000040504060402040430B504462DED028B97
:1032400083B089B3012240F201130092ADF804303B
:10325000694604F1300003F0A9FA204600F04CF86A
:10326000E01C01F091F904F1250001F09FF804F150
:10327000140504F1290001F099F82046FFF7A0FF9A
:10328000284600F0B9FF2846B0EE408A00F0B0FFB3
:10329000D0ED007AF8EE677A88EE277A84ED0E7A20
:1032A00003B0BDEC028B30BD40F201130091ADF8CC
:1032B0000430CDE710B584B003460124ADF8040016
:1032C00003A8ADF80C30ADF80E4001F06FF82146C0
:1032D00003A801F047F9204603F09CF9002103A858
:1032E00001F040F9204603F095F9214603A801F0CA
:1032F00039F904B010BD00BFF0B53F4C8BB0A063EE
:1033000003781BB1002528460BB0F0BD00220793BF
:1033100001233A49201D61600321C4E902230822E8
:10332000202306910A21C4E9042340224FF4C073EC
:10333000089102A9C4E9062300224FF40063C4E9FE
:1033400008234FF480520023C4E90A2302220723F2
:10335000CDE9022304220823CDE9042308F0B4FFB9
:103360000546002844D1102301220126002702A986
:103370000190201DCDE902234FF48052CDE904676E
:1033800008F0CCFF642004F053F802A94FF48052F7
:10339000201DCDE9046702261027CDE9026708F059
:1033A000BDFF0322102302A9201DCDE90223002323
:1033B0000422CDE904234FF4805208F0AFFF40F21D
:1033C0003223042202A901931023201DCDE90223F8
:1033D000019A012305924FF48052049308F09EFF56
:1033E00040F60601201D08F0B9FF28460BB0F0BDDD
:1033F000012528460BB0F0BD707D002440410052ED
:103400006A4A00232DE9F04315688FB00A9315B17D
:103410000FB0BDE8F083664B01210C244FF0030888
:1034200011600026D3F8D4200327624842F480526A
:10343000DFF89891C3F8D420D3F8D42002F4805256
:103440000092009AD3F8E02042F01002C3F8E02086
:10345000D3F8E02002F010020192019AD3F8E020A4
:1034600042F04002C3F8E020D3F8E02002F040022E
:103470000292029AD3F8E02042F00802C3F8E0205A
:10348000D3F8E02002F008020392039AD3F8E02078
:1034900042F48072C3F8E020D3F8E02002F4807296
:1034A0000492049AD3F8E02042F08002C3F8E020AE
:1034B000D3F8E02002F080020592059AD3F8E020CC
:1034C00042F02002C3F8E020D3F8E02002F020020E
:1034D0000692069AD3F8E02042F00402C3F8E020F6
:1034E0004FF68372D3F8E0300C9403F00403CDF868
:1034F0002C8007930223079908A9CDE9082305F03A
:103500003DF848F23712022308A92B480C94CDE964
:103510000823CDE90A6705F031F84CF20372022363
:1035200008A926480C94CDE90823CDE90A6705F0DF
:1035300025F840F2FF62022308A921480C94CDE946
:103540000823CDE90A6705F019F84FF60C7202233B
:1035500008A91C480C94CDE90823CDE90A6705F0B9
:103560000DF84FF63F02022308A917480C94CDE945
:103570000823CDE90A6705F001F8D9F838000130D1
:1035800003F034FED9F838300646581C03F036FEF6
:103590000223089008A930460A950993CDE90B84C7
:1035A00004F0ECFF0FB0BDE8F08300BF687D00249D
:1035B000004402580010025800180258000C02582B
:1035C00000200258001C025800140258707D00248C
:1035D0002DE9F04FDFF8108406460D46144608F139
:1035E00014002DED028B89B000AF01F025FDD8F855
:1035F000143073B3D8F81830D8F80490002B43690E
:103600000BBF4FF0080A4FF0100A4FF0020B4FF0BB
:10361000040BB9F1000F2AD0A200EA46012B02F1F7
:10362000070222F00702ADEB020D6846ADEB020D7A
:10363000694600F03F81022B00F0D680002B6FD04E
:103640002246C847D5462437BD46BDEC028BBDE8AF
:10365000F08FD8F81830002BF5D0D8F804904FF040
:10366000080A4FF0020B4369B9F1000FD4D1FB6196
:10367000D8F80030BB61002BE5D0D54801F024FD1F
:103680006B46BBF1020F786108EE103AFB6900F05F
:1036900083816A465146A2EBC40295466200EA461F
:1036A000B2FBFBF2AAEBC40085460AEB8200EE46B1
:1036B000F861ADEB010DF8690EEB820CC7F810C094
:1036C000EC46ADEB010D00EB8201CCF80400CCF828
:1036D000081001EB82013869E946CCF80C1000EBC8
:1036E0008201CCF800A001EB8202C9E900E0C9E93F
:1036F0000212012B00F06483022B00F06C82002B7D
:1037000000F08081620849466046BB69984718EE20
:10371000103A24379D46BD46BDEC028BBDE8F08FC4
:10372000002C8DD01A46D8ED0B6A9FEDB27A8446F4
:10373000331D36F922E00CF1080C07EE90EA33F95C
:1037400022E00232F8EEE77A944267EE877A67EE7B
:10375000A67A4CED027A07EE90EAF8EEE77A67EE89
:10376000877A67EEA67A4CED017AE2D8F9612246B3
:10377000C847984ED8ED046A0020F9692B1D9FEDCB
:103780009E7A9FED9E6ADFED9E5A22E0F4EEC67AA5
:10379000F1EE10FAC0F2C88447F6FE72D1ED017A5C
:1037A00045F8202066EEA77AF4EEC77AF1EE10FA1B
:1037B00040F2F080F4EEC67AF1EE10FAC0F2D58451
:1037C00047F6FE7243F820200230083184427FF62B
:1037D00039AFD1ED007A66EEA77AF4EEC77AF1EE52
:1037E00010FAD3D83246D9E7002C3FF429AFD8EDF0
:1037F0000B6A84469FED787A0022331D8E4656F878
:1038000022100CF1080C07EE901A53F82210023225
:10381000F8EEE77A944267EE877A67EEA67A4CED87
:10382000027A07EE901AF8EEE77A67EE877A67EE8B
:10383000A67A4CED017AE2D871462246C7F81CE020
:10384000C847664ED8ED046A0020F9692B1D9FED2C
:103850006A7A9FED6A6ADFF894C120E0F4EEC67AD6
:10386000F1EE10FAC0F279843246D1ED017A45F8D2
:10387000202066EEA77AF4EEC77AF1EE10FA40F255
:103880008780F4EEC67AF1EE10FAC0F25E8432461A
:1038900043F820200230083184427FF6D3AED1EDC8
:1038A000007A66EEA77AF4EEC77AF1EE10FAD5D870
:1038B0006246DAE7002C3FF4C3AED8ED0B6A8646C9
:1038C0009FED477A4FF0000C331D56F82C200EF177
:1038D000080E82F40002A2F5000207EE902A53F8C7
:1038E0002C200CF1020CF8EEE77A82F40002644519
:1038F000A2F5000267EE877A67EEA67A4EED027AAD
:1039000007EE902AF8EEE77A67EE877A67EEA67AF6
:103910004EED017AD9D8F9612246C847314ED8ED2B
:10392000046A0020F9692B1D9FED337A9FED336AFD
:10393000DFF8BCC01FE0F4EEC67AF1EE10FAC0F278
:10394000FC833246D1ED017A45F8202066EEA77A55
:10395000F4EEC77AF1EE10FA18D9F4EEC67AF1EE69
:1039600010FAC0F2DA83324643F8202002300831E0
:1039700084427FF667AED1ED007A66EEA77AF4EE68
:10398000C77AF1EE10FAD6D86246DBE76246EBE77B
:1039900062467DE7324615E7A100D6466208073148
:1039A00021F00701ADEB010DEA46ADEB010D6946D3
:1039B000ADEB0E0D0AEB8200EC46ADEB0E0D01EB0C
:1039C0008202F861E946CCE900A0C9E9001290E65C
:1039D000C47D00240280FFFF000000300082FF7FD2
:1039E0000000003482FF7F00AC7D0024007E008058
:1039F0007E0080FF0000003804FF7FBF04FF7F3F90
:103A000000FEFF46002C00F0C982BBF1020FD8F87F
:103A1000202000F0FA827969C7F8049002EB810E49
:103A20005FED0C5A8A00DCF808100EF104007A6190
:103A30001A46DCF80C303B61331DD7F810903D611D
:103A4000FD69C7E902CB8C46834636F92210D8EDD2
:103A50000B7A06EE101A33F9221006EE901A3EF990
:103A60002210B8EEC66A07EE101AF8EEE66A3BF9C5
:103A70002210B8EEC77A26EE256A66EEA56A27EE12
:103A8000257A26EE276A66EEA76A27EE277A07EEE2
:103A9000901A51080232F8EEE77A0AEB810094425C
:103AA00080ED006A05EB810067EEA57AC0ED006A43
:103AB0000CEB810009EB810180ED007A98ED0B7A27
:103AC00067EE877AC1ED007ABFD8D7F804903D69D8
:103AD000D7E902CB60466208BB6949469847D8F8E7
:103AE00028307A69D8ED046A1A441FED3D7A1FED3B
:103AF0003D6A2B1D904602F1040A5FED3F5A0022F9
:103B0000A84ED9E900EC51E0F4EEC67AF1EE10FAD5
:103B1000C0F2C78247F6FE7045F822000CEB0100A8
:103B2000D0ED007A66EEA77AF4EEC77AF1EE10FADD
:103B30004BD9F4EEC67AF1EE10FAC0F2BA8247F62B
:103B4000FE70BBF1020F43F822002BD0D9F8080019
:103B50000844D0ED007A66EEA77AF4EEC77AF1EE6B
:103B600010FA36D9F4EEC67AF1EE10FAC0F2CD8230
:103B700047F6FE7048F82200D9F80C000144D1ED58
:103B8000007A66EEA77AF4EEC77AF1EE10FA1ED943
:103B9000F4EEC67AF1EE10FAC0F2AF8247F6FE718B
:103BA0004AF82210023294427FF6B1AD51080EEB72
:103BB00081008900D0ED007A66EEA77AF4EEC77A2C
:103BC000F1EE10FAA0D83046A6E73046B9E7314604
:103BD000E6E73046CEE7002C00F0E081BBF1020FB3
:103BE000D8F8203000F0E1817A69DCF8081003EBA6
:103BF000820EC7F804909300DFED6B5A0EF10400BB
:103C000000227B61DCF80C303B61331DD7F810904B
:103C10003D61FD69C7E902CB8C46834656F8221008
:103C2000D8ED0B7A07EE101A53F82210B8EEC76AD7
:103C300007EE101A5EF82210F8EEC76A07EE101AA7
:103C400026EE256A5BF82210B8EEC77A66EEA56A02
:103C500026EE276A27EE257A66EEA76A27EE277AF0
:103C600007EE901A51080232F8EEE77A0AEB81006B
:103C7000944280ED006A05EB810067EEA57AC0ED05
:103C8000006A0CEB810009EB810180ED007A98ED70
:103C90000B7A67EE877AC1ED007ABFD8D7F8049027
:103CA0003D69D7E902CB60466208BB69494698473F
:103CB000D8F828307A69D8ED046A1A449FED3E7A24
:103CC0009FED3E6A131D9246DFF8E4C00022FB61BF
:103CD0002B1D364ED9E9008E4EE0F4EEC67AF1EE99
:103CE00010FAC0F2FC81304645F822000EEB0100CC
:103CF000D0ED007A66EEA77AF4EEC77AF1EE10FA0C
:103D000049D9F4EEC67AF1EE10FAC0F2EF813046EE
:103D1000BBF1020F43F822002AD0D9F8080008446A
:103D2000D0ED007A66EEA77AF4EEC77AF1EE10FADB
:103D300035D9F4EEC67AF1EE10FAC0F2C9813046F8
:103D40004AF82200D9F80C000144D1ED007A66EE61
:103D5000A77AF4EEC77AF1EE10FA1ED9F4EEC67A1D
:103D6000F1EE10FAC0F2AD813146F86940F8221048
:103D7000023294427FF6CBAC510808EB81008900F7
:103D8000D0ED007A66EEA77AF4EEC77AF1EE10FA7B
:103D9000A3D86046A8E76046BAE76146E5E7604613
:103DA000CEE700BF0280FFFF000000300082FF7FEF
:103DB000007E00800000003404FF7FBF04FF7F3FCF
:103DC000002C00F0EB807A690021D8F82030C7F889
:103DD000109003EB820ED7F81C909300FD610EF15A
:103DE00004021FED0C6A7B61331D154656F8212035
:103DF0004808D8ED0B6ABBF1020F82F40002A2F56D
:103E0000000207EE902A53F8212082F40002B8EE57
:103E1000E77AA2F5000227EE067A07EE902A0AEB6F
:103E20008002F8EEE77A27EE267A67EE867A82ED50
:103E3000007A09EB80024FEA800067EEA67AC2EDB5
:103E4000007A27D05EF8212082F40002A2F5000259
:103E500007EE902A55F8212082F40002B8EEE77AA6
:103E6000A2F5000227EE067A07EE902ADCF8082079
:103E7000F8EEE77A024427EE267A67EE867A82ED3C
:103E8000007A98ED0B7ADCF80C2067EE877A024412
:103E9000C2ED007A02318C42A8D8D7F81090604663
:103EA0006208BB694946FD699847D8F828307A69A5
:103EB000D8ED046A1A441FED407A1FED406A131DC5
:103EC0009246DFF8C4C20022FB612B1DAB4ED9E93C
:103ED000008E4EE0F4EEC67AF1EE10FAC0F2C58024
:103EE000304645F822000EEB0100D0ED007A66EE78
:103EF000A77AF4EEC77AF1EE10FA49D9F4EEC67A51
:103F0000F1EE10FAC0F2BF803046BBF1020F43F869
:103F100022002AD0D9F808000844D0ED007A66EED5
:103F2000A77AF4EEC77AF1EE10FA35D9F4EEC67A34
:103F3000F1EE10FAC0F2AE8030464AF82200D9F80D
:103F40000C000144D1ED007A66EEA77AF4EEC77A50
:103F5000F1EE10FA1ED9F4EEC67AF1EE10FAC0F2C4
:103F60008B803146F86940F82210023294427FF685
:103F7000CEAB510808EB81008900D0ED007A66EEE7
:103F8000A77AF4EEC77AF1EE10FAA3D86046A8E754
:103F90006046BAE76146E5E76046CEE72246494615
:103FA0006046BB699847FFF7B2BBC7F810B0002264
:103FB00098ED0B6A331DDFED726AD7F81CB0786993
:103FC00056F8221007EE901A53F82210B8EEE77A4E
:103FD00007EE901A51080232F8EEE77A27EE267AB9
:103FE0000AEB810E94420BEB810167EEA67A27EE75
:103FF000067A67EE867A8EED007AC1ED007ADFD818
:104000008300D7F810B07B614DE61A46C7F810B0B0
:1040100098ED0B6A331DDFED5B6AD7F81CB0786949
:1040200036F9221007EE101A33F9221007EE901A13
:10403000B8EEC77A51080232F8EEE77A27EE267A10
:104040000AEB810E94420BEB810167EEA67A27EE14
:10405000067A67EE867A8EED007AC1ED007ADFD8B7
:104060008300D7F810B07B6134E5F0EE675AFEEEBE
:10407000E45A15EE900A34E7F0EE675AFEEEE45A81
:1040800015EE901A6EE7F0EE675AFEEEE45A15EE62
:10409000900A3AE7F0EE675AFEEEE45A15EE900AFF
:1040A0004BE767EEA57AFDEEE77A17EE900A00B2CD
:1040B00032E567EEA57AFDEEE77A17EE900A00B2D8
:1040C0003FE5F0EE675AFEEEE05A15EE901A4CE628
:1040D000F0EE675AFEEEE05A15EE900A30E6F0EE8A
:1040E000675AFEEEE05A15EE900AFDE5F0EE675ACB
:1040F000FEEEE05A15EE900A0AE667EEA57AFDEEAE
:10410000E77A17EE901A09B24AE567EEA57AFDEE56
:10411000E77A17EE900A00B22CE5F0EE675AFEEE51
:10412000E45A15EE902A1FE467EEA57AFDEEE77AD1
:1041300017EE902A12B2FFF731BBF0EE675AFEEE8F
:10414000E45A15EE902AFFF7FDBBF0EE675AFEEE3B
:10415000E05A15EE902AFFF79BBBF0EE675AFEEE91
:10416000E05A15EE902AFFF780BB67EEA57AFDEEC8
:10417000E77A17EE902A12B2FFF724BB82FF7F0086
:1041800000000030000000387E0080FF30B5154C84
:10419000154685B0046004F1080C01AB07C98CE832
:1041A0000700D4ED047AF5EEC07A83E80700F1EE5B
:1041B00010FA14DDF7EE006A86EEA77A84ED0B7A2A
:1041C0006DB1204640F8145F00F036FF06490369E0
:1041D0000020064AE1616262E36005B030BD012063
:1041E00005B030BDAC7D0024002000300000003060
:1041F00000680830704700BF0068143000F052BFFC
:1042000030B5046883B00D46A3694BB1A3680020A4
:10421000A26A216A9B00009004F1180000F00EFFD2
:10422000A3680748626A9B00E169009004F11400EA
:1042300000F004FF0020C4E9005003B030BD00BF0F
:10424000D1350008024B0022C3E90522704700BFA8
:10425000AC7D0024704700BF012910B506D00229AB
:1042600015D051B1BDE8104005F06EB90A4634488A
:1042700034490BF0ABF8E8B1FEE7334B0A46334C58
:10428000334934481C600BF0A1F868B1FEE7012205
:104290002C492B480BF09AF800B1FEE72E4928482C
:1042A0000BF0B6F8C0B1FEE72B492A480BF0B0F886
:1042B00060B1FEE7284922480BF0AAF800B1FEE7FA
:1042C00026491F480BF04CF808B3FEE72449214863
:1042D0000BF046F8A8B1FEE7204919480BF040F86A
:1042E00000B1FEE716480BF0A9F8024640B9164B9C
:1042F000164C174917481C600BF068F868B1FEE7C8
:10430000FEE714480BF09AF80028ABD0FEE70C4803
:104310000BF094F80028A5D0FEE70F490D480BF0EC
:1043200077F800B1FEE70E490A480BF019F800B122
:10433000FEE708480BF082F8002893D0FEE700BFA4
:1043400078800024000200241483002455420008D1
:10435000E4010024DC7D002468020024C401002460
:10436000B4010024014804F0CDBB00BF10C50024F7
:10437000014804F0C7BB00BF10C50024014804F089
:10438000C1BB00BF10C50024014804F0BBBB00BF87
:1043900008C10024014804F0B5BB00BF08C10024D7
:1043A000014804F0AFBB00BF08C1002430B58378DA
:1043B0008FB00446022B37D0032B33D0012B31D0E2
:1043C00000230A93E378012B2AD0022B28D0002364
:1043D0000B93002320460C9302F008FF054620466D
:1043E00002F00CFF23780990082B13D8DFE803F0C4
:1043F0001F3245586B7E91A40500594BD3F8E0203D
:1044000042F48072C3F8E020D3F8E03003F4807304
:104410000893089B09A9284604F0B0F80FB030BDF6
:104420000B93D6E70A93CDE711230A93CAE74C4BC7
:1044300009A92846D3F8E02042F00102C3F8E020A1
:10444000D3F8E03003F001030093009B04F096F8EA
:104450000FB030BD424B09A92846D3F8E02042F006
:104460000202C3F8E020D3F8E03003F00203019326
:10447000019B04F083F80FB030BD394B09A92846E1
:10448000D3F8E02042F00402C3F8E020D3F8E03093
:1044900003F004030293029B04F070F80FB030BDE8
:1044A0002F4B09A92846D3F8E02042F00802C3F8B0
:1044B000E020D3F8E03003F008030393039B04F0FB
:1044C0005DF80FB030BD264B09A92846D3F8E0208F
:1044D00042F01002C3F8E020D3F8E03003F01003FC
:1044E0000493049B04F04AF80FB030BD1C4B09A99B
:1044F0002846D3F8E02042F02002C3F8E020D3F8A9
:10450000E03003F020030593059B04F037F80FB06B
:1045100030BD134B09A92846D3F8E02042F04002F1
:10452000C3F8E020D3F8E03003F040030693069B85
:1045300004F024F80FB030BD094B09A92846D3F880
:10454000E02042F08002C3F8E020D3F8E03003F02E
:1045500080030793079B04F011F80FB030BD00BF34
:104560000044025870B506460D4602F03FFE044670
:10457000304602F043FE2A1E0146204618BF0122A3
:10458000BDE8704004F002BA2DE9F04FC84C034674
:104590002DED048B2046ABB023655D781E7805F0C9
:1045A00001F9E0B9012D4FF00107C24A14BF4FF4E1
:1045B00080134FF40003E0602260C4E9017793FAAE
:1045C000A3F3B3FA83F34FF48078013BC4F814806B
:1045D000C4E907002046236105F078F828B10120DE
:1045E0002BB0BDEC048BBDE8F08F662313901B90BD
:1045F00041F288320EA90E93CDE91480CDE9160060
:10460000CDE91900204605F0EBF80028E7D1992301
:1046100041F288320EA920460E9305F0E1F80028F9
:10462000DDD14FF0050A4FF08079249041F28833B4
:10463000219008AA29901CA9CDF870A0CDF89490DB
:104640009FED917B9FED929B9FED938BCDE9228017
:10465000CDE9270020468DED087B8DED0A9B8DED81
:104660000C8B05F029FA0028B9D11897ADF808008D
:1046700013901B90CDE91480CDE91609CDE91900FE
:10468000002D00F0BA80F023ADF80830C02341F2CD
:1046900088320EA986480E9305F0A2F800289ED114
:1046A00041F28832824802A905F004F9002896D127
:1046B0004FF480744FF005084FF080754FF0000AFA
:1046C0004FF0010B2190299041F2883308AA1CA9D0
:1046D0002294CDF8708025959FED6D9B9FED6E8B9C
:1046E000CDE92300CDE927007148CDE908AB8DED78
:1046F0000A9B8DED0C8B05F0DFF900287FF46FAF7E
:10470000012706238DF8070041F2883213901CA977
:104710001B90219029900E971C93CDE91440CDE970
:104720001605CDE91900CDE92240CDE92400CDE9F7
:1047300027005F4805F054F800287FF450AF41F29D
:10474000883308AA1CA95A48CDF8708025959FED9A
:10475000547B8DED0A9B8DED0C8B8DED087B05F068
:10476000ABF900287FF43BAF41F288320EA95048E4
:1047700005F036F800287FF432AF402341F288324A
:104780000DF107014A488DF8073005F093F800282D
:104790007FF425AF02AA41F288330EA94448CDF830
:1047A000388017959FED407B8DED049B8DED068B3A
:1047B0008DED027B05F080F900287FF410AF219089
:1047C00008AA299041F288331CA92294CDF8708060
:1047D0002595CDE92300CDE927003548CDE908AB83
:1047E0008DED0A9B8DED0C8B05F066F900287FF4AA
:1047F000F6AE002E60D00020F2E6612341F288324E
:104800000EA920460E9304F0EBFF00287FF4E7AEDC
:1048100041F2883202A9204605F0CAF800287FF448
:10482000DEAEBDF8083041F2883221901CA923F099
:104830007803299043F04003ADF808300623CDE912
:104840002280CDE92400CDE9270020461C9304F006
:10485000C7FF00287FF4C3AE20460225022441F2A0
:10486000883308AA1CA9CDF870A0CDF894908DEDDE
:104870000A9B8DED0C8BCDE9084505F01DF900284C
:104880003FF404AFABE600BF0000000001000000F1
:1048900010000000010000000000000000004000C7
:1048A0000200000002000000400000004000000084
:1048B0001883002400500052EB204FF48074002332
:1048C00000251C904FF4005022944FF440641F9038
:1048D000A02020930EAA23944FF4404427931CA9B0
:1048E00028934FF080531E9006202494002429938F
:1048F0004FF04073219005482593CDE90E4505F012
:1049000053F9003818BF01206AE600BF188300245D
:104910003E4B02682DE9F0479A428CB04FF00005FB
:10492000CDE90755CDE909550B9502D00CB0BDE88E
:10493000F087374B0226374905AFD3F8D420B1466C
:10494000DFF8D4A04FF0030842F48042C3F8D4202B
:10495000D3F8D42002F480420092009AD3F8E020E9
:1049600042F04002C3F8E020D3F8E02002F0400219
:104970000192019AD3F8E02042F02002C3F8E0202F
:10498000D3F8E02002F020020292029AD3F8E0204D
:1049900042F01002C3F8E020D3F8E02002F0100249
:1049A0000392039AD3F8E02042F00202C3F8E02019
:1049B000D3F8E03003F002030493049B03C905908D
:1049C000ADF81810DAF8504034440236204602F0B0
:1049D0000DFC034620461C4602F010FC17F8013B74
:1049E00007A907902046CDE90895CDE90A8303F091
:1049F000C5FD0E2EE6D100225C20114602F042FDDC
:104A00005C2002F07DFD0CB0BDE8F0870050005244
:104A100000440258F824010818830024124B02684D
:104A20009A4200D07047114AD2F8D43070B523F4BE
:104A3000804302250E4EC2F8D430346D2C4402352A
:104A4000204602F0D3FB034620461C4602F0D6FB6C
:104A50000146204603F0D2FE0E2DEED15C20BDE8CB
:104A6000704002F05BBD00BF00500052004402588D
:104A700018830024014805F023B900BF18830024DF
:104A800038B5036871B9026A00F1280500F5AC7405
:104A9000012A0CBF002140218BBB1D4B5722C0F8BF
:104AA00058310DE0426A00F1C00500F5E874012AB2
:104AB0000CBF00214021EBB1164B5A22C0F8D03177
:104AC00000232046C4E901214FF480524FF4806155
:104AD000636262614FF48042C4E903314FF4807332
:104AE000C4E906234FF40033236202F07DFE58B17F
:104AF000FFBEFEE7084B5822C0F8D031E0E7074B75
:104B00005922C0F85831DBE7C5E92044A56338BD18
:104B1000100002407000024028000240580002408D
:104B20002DE9F043821D05468BB0031D05F10A01F6
:104B30000830CDE9052305F10C02AB69CDE9070189
:104B40000992002B3DD0EB69B3FA83F84FEA58186D
:104B50000123022205AE0AAF4FF006090393CDE907
:104B6000012356F8044B2B792278934216D02B68F8
:104B7000F3B1012B02D1F2B10A230493204602F0D3
:104B80003DFB03462046009302F030FB694603F0EC
:104B9000F5FCBE42E5D10BB0BDE8F08369796378DE
:104BA0009942E4D1B8F1000FF3D02B68002BE0D18B
:104BB000CDF81090E2E76378022B14BF0A23082394
:104BC000DBE74FF00108C3E7534A0368934230B56F
:104BD00005468BB055D02032934252D04F4A934273
:104BE00004D02032934201D00BB030BD4C4C4D4824
:104BF000D4F8E03043F00103C4F8E030D4F8E030FA
:104C000003F001030593059BD4F8E03043F008035B
:104C1000C4F8E030D4F8E03003F008030693069BB4
:104C2000D4F8E03043F04003C4F8E030D4F8E0308A
:104C300003F040030793079BD4F8F03043F40003DC
:104C4000C4F8F030D4F8F03003F400030893089B64
:104C5000FFF766FFD4F8D830296843F001032F4AE4
:104C60003048C4F8D830891AD4F8D83018BF012198
:104C700003F001030993099B0BB0BDE83040FFF737
:104C8000FFBE274C2848D4F8E03043F00103C4F8B5
:104C9000E030D4F8E03003F001030093009BD4F837
:104CA000E03043F01003C4F8E030D4F8E03003F013
:104CB00010030193019BD4F8E03043F04003C4F8A3
:104CC000E030D4F8E03003F040030293029BD4F8C4
:104CD000F03043F48003C4F8F030D4F8F03003F43B
:104CE00080030393039BFFF71BFFD4F8D830296898
:104CF00043F00103084A0C48C4F8D830891AD4F8A4
:104D0000D83018BF012103F001030493049B0BB0BA
:104D1000BDE83040FFF7B4BE04580140045C0140D8
:104D200000440258C88500246C830024014803F025
:104D3000D3B800BFC4840024014803F0CDB800BF3D
:104D40003C850024014803F0C7B800BF2087002439
:104D5000014803F0C1B800BF988700241A4A0368CD
:104D6000934210B40BD02032934208D0174A93429A
:104D700016D02032934213D05DF8044B7047144B89
:104D80000022D3F85442C3F85822002CF4D0D3F8B0
:104D90004802D3E9931223465DF8044B52081847A2
:104DA0000B4B0022D3F8B044C3F8B424002CE3D05A
:104DB000D3F8AC24D3F8A814D3F8A404520823469B
:104DC0005DF8044B184700BF04580140045C0140E3
:104DD0006C830024184A0368934210B40BD020322D
:104DE000934208D0154A934217D02032934214D0F0
:104DF0005DF8044B7047124BD3E994245208C3F872
:104E00005822002CF4D0D3E99201234601EB820111
:104E100000EB82005DF8044B1847094BD3F8AC2433
:104E2000D3F8B0445208C3F8B424002CE0D0D3F82F
:104E3000A814D3F8A404E8E704580140045C014036
:104E40006C830024000000002DE9F04F0C684FF443
:104E50001776754F87B004FB06F6012C07EB060AA0
:104E6000C0F800A000F3A0800D468E464FF0000869
:104E7000D44669A3D3E9002369A1D1E90001CDE9B2
:104E8000022306ABCAF8508203EB8403CDE9040188
:104E900053F810BC53F8083CCAE992880193BEE865
:104EA0000F00ACE80F00BEE80F00ACE80F00019B5C
:104EB0009EE80300CAF828B0CAF8C0308CE80300A6
:104EC0002B69042B0CD8DFE803F0737D8791030076
:104ED0004FF41773554A03FB04739A64C3F8E02038
:104EE000AA692B6A002A43D0002B4FF4177308BF1E
:104EF000022203FB047318BF0322DA6201221A6341
:104F0000EA696B6A002A40D1191E4FF4177318BF63
:104F1000012103FB0473C3E931126B69022B05D82D
:104F2000434A12F80380434A52F823904FF4177310
:104F300006F128004246494603FB04740023384426
:104F400063646363E365C4F8DC30C4F8CC30C4F850
:104F5000F430C4E90F33C4E91533C4E93533C4E987
:104F60003B33022306F04EFF002849D0FFBEFEE788
:104F7000191E4FF4177318BF012103FB0473C3E913
:104F80000B12EA696B6A002ABED0002B4FF417732C
:104F900008BF022203FB047318BF0322C3F8C42016
:104FA0000122C3F8C820B8E7012007B0BDE8F08FA0
:104FB0004FF417734FF4FA5203FB04739A64C3F867
:104FC000E0208DE74FF417734FF47A5203FB04731C
:104FD0009A64C3F8E02083E74FF417734FF4FA4262
:104FE00003FB04739A64C3F8E02079E74FF4177366
:104FF0004BF6803203FB04739A64C3F8E0206FE73A
:1050000006F1C000022342464946384406F0FAFE43
:105010000028CAD0FFBEFEE704580140045C0140EE
:1050200024580140245C01406C8300240077010077
:1050300000250108042501080068704770B5046860
:1050400082B015460E46C4F85032C4E99212069A50
:10505000C4F85422226A012A9AB211D0294604F1D6
:105060002800019206F08AFF636A019A012B10D092
:10507000294604F1C00006F081FF002002B070BD97
:1050800004F12800019207F00BF8636A019A012BE2
:10509000EED1314604F1C00007F002F8002002B062
:1050A00070BD00BF03681B69042B05D8044A02EBDE
:1050B000830393ED000A70479FED020A704700BF1B
:1050C0001025010800803B470368D3F85802704759
:1050D0002DE9F043002387B00222044605690493BA
:1050E000CDE90223D0E902128E00FAB1022D7AD066
:1050F0002178B5FA85F54FF00108276A0B294FEAA8
:10510000551521D1A2780B2A02D0B8F1000F38D161
:1051100023790B2B01D0002D6CD1A37917B10B2B68
:1051200040F09980002007B0BDE8F08335F002031D
:105130002178276A0CBF4FF001084FF00008023DAC
:1051400018BF01250B29DDD07D4B94F801C053F821
:10515000262010780B2802D0884200F0AD80D3784A
:10516000D01C994202D10B2B40F0BD809379901D49
:105170008B4202D10B2B40F0BC80012007B0BDE870
:10518000F083711C6E4BE07853F8213019780B29AD
:1051900002D08A4200F0B580D97803F1030C0B29C4
:1051A00002D08A4200F0BB80997903F1060C0B29EA
:1051B000E3D08A42E1D1DB798342DED1634604F158
:1051C00002099B784846059302F010F8804648464D
:1051D00002F014F801A90190404603F0CFF92379B9
:1051E0000B2B98D199E70178076A0B2940F086804C
:1051F00001258DE7B11C524A607952F821201178BF
:105200000B2902D08B4200F08180D178D51C0B296C
:1052100002D08B4200F08D809179951D8B42ACD1EC
:105220000B29AAD0D3798342A7D12A46251D93788A
:105230002846059301F0DAFF034628461D4601F093
:10524000DDFF01A90190284603F098F9A379002F0A
:105250007FF465AF66E7F11C394AE07952F8212006
:1052600011780B2901D08B425FD0D178D51C0B2946
:1052700001D08B424FD09179951D8B427FF47DAF49
:105280000B293FF47AAFD37983427FF476AF2A4675
:10529000A51D93782846059301F0A8FF04462846EB
:1052A00001F0ACFF034601A92046019303F066F923
:1052B000002007B0BDE8F083537863457FF44FAF1B
:1052C00093782046059301F091FF8146204601F036
:1052D00095FF01A90190484603F050F9A2780B2AE6
:1052E0007FF413AF14E7137963457FF43FAF0246B1
:1052F000E6E7D37963457FF440AFF8E798460125A8
:1053000022E7597881427FF447AF58E751788142CC
:105310007FF47BAF8AE711798142ACD1B7E7197985
:1053200081427FF441AF634649E7517881429CD185
:10533000AEE7117981427FF46FAF2A4676E700BF6E
:105340004C250108504A0368934200F08F80A2F573
:105350007842934200F08C8002F58062934200F024
:10536000898002F57842934200F0868002F5E0528F
:10537000934200F08380454A934240F081800523A8
:10538000B021434A01FB03F310B5D418D05C86B0BA
:1053900001F03CFFA07801F039FF207901F036FFE1
:1053A000A07901F033FFA368052B11D8DFE803F0E3
:1053B000182634425003374BD3F8F42042F0200231
:1053C000C3F8F420D3F8F43003F020030593059BD1
:1053D0002046FFF77DFE012800D1FFBE06B010BDBC
:1053E0002C4BD3F8F02042F48052C3F8F020D3F8CD
:1053F000F03003F480530093009BE9E7254BD3F88A
:10540000E82042F48042C3F8E820D3F8E83003F4FF
:1054100080430193019BDBE71E4BD3F8E82042F465
:105420000042C3F8E820D3F8E83003F400430293C5
:10543000029BCDE7174BD3F8F02042F40052C3F89B
:10544000F020D3F8F03003F400530393039BBFE73D
:10545000104BD3F8F02042F48012C3F8F020D3F8B8
:10546000F03003F480130493049BB1E7002387E733
:10547000012385E7022383E7032381E704237FE7F2
:1054800000231B78FFDE00BF0030014000140058ED
:1054900024880024004402582DE9F0418F68B0248C
:1054A0003B4E8C4607FB04F4052F06EB0405056014
:1054B000AE46BCE80F00AEE80F00BCE80F00AEE857
:1054C0000F009CE803008EE803005BD8EB68002B1C
:1054D0005BD0012B56D10021B02303FB07631A696F
:1054E000032A4FD8D3F814C0ACF104001C2849D8C3
:1054F0009B691BB1012B45D14FF00073B02000FB1D
:105500000760C06918B101283CD14FF08070B02508
:1055100005FB0765D5F820E0BEF1020F32D8D5F8BB
:105520002480B8F1070F2DD85204E962C5E90E3086
:105530000CF1FF332A6304F128006B634FEA087310
:1055400030446B640023C5E91233C5E91433C5E95F
:105550001833C5E91A33C5E91C33C5E91E33C5F84C
:1055600080300C4B53F82E200B4B2A6453F8273015
:10557000AB624FF08043EB6506F064FF18B1FFBEED
:10558000012000E00120BDE8F0814FF48001A3E795
:10559000248800243C25010824250108006892B2D3
:1055A00008B5283006F0FCFF003818BF012008BD00
:1055B000424B43481A8819689B7830B4C280037202
:1055C0004048414CC2800372080CE2802372A4F868
:1055D000032063712180A0703C4C3D4DE28023721A
:1055E000A4F8032063713B4CEA80E28023723A4CBA
:1055F0002B72E2802372A4F803206371374CE2809F
:105600002372374CE2802372364CA4F80320637176
:10561000E2802372344C2180A070A4F803206371CF
:10562000E2802372314C2180A070A4F803206371C2
:10563000E28023722E4C2180A070A4F803206371B5
:10564000E28023722B4C2180A070A4F803206371A8
:10565000E2802372284C2180A070A4F8032063719B
:10566000E2802372254C2180A070E2802372A4F88E
:1056700003206371224C2180A070E2802372A4F881
:10568000032063711F4C21801F49A070E2801F48D6
:105690002372A1F803204B71CA800B72A4F8032077
:1056A0001B4963711B4CC280E28023720372A1F814
:1056B00003204B71CA800B7230BC7047482501082B
:1056C00040000024040000245C8C002458000024C6
:1056D0004C00002464000024880000247000002492
:1056E0007C0000241C000024808C0024688C002492
:1056F000748C0024448C0024A48C00248C8C002402
:10570000988C0024508C0024AC000024A0000024BD
:105710002800002494000024F0B5002387B0022262
:1057200004460493CDE9022390F82022D0F82432D5
:105730000B2A4FEA430525D194F822220B2A02D1E5
:10574000002007B0F0BD49496B1C494851F823308F
:1057500045780178187894F8236288426AD08242AA
:1057600078D0D87803F1030C81426FD0824279D08F
:10577000987903F1060C884270D0824233D0012020
:1057800007B0F0BD394B3A4853F8253001784678D8
:10579000187894F821C281423ED0824242D0D87813
:1057A00003F1030E814241D082424BD0987903F13C
:1057B000060E884242D08242E1D1DB796345DED1D8
:1057C000734604F508769B783046059301F00EFD8C
:1057D000034630461E4601F011FD01A901903046F6
:1057E00002F0CCFEA8E7DB79B342C8D1634604F2ED
:1057F00022249B782046059301F0F8FC03462046BE
:105800001C4601F0FBFC034601A92046019302F06F
:10581000B5FE002007B0F0BD93F801E0B645BED05C
:105820008242BCD158786045B9D1CAE71F79B742E6
:10583000BAD1BBE75F78AF4291D192E7D979B14253
:10584000B9D19CE718796045B0D1B9E71F79AF426B
:105850008CD18DE75878B04283D1C8E7D979A94275
:105860008BD18CE71879B04282D1BFE7D4000024F5
:10587000D0000024826F12682DE9F0415268C0B058
:10588000D0E94234591E9A1A1C1B0A401444B4FB36
:10589000F3F103FB1144A34248D3D0F8106105464D
:1058A000D6F80031D6F80411013B5B1AD6F8041182
:1058B000DBB2A34294BFC9180919C6F80411D6F87F
:1058C0000431B3F5807F05D9D6F80431A3F5807390
:1058D000C6F80431C5F80C21D6F80021A718B7F591
:1058E000807F24D9C2F58078B118D2F5807223D197
:1058F000444502D0B4EB080222D1FFB205F58C7802
:10590000C6F80071D5F81C022618B6F5807F8CBF4A
:10591000C0F580772746CFB9BC4201D0E21B1BD12E
:10592000F6B2C5F81C6240B0BDE8F081FEE7B118E0
:105930002246002CE1D0A04668460BF0E9FCD7E7F0
:105940000DEB080031460BF0E3FCD6E740443A4645
:1059500069460BF0DDFCDFE70DEB0701F6B24046D0
:105960000BF0D6FCC5F81C6240B0BDE8F08100BF6A
:10597000204A0368934225D0A2F54C42934228D096
:1059800002F58062934226D002F58062934224D0D1
:1059900002F58062934222D002F54442934220D025
:1059A000A2F51C4293421ED002F5806293421CD0A5
:1059B000114A93421BD00020DB69DB0600D47047FC
:1059C000FFF758BF00224FF40F710C4801FB020093
:1059D000F2E70122F7E70222F5E70322F3E70422C8
:1059E000F1E70522EFE70622EDE70722EBE70822C1
:1059F000E9E700BF00100140000C0058B08C002403
:105A0000214A0368D0F88810934228D0A2F54C426E
:105A1000934226D002F58062934224D002F5806240
:105A2000934222D002F58062934220D002F5444294
:105A300093421ED0A2F51C4293421CD002F5806214
:105A400093421AD0114A934219D10822104B4FF4B5
:105A50000F70002100FB023383F8141170470022FD
:105A6000F4E70122F2E70222F0E70322EEE7042244
:105A7000ECE70522EAE70622E8E70722E6E700234B
:105A800083F81431FFDE00BF00100140000C005805
:105A9000B08C00249C4A036893422DE9F0410446EF
:105AA0008EB000F0F380A2F54C42934200F0F080FB
:105AB00002F58062934200F0EF8002F5806293422B
:105AC00000F0E88002F58062934200F0E78002F582
:105AD0004442934200F0E480A2F51C42934200F05D
