:020000040800F2
:100000000000022069060008650600089D3F000800
:100010006506000865060008650600080000000087
:10002000000000000000000000000000650600085D
:100030006506000800000000650600088D3F000806
:1000400065060008650600086506000865060008E4
:1000500065060008650600086506000865060008D4
:10006000650600086506000865060008F536000804
:1000700001370008650600080D3700081937000829
:100080006506000875880008650600086506000812
:100090006506000865060008650600086506000894
:1000A0006506000865060008650600086506000884
:1000B000650600086506000865060008A9880008AE
:1000C00065060008B5880008650600086506000892
:1000D0006506000865060008650600086506000854
:1000E00065060008650600080000000065060008B7
:1000F0006506000865060008650600086506000834
:100100006506000865060008650600086506000823
:100110006506000865060008650600086506000813
:100120006506000865060008650600086506000803
:1001300065060008650600086506000865060008F3
:1001400000000000000000000000000000000000AF
:1001500065060008650600086506000865060008D3
:10016000C1880008650600086506000865060008E5
:1001700065060008650600086506000865060008B3
:1001800065060008650600086506000865060008A3
:100190006506000865060008650600086506000893
:1001A0006506000865060008650600086506000883
:1001B0003D3400086506000865060008650600086D
:1001C0006506000865060008650600086506000863
:1001D0006506000865060008650600086506000853
:1001E0006506000865060008650600086506000843
:1001F0006506000865060008650600086506000833
:100200006506000865060008650600086506000822
:100210006506000865060008650600086506000812
:100220006506000865060008650600080000000075
:100230006506000865060008000000006506000865
:1002400065060008650600086506000865060008E2
:1002500065060008650600086506000865060008D2
:1002600065060008650600086506000865060008C2
:100270006506000865060008650600080000000025
:100280006506000865060008650600080000000015
:080290000000000065060008F3
:1002980010B5054C237833B9044B13B10448AFF3B8
:1002A80000800123237010BD7801002400000000A5
:1002B800589B000808B5034B1BB103490348AFF32B
:1002C800008008BD000000007C010024589B000845
:1002D80010F8012B11F8013B012A28BF9A42F7D0E8
:1002E800D01A704781F0004102E000BF83F000435C
:1002F80030B54FEA41044FEA430594EA050F08BFB9
:1003080090EA020F1FBF54EA000C55EA020C7FEA7C
:10031800645C7FEA655C00F0E2804FEA5454D4EBF9
:100328005555B8BF6D420CDD2C4480EA020281EAC3
:10033800030382EA000083EA010180EA020281EAFB
:100348000303362D88BF30BD11F0004F4FEA01314D
:100358004FF4801C4CEA113102D0404261EB41015C
:1003680013F0004F4FEA03334CEA133302D05242E2
:1003780063EB430394EA050F00F0A780A4F101049E
:10038800D5F1200E0DDB02FA0EFC22FA05F28018D8
:1003980041F1000103FA0EF2801843FA05F35941BE
:1003A8000EE0A5F120050EF1200E012A03FA0EFC3D
:1003B80028BF4CF0020C43FA05F3C01851EBE37167
:1003C80001F0004507D54FF0000EDCF1000C7EEB84
:1003D80000006EEB0101B1F5801F1BD3B1F5001FC2
:1003E8000CD349085FEA30004FEA3C0C04F10104E1
:1003F8004FEA445212F5800F80F09A80BCF1004F0A
:1004080008BF5FEA500C50F1000041EB045141EA8B
:10041800050130BD5FEA4C0C404141EB0101013C54
:1004280028BFB1F5801FE9D291F0000F04BF014643
:100438000020B1FA81F308BF2033A3F10B03B3F115
:1004480020020CDA0C3208DD02F1140CC2F10C02A5
:1004580001FA0CF021FA02F10CE002F11402D8BF03
:10046800C2F1200C01FA02F120FA0CFCDCBF41EACF
:100478000C019040E41AA2BF01EB0451294330BD9E
:100488006FEA04041F3C1CDA0C340EDC04F114047B
:10049800C4F1200220FA04F001FA02F340EA030052
:1004A80021FA04F345EA030130BDC4F10C04C4F198
:1004B800200220FA02F001FA04F340EA0300294678
:1004C80030BD21FA04F0294630BD94F0000F83F4C2
:1004D800801306BF81F480110134013D4EE77FEAA5
:1004E800645C18BF7FEA655C29D094EA050F08BFF1
:1004F80090EA020F05D054EA000C04BF19461046D2
:1005080030BD91EA030F1EBF0021002030BD5FEA15
:10051800545C05D14000494128BF41F0004130BD3D
:1005280014F580043CBF01F5801130BD01F0004591
:1005380045F0FE4141F470014FF0000030BD7FEA04
:10054800645C1ABF194610467FEA655C1CBF0B46FF
:10055800024650EA013406BF52EA033591EA030F16
:1005680041F4002130BD00BF90F0000F04BF00210E
:10057800704730B54FF4806404F132044FF0000541
:100588004FF0000150E700BF90F0000F04BF0021BA
:10059800704730B54FF4806404F1320410F0004520
:1005A80048BF40424FF000013EE700BF42004FEA1B
:1005B800E2014FEA31014FEA02701FBF12F07F4398
:1005C80093F07F4F81F06051704732F07F4208BF4F
:1005D800704793F07F4F04BF41F40021704730B556
:1005E8004FF4607401F0004521F000411CE700BFA2
:1005F80050EA010208BF704730B54FF000050AE025
:1006080050EA010208BF704730B511F0004502D525
:10061800404261EB41014FF4806404F132045FEA27
:10062800915C3FF4D8AE4FF003025FEADC0C18BFD0
:1006380003325FEADC0C18BF033202EBDC02C2F1C2
:10064800200300FA03FC20FA02F001FA03FE40EA54
:100658000E0021FA02F11444BDE600BFFEE700BF18
:100668000B480C4A904203D0121A0B4908F08EFF2F
:100678000A480B4A904203D0121A002108F094FF4E
:1006880003F0F2FD08F056FF02F0BAF8FEE700BFEB
:100698000000002474010024749B000878010024E1
:1006A800881400242DE9F04101268CB00746044641
:1006B800804601918672002527F8081F384602F007
:1006C80055FBBDF80630A67128F8043F404602F0F5
:1006D8004DFBA74B204606960293A64B0595CDE900
:1006E80003350223CDE90A3308230DEB03010793F1
:1006F800CDE9085503F004FB2946404602F012FCF8
:100708000A2003F049FC3146404602F00BFC0A205F
:1007180003F042FCAE23294638468DF8083002F033
:1007280001FC324602A96423204603F06BFBD52363
:10073800294638468DF8083002F0F4FB324602A903
:100748006423204603F05EFB8023294638468DF853
:10075800083002F0E7FB324602A96423204603F082
:1007680051FBA823294638468DF8083002F0DAFBF9
:10077800324602A96423204603F044FB3F2329465E
:1007880038468DF8083002F0CDFB324602A96423C2
:10079800204603F037FBDA23294638468DF808301F
:1007A80002F0C0FB324602A96423204603F02AFB6C
:1007B8001223294638468DF8083002F0B3FB32463A
:1007C80002A96423204603F01DFBD323294638469B
:1007D8008DF8083002F0A6FB3246642302A92046B1
:1007E80003F010FB294638468DF8085002F09AFBB2
:1007F800324602A96423204603F004FB402329461D
:1008080038468DF8083002F08DFB324602A9642381
:10081800204603F0F7FAA623294638468DF8083013
:1008280002F080FB324602A96423204603F0EAFA6C
:10083800A423294638468DF8083002F073FB324667
:1008480002A96423204603F0DDFA8D2329463846A1
:100858008DF8083002F066FB324602A96423204670
:1008680003F0D0FA1423294638468DF8083002F0F0
:1008780059FB324602A96423204603F0C3FAA12398
:10088800294638468DF8083002F04CFB324602A95A
:100898006423204603F0B6FAC823294638468DF863
:1008A800083002F03FFB324602A96423204603F0D9
:1008B800A9FA8123294638468DF8083002F032FB20
:1008C800324602A96423204603F09CFA8F23294666
:1008D80038468DF8083002F025FB324602A9642319
:1008E800204603F08FFAD923294638468DF8083078
:1008F80002F018FB324602A96423204603F082FA6C
:100908002523294638468DF8083002F00BFB32467D
:1009180002A96423204603F075FADB2329463846EA
:100928008DF8083002F0FEFA324602A96423204608
:1009380003F068FA3423294638468DF8083002F067
:10094800F1FA324602A96423204603F05BFAAF238A
:10095800294638468DF8083002F0E4FA6423324616
:1009680002A9204603F04EFA0CB0BDE8F08100BFA2
:10097800060B0B000105060A30B5054683B00C4688
:1009880001F06EFF0021284601F0E2FF092001F086
:100998008DFF03461E20ADF8003001F087FF0346A7
:1009A80004F10800ADF802300099FFF77BFE03B0B0
:1009B80030BD00BF49424FF480621430C9B208F01C
:1009C800F3BD00BF80207047402070472DE9F041FB
:1009D800B02482B000F1080600F1100500F11408F7
:1009E800002728468DF807400134394602F09AFA64
:1009F800642301220DF107013046E4B203F002FA44
:100A0800394628468DF8077002F08CFA01226423D3
:100A18000DF10701304603F0F5F910233946284651
:100A28008DF8073002F07EFA642301220DF10701E8
:100A3800304603F0E7F90121284602F073FA8022D4
:100A4800414664233046904403F0DCF9B82CC7D102
:100A580002B0BDE8F08100BF2DE9F04F83B05C1A09
:100A68000C9E002C9DF83490A6EB0208B8BF644297
:100A7800B8F1000FB8BFC8F100088B428CBF4FF027
:100A8800010A4FF0FF3A9642A4EB080C51D84FF0F8
:100A9800FF357F2B019512D83F2E10D8F50806F0A8
:100AA800070E012703EBC5150544B9F1000F47D020
:100AB80007FA0EF795F814E047EA0E072F759642E5
:100AC80001D18B4229D0C8F100077F2914D83F2AC9
:100AD80012D8D50802F0070B4FF0010E01EBC5152F
:100AE8000544B9F1000F1BD00EFA0BFE95F814B0AF
:100AF8004EEA0B0E85F814E0B7EB4C0F4FEA4C05A5
:100B080002DAACEB080C5144AC4202DD019DA4446E
:100B18002A449942D9D19642D7D103B0BDE8F08F83
:100B28000EFA0BFB95F814E02EEA0B0E85F814E08C
:100B3800E2E701257F2B0195C5D83F2EAED9C2E744
:100B480007FA0EFE2F7D964227EA0E072F75B8D0BA
:100B5800B9E700BF2DE9F04F87B09DF84850109CC9
:100B68002E4601959DF844509EB399422ED8994639
:100B7800A24228D87F29164694BF0023012308E003
:100B88009CF814804EEA080E8CF814E00136B44242
:100B980019D33F2EFAD8002BF8D14FEAD60C06F01D
:100BA800070E4FF0010801EBCC1C08FA0EFE844436
:100BB800002DE5D19CF814B001362BEA0E0AB44298
:100BC8008CF814A0E5D201318945D1D207B0BDE82F
:100BD800F08FA3EB0108B8F1000FB8BFC8F1000807
:100BE8009942C0F04E817F2B4FF0FF3A94BF002608
:100BF80001263F2A009694BF002701270397A6B92C
:100C08009FB9D60802F0070C012703EBC616064465
:100C1800002D00F0958107FA0CF796F814C047EA02
:100C28000C073775002603960096994200F09881C4
:100C3800464694468E46BEF17F0F16D8BCF13F0F4C
:100C480013D84FEADC070CF0070B4FF001090EEB45
:100C5800C7170744002D00F0398109FA0BF997F8F6
:100C680014B049EA0B0987F81490770018BFD644E6
:100C7800B84502DD46440CF1FF3C7345DBD16245C3
:100C8800D9D100260496A4EB0209B9F1000FB8BF28
:100C9800C9F100093F2C94BF00260126A242C9F1E0
:100CA80000080296C0F02481002E40F05281009E78
:100CB800002E40F04E814FF0FF360096E60803EB19
:100CC800C6160644002D00F01F814FF0010C04F0F9
:100CD80007070CFA07F796F814C047EA0C073775A8
:100CE80000260296A24200F03E81C44616461F46E0
:100CF80005927F2F15D83F2E13D84FEAD60E06F04F
:100D0800070B4FF0010A07EBCE1E8644002D00F0BA
:100D1800E6800AFA0BFA9EF814B04AEA0B0A8EF833
:100D280014A0B8EB4C0F4FEA4C0E02DAACEB090CEE
:100D3800013FBEF1000F01D0009A1644BB42D8D142
:100D4800B442D6D1059AA1EB030EBEF1000FB8BF8D
:100D5800CEF1000E7F2994BF4FF0000A4FF0010A30
:100D680099428CBF4FF001094FF0FF39BAF1000FDB
:100D780013D1029E8EB9E60801EBC6160644002D73
:100D880000F0D4804FF0010C04F007070CFA07F7C5
:100D980096F814C047EA0C073775049E26BB7746B9
:100DA80026467F2B14D83F2E12D84FEAD60C06F0D1
:100DB800070B4FF0010803EBCC1C8444002D73D0C3
:100DC80008FA0BF89CF814B048EA0B088CF8148061
:100DD8005FEA470C18BF4B44E64501DD7744013E06
:100DE8009942DED1B442DCD1A2EB040EBEF1000F71
:100DF800B8BFCEF1000EA2428CBF4FF001084FF0F1
:100E0800FF38CEF1000CBAF1000F0ED1039B63B985
:100E1800D30802F00707012601EBC3130344002D92
:100E28007DD0BE401F7D3E431E75019B002B7FF485
:100E3800CDAE66460B467F2B12D83F2C10D8E7085C
:100E480004F0070A4FF0010903EBC7170744A5B3DD
:100E580009FA0AF997F814A049EA0A0987F81490D8
:100E6800BCEB460F4FEA460702DAA6EB0E06013B3B
:100E780007B144449942DED1A242DCD107B0BDE8B3
:100E8800F08F3F2A4FF0010A94BF002601267F2BDE
:100E9800039694BF002701270097002E7FF4C8AE61
:100EA800002F3FF4AEAEC3E608FA0BFB9CF81480A3
:100EB80028EA0B088CF814808AE709FA0AFA97F8E6
:100EC800149029EA0A0987F81490C9E709FA0BFB74
:100ED80097F8149029EA0B0987F81490C5E60AFADE
:100EE8000BFB9EF814A02AEA0B0A8EF814A018E748
:100EF8009EBB009E8EBB01260096E60803EBC61635
:100F08000644002D7FF4E1AE012704F0070C02959A
:100F180007FA0CFC377D27EA0C073775E2E606FA74
:100F280007F71E7D26EA07061E757EE7012704F0EF
:100F3800070C07FA0CFC377D27EA0C0737752CE7F6
:100F480007FA0CFC377D039527EA0C0700953775DF
:100F58006BE64FF0FF360096C4E601260096C4E61D
:100F6800012604968FE601260196ECE600000000B3
:100F78002DE9F04F0E6887B01C4A0C4633690746C6
:100F8800934241F0DD804FF48062002104F11400A7
:100F980008F00AFBF368164DD6F81C80AB4241F006
:100FA800C5803626AB4241F0BA804C23114A9045A1
:100FB80022D1B34229D30621CA0801F0070C012027
:100FC8007F2E06EBC212014400FA0CF0224404D82A
:100FD80092F814C040EA0C0010752229ECD1B342F3
:100FE80006F1010211D01646E5E700BFBD09000869
:100FF800CD0900085D0B0008012231462046CDE9E5
:101008000122212200920622C0472268D368D2F822
:101018001890AB4241F079804FF036084FF0400A03
:10102800AB4241F06980402136230A46CB4EB14598
:1010380041F05780A1EB0A0143458CBF4FF0010AEC
:101048004FF0FF3A7F2B81EAE179A9EBE179A9F129
:101058000F0107D802F2F62214FA82F2107D40F04E
:10106800100010754FF0250C4FEADC024FF0010B11
:101078000CF00700B8F17F0F08EBC21201FA0BFE63
:101088000BFA00F0224407D8BCF13F0F04D892F8BD
:1010980014B040EA0B0010751EF10E0FC0F2FD846B
:1010A800F145D044A1F10F0100F3F7849845DBD155
:1010B800BCF1340FD8D12268D368D2F81890AB426B
:1010C80041F004804FF03608C246AB4240F0F68744
:1010D800392340221946B14540F0E587A1EB0A01C2
:1010E800984534BF4FF0010A4FF0FF3A7F2B81EA51
:1010F800E179A9EBE179A9F10F0107D802F2F92208
:1011080014FA82F2107D40F0100010754FF0250C93
:101118004FEADC024FF0010B0CF00700B8F17F0F2B
:1011280008EBC21201FA0BFE0BFA00F0224407D8B2
:10113800BCF13F0F04D892F814B040EA0B001075C8
:101148001EF10E0FC0F2A484F145D044A1F10F01A5
:1011580000F39E849845DBD1BCF1340FD8D12268C6
:10116800D368D2F81890AB4240F092874FF0390814
:10117800C246AB4240F084873C2340221946B14521
:1011880040F07387A1EB0A01984534BF4FF0010A7C
:101198004FF0FF3A7F2B81EAE179A9EBE179A9F1D8
:1011A8000F0107D802F5FE7214FA82F2107D40F0A2
:1011B800200010754FF0340C4FEADC024FF0010BA1
:1011C8000CF00700B8F17F0F08EBC21201FA0BFE12
:1011D8000BFA00F0224407D8BCF13F0F04D892F86C
:1011E80014B040EA0B0010751EF10E0FC0F24B84CC
:1011F800F145D044A1F10F0100F345844345DBD10B
:10120800BCF1250FD8D12268D368D2F81890AB4228
:1012180040F021874FF03C084FF0400AAB4240F0C5
:10122800128740213C230A46B14540F00187A1EBD3
:101238000A0143458CBF4FF0010A4FF0FF3A7F2B5C
:1012480081EAE179A9EBE179A9F10F0107D802F563
:101258003F7214FA82F2107D40F0100010754FF0C2
:10126800250C4FEADC024FF0010B0CF00700B8F137
:101278007F0F08EBC21201FA0BFE0BFA00F02244B2
:1012880007D8BCF13F0F04D892F814B040EA0B001D
:1012980010751EF10E0FC0F2F283F145D044A1F192
:1012A8000F0100F3EC839845DBD1BCF1340FD8D1A2
:1012B8002268D368D2F81890AB4240F091864FF07C
:1012C8003E084FF0400AAB4240F0828640213E2360
:1012D8000A46B14540F07186A1EB0A0143458CBF2F
:1012E8004FF0010A4FF0FF3A7F2B81EAE179A9EB31
:1012F800E179A9F10F0107D802F5FF7214FA82F219
:10130800107D40F0200010754FF0340C4FEADC02DD
:101318004FF0010B0CF00700B8F17F0F08EBC21279
:1013280001FA0BFE0BFA00F0224407D8BCF13F0F7C
:1013380004D892F814B040EA0B0010751EF10E0F95
:10134800C0F29983F145D044A1F10F0100F39383D2
:101358004345DBD1BCF1250FD8D101E0610A000873
:101368002268D368D2F81890AB4240F006864FF056
:101378003E08AB42C24640F00C864123B1454FF0CF
:1013880040001A4640F01086A2EB0A0EBEF1000F8C
:10139800B8BFCEF1000E434500F284837F2A4FF098
:1013A800FF3A07D800F2812214FA82F2117D41F047
:1013B80020011175434520D0F4462D21CA0801F0BB
:1013C80007090120B8F17F0F08EBC21200FA09F0F3
:1013D80007D83F29224404D892F8149040EA09001B
:1013E80010755FEA4C0218BFD044964501DDF444FD
:1013F80001399845E2D12D29E0D12268D368D2F885
:101408001890AB4240F0AC854FF04108C246AB4261
:1014180040F058844123B1454FF04002184640F04F
:101428005C84A0EB0A09B9F1000FB8BFC9F1000943
:1014380043458CBF4FF0010A4FF0FF3A7F28A9F1CE
:101448000F0107D802F2012214FA82F2107D40F04F
:10145800200010754FF0340C4FEADC024FF0010BFE
:101468000CF00700B8F17F0F08EBC21201FA0BFE6F
:101478000BFA00F0224407D8BCF13F0F04D892F8C9
:1014880014B040EA0B0010751EF10E0FC0F228834D
:10149800F145D044A1F10F0100F322839845DBD137
:1014A800BCF1250FD8D12268D368D2F81890AB4286
:1014B80040F022844FF04308AB42C24640F02A84F1
:1014C8004323B1454FF04002184640F02E84A0EB6C
:1014D8000A09B9F1000FB8BFC9F1000943458CBF2B
:1014E8004FF0010A4FF0FF3A7F28A9F10F0107D802
:1014F80002F2033214FA82F2107D40F010001075E7
:101508004FF0250C4FEADC024FF0010B0CF00700FE
:10151800B8F17F0F08EBC21201FA0BFE0BFA00F0CC
:10152800224407D8BCF13F0F04D892F814B040EA1F
:101538000B0010751EF10E0FC0F2CE82F145D0449B
:10154800A1F10F0100F3C8824345DBD1BCF1340F90
:10155800D8D12268D368D2F81890AB4240F0F5830E
:101568004FF04308AB42C24640F0FD834623B145E5
:101578004FF04002184640F00184A0EB0A09B9F187
:10158800000FB8BFC9F1000943458CBF4FF0010AED
:101598004FF0FF3A7F28A9F10F0107D802F206326F
:1015A80014FA82F2107D40F0100010754FF0250CEF
:1015B8004FEADC024FF0010B0CF00700B8F17F0F87
:1015C80008EBC21201FA0BFE0BFA00F0224407D80E
:1015D800BCF13F0F04D892F814B040EA0B00107524
:1015E8001EF10E0FC0F27482F145D044A1F10F0133
:1015F80000F36E824345DBD1BCF1340FD8D12268A9
:10160800D368D2F81890AB4240F0C8834FF0460830
:10161800AB42C24640F0D0834623B1454FF040026A
:10162800184640F0D483A0EB0A09B9F1000FB8BFFF
:10163800C9F1000943458CBF4FF0010A4FF0FF3A4A
:101648007F28A9F10F0107D802F2062214FA82F2C4
:10165800107D40F0200010754FF0340C4FEADC028A
:101668004FF0010B0CF00700B8F17F0F08EBC21226
:1016780001FA0BFE0BFA00F0224407D8BCF13F0F29
:1016880004D892F814B040EA0B0010751EF10E0F42
:10169800C0F21A82F145D044A1F10F0100F314827F
:1016A8009845DBD1BCF1250FD8D12268D368D2F890
:1016B8001890AB4240F09B834FF04808AB42C246BB
:1016C80040F0A3834823B1454FF04002184640F04C
:1016D800A783A0EB0A09B9F1000FB8BFC9F1000947
:1016E80043458CBF4FF0010A4FF0FF3A7F28A9F11C
:1016F8000F0107D802F5027214FA82F2107D40F049
:10170800200010754FF0340C4FEADC024FF0010B4B
:101718000CF00700B8F17F0F08EBC21201FA0BFEBC
:101728000BFA00F0224407D8BCF13F0F04D892F816
:1017380014B040EA0B0010751EF10E0FC0F2C08104
:10174800F145D044A1F10F0100F3BA814345DBD143
:10175800BCF1250FD8D12268D368D2F81890AB42D3
:1017680040F06E834FF04A08AB42C24640F07683A1
:101778004C23B1454FF040001A4640F07A83A2EB63
:101788000A0EBEF1000FB8BFCEF1000E434500F2BD
:101798005D827F2A4FF0FF3A07D800F5037214FAEA
:1017A80082F2117D41F020011175434520D0F446A5
:1017B8002521CA0801F007090120B8F17F0F08EBBD
:1017C800C21200FA09F007D83F29224404D892F837
:1017D800149040EA090010755FEA4C0218BFD04423
:1017E800964501DDF44401394345E2D12529E0D18C
:1017F8002268D368D2F81890AB4240F048834FF083
:101808004A08AB42C24640F050834C23B1454FF0E2
:101818004002184640F05483A0EB0A09B9F1000FC2
:10182800B8BFC9F10009984534BF4FF0010A4FF01D
:10183800FF3A7F28A9F1070107D802F5237214FAA5
:1018480082F2107D40F0100010754FF0250C4FEA21
:10185800DC024FF0010B0CF00700B8F17F0F08EB2A
:10186800C21201FA0BFE0BFA00F0224407D8BCF1B1
:101878003F0F04D892F814B040EA0B0010751EF11F
:10188800060FC0F21981F145D044A1F1070100F318
:1018980013819845DBD1BCF12C0FD8D12268D368CD
:1018A800D2F818A0AB4240F01B834FF04C08AB4273
:1018B800C34640F023834FF04A09B2454FF0400237
:1018C800484640F02683A0EB0B03002BB8BF5B42D1
:1018D800C1458CBF4FF0010A4FF0FF3A7F28A3F1B2
:1018E800080107D802F20A3214FA82F2107D40F099
:1018F800100010754FF02C0C4FEADC024FF0010B72
:101908000CF00700B8F17F0F08EBC21201FA0BFECA
:101918000BFA00F0224407D8BCF13F0F04D892F824
:1019280014B040EA0B0010751EF1070FC0F2C0801A
:101938007345D044A1F1080100F3BA80C845DBD152
:10194800BCF1340FD8D12268D368D2F81890AB42D2
:1019580040F0EF824FF04A08AB42C24640F0F782AF
:101968004C2340201A46B14540F07C81A2EB0A0C7A
:10197800BCF1000FB8BFCCF1000C434500F26C81FC
:101988007F2A4FF0FF3E07D800F5437214FA82F21F
:10199800117D41F01001117543451FD06646342171
:1019A800CA0801F007090120B8F17F0F08EBC2123D
:1019B80000FA09F007D83F29224404D892F8149075
:1019C80040EA09001075720018BFF044944501DD23
:1019D800664401394345E3D13429E1D1B0EE007AB8
:1019E800D7ED007A236877EE877ADA68DE69AA424B
:1019F800FCEEE77A17EE909A40F015834FF0800AD4
:101A08009B68DFF8BC82434540F00483DFEDA87A89
:101A1800D7ED006AB0EE007AA64B77EEA67A9E4222
:101A280077EE877AFCEEE77A17EE902A40F0E782A5
:101A38000023A446914518D87F2B494694BF00241B
:101A48000124C80801F0070E01263F2903EBC01046
:101A5800314406FA0EF606D8604424B990F814E02A
:101A68002EEA060606758A42EBD2534503F10101B8
:101A78003AD00B46DEE749440CF1FF3C68E44944A0
:101A88000CF1010C0FE449440CF1FF3CFFF7B6BB25
:101A980049440CF1010CFFF75DBB49440CF1010C02
:101AA800FFF704BB7F2A4FF0010A7FF67BAC83E483
:101AB80019440CF1010C41E749440CF1010CE8E62A
:101AC80049440CF1FF3C41E649440CF1FF3CE7E591
:101AD80049440CF1010C8DE549440CF1010C33E546
:101AE80049440CF1FF3CD9E4644623689A68D3F86A
:101AF8001CA0424540F0CD80DFED6D7AF0EE006A23
:101B080097ED007ADA6837EE267AAA4277EEC77A36
:101B1800FCEEE77A17EE906A40F0AC809B684FF0D5
:101B28008009434540F0AE80DFED637AD7ED006A67
:101B3800B0EE007A5F4A77EEE67A924577EE877ADA
:101B4800FCEEE77A17EE903A22D10020B4469C4585
:101B580018D87F28624694BF00260126D10802F0D3
:101B6800070E01253F2A00EBC1112A4405FA0EF59C
:101B780006D8214426B991F814E02EEA05050D751A
:101B88009342EBD2814500F101020BD01046DEE70B
:101B9800012000214B463246CDED007ACDE90110F7
:101BA8002046D04797ED007A2368B7EEC77A434AB4
:101BB800DB6A9FED3D6B934237EE467BB7EEC77B02
:101BC80087ED007A40F0168204F1080704F1100648
:101BD800B02514344FF0000830468DF81750013501
:101BE800414601F09FF9642301220DF1170138469F
:101BF800EDB202F007F9414630468DF8178001F042
:101C080091F9012264230DF11701384602F0FAF820
:101C18001023414630468DF8173001F083F96423CC
:101C280001220DF11701384602F0ECF80121304687
:101C380001F078F98022214664233846144402F0E2
:101C4800E1F8B82DC6D107B0BDE8F08F7F2A4FF074
:101C5800010A7FF6A2ADAAE57F2A4FF0010E7FF6B2
:101C680093AE9BE6342201204146CDE90020204670
:101C7800C847B3E620469047236881469B6843459A
:101C88003FF452AF2046984707EE900AF8EEE77AFD
:101C98004CE720469047C0F34F0307EE903A23687D
:101CA800F8EEE77A2AE700BF9A9999999999B93F86
:101CB800000000425D0B000800008042D5090008C2
:101CC800D109000820469847C0F34F02B14502F1F8
:101CD800010080B203463FF4A4AB2522012041460F
:101CE800CDE9002034222046C8472268D368D2F8BC
:101CF8001890AB423FF4DEAB2046984723684FEA82
:101D0800500ADB680AF1030AAB421FFA8AFAD04686
:101D18003FF4D6AB20469847C0F34F02B14502F1D5
:101D2800030080B203463FF4D2AB34224FF0010BDC
:101D380041462046CDE9002B2522C8472268D368B2
:101D4800D2F81890AB423FF40BAC20469847236872
:101D58004FEA500ADB680AF1030AAB421FFA8AFA13
:101D6800D0463FF403AC20469847C0F34F02B14534
:101D780002F1060080B203463FF4FFAB34224FF075
:101D8800010A41462046CDE9002A2522C847226893
:101D9800D368D2F81890AB423FF438AC2046984745
:101DA80023684FEA500ADB680AF1060AAB421FFAB9
:101DB8008AFAD0463FF430AC20469847C0F34F0229
:101DC800B14502F1060080B203463FF42CAC41460F
:101DD80025224FF001082046CDE900283422C847C3
:101DE8002268D368D2F81890AB423FF465AC20461D
:101DF800984723684FEA500ADB680AF1080AAB42A1
:101E08001FFA8AFAD0463FF45DAC20469847C0F3E3
:101E18004F02B14502F1080080B203463FF459ACC5
:101E280025224FF0010E41462046CDE9002E3422EE
:101E3800C8472268D368D2F81890AB423FF492ACF6
:101E48002046984723684FEA500ADB680AF10A0AD5
:101E5800AB421FFA8AFAD0463FF48AAC204698472C
:101E6800C0F34F00B14500F10C0292B213463FF4A3
:101E780086AC252201204146CDE900202046C847EE
:101E88002268D368D2F81890AB423FF4B8AC204629
:101E9800984723684FEA500ADB680AF10A0AAB42FE
:101EA8001FFA8AFAD0463FF4B0AC20469847C0F3F0
:101EB8004F02B14502F10C0080B203463FF4ACACCE
:101EC8002C224FF0010C41462046CDE9002C25225A
:101ED800C8472268D368D2F818A0AB423FF4E5ACF3
:101EE8002046984723684FEA500BDB680BF10C0B30
:101EF800AB421FFA8BFBD8463FF4DDAC204698472F
:101F0800C0F34F02B24502F10A0080B281463FF4A5
:101F1800DAAC342201204B464146CDE900202C2280
:101F28002046D0472268D368D2F81890AB423FF4D5
:101F380011AD2046984723684FEA500ADB680AF13A
:101F48000A0AAB421FFA8AFAD0463FF409AD204686
:101F58009847C0F34F0000F10C0292B2134602E515
:101F68002046984723684FEA500ADB680AF1010ABD
:101F78001FFA8AFAD046FFF74ABA204698472368DC
:101F8800C0F34F00DB68A0F1020AAB42D0463FF431
:101F9800F4A920469847C0F34F00B14500F101026B
:101FA80092B213463FF4F0A92D2201204146CDE913
:101FB80000202046C847FFF720BA25224FF0010C21
:101FC80041462046CDE9002C3422C847FFF7C8B95E
:101FD80020469847C0F34F021146931EFFF779B980
:101FE800204698472368C0F34F0ADB68AAF1020825
:101FF800FFF769B9204607B0BDE8F04F1847002140
:10200800012053464A46CDED007ACDE9011020461D
:10201800B0476AE520469847C0F34F0307EE903A69
:10202800F8EEE77AF4E42046904723688246E7E42E
:1020380034224FF0010E41462046CDE9002E2522DC
:10204800C847FFF735B920469847C0F34F021146F5
:10205800131FFFF7E9B8204698472368C0F34F0AD3
:10206800DB68AAF10408FFF7D9B8414625224FF0EA
:1020780001082046CDE900283422C847FFF7C3B835
:1020880020469847C0F34F02111F0B46FFF777B859
:1020980020469847C0F34F002368A0F1070ADB6881
:1020A800D046FFF766B834224FF0010A4146204671
:1020B800CDE9002A2522C847FFF751B8204698479E
:1020C800C0F34F02D11F0B46FFF705B820469847CB
:1020D800C0F34F002368A0F10A0ADB68D046FEF778
:1020E800F4BF34224FF0010B41462046CDE9002BC6
:1020F8002522C847FEF7DFBF20469847C0F34F02A6
:102108001146A2F10A03FEF791BF204698472368BB
:10211800C0F34F0ADB68AAF10A08FEF781BF204620
:10212800984743080C339BB2FEF740BF20469847B8
:102138002368C0F34F00DB68A0F10A06FEF732BF40
:102148000021204698472668FEF724BF704700BF45
:10215800704700BF10B5044640F2144106F038FF3E
:10216800204610BD2DE9F04F85B0A1F1200504AC43
:102178009DF83870009104E90C00EBB25E2B00F278
:102188009580036880465D4ADB689DF80840934265
:102198009DF8096040F094808020B8F8043023440A
:1021A800834200F38380D8F80030554A9B689342F5
:1021B80040F088804020B8F80620931901928342A5
:1021C80074DC002E00F0898006FB05F56FF00040F6
:1021D800039B964628442E44B8F804A003EB40001D
:1021E800023B03EB460B30F8026FBCB30EF007035B
:1021F8004FF0010C4FEADE0251460CFA03FC0AF1DB
:1022080014034FFA8CFC03EBC21200236FEA0C098B
:1022180042440EE07F2907D8BEF13F0F04D8157855
:102228009FB14CEA050515700133013201319C421A
:1022380014D006FA03F52D04ECD47F29F4D8BEF1A6
:102248003F0FF1D81578002FEBD0013309EA0505C7
:10225800013201319C4202F8015CEAD158450EF185
:10226800010EC0D1D8F8003054442449DA68A4B229
:102278008A422DD1802084421CD29B68204AA8F82B
:102288000440934221D14020019B834207D3D8F8D0
:1022980000301B4A9B68934229D13F230193DDE913
:1022A8000003A8F8063005B0BDE8F08F002005B09F
:1022B800BDE8F08FDA6811498A4211D17F24DCE742
:1022C80098476AE74046984775E740469847DBE7EE
:1022D80040469047D8F80030CDE7B8F804A0C1E7E9
:1022E800404690470138D8F8003084B2C5E74046E8
:1022F8009847013883B20193D1E700BFCD090008A0
:10230800D1090008F0B585B00C46097802AD9DF8F2
:10231800287085E80C0081B1064602E014F8011F18
:1023280059B1304695E80C000097FFF71BFF23785A
:102338009842F3D0184605B0F0BD0023184605B002
:10234800F0BD00BF7F291ED83F2A1CD86BB1D30827
:102358004FF0010C02F0070201EBC3130CFA02F272
:10236800C1180B7D1A430A757047D3084FF0010C4A
:1023780002F0070201EBC3130CFA02FCC1180A7D34
:1023880022EA0C020A7570472DE9F04F2DED068BF5
:1023980083B01F4680460D469DF85030164601937F
:1023A800139B002BC0F22182129A134406EE103AB6
:1023B800DDED127AB8EEC66B9FEDCD4BB8EEE77B3C
:1023C8009FEDCD5B27EE047B26EE046B87EE050BB5
:1023D80086EE05ABF7EEC08BB0EE680A06F094FE09
:1023E80007EE907AB7EECAABF8EE679AB0EE408A7D
:1023F800B0EE680A06F084FF60EE698AB0EE4A0A19
:1024080006F082FEB0EE409AB0EE4A0A06F078FF77
:1024180020EE690A29EE888A29EE899A70EE687A90
:10242800F0EE006A39EE487A67EEA77AE7EE077AA7
:10243800F4EEE67AF1EE10FA06D5139BB42B40F3CE
:1024480096804FF0010901E04FF00009012478421D
:102458004FF0000C0095E31B214627462246A34077
:10246800B9F1000F6AD1424206EE90CACCF10001E0
:1024780007EE102AB8EEE66A07EE901A06EE900A02
:10248800B8EEC77A139A66EE084AF8EEE77AB42AE5
:1024980027EE284AF8EEE66A67EE885A74EEC43AE0
:1024A80026EEA85A26EE096A66EE806A67EE897AF1
:1024B80027EE007AF5EEC03A40F3F280F1EE10FA1A
:1024C80000F17F8176EE473A74EEC54AF5EEC03AE0
:1024D800F1EE10FAF5EEC04ACCBF01220022F1EE6F
:1024E80010FA00F1778136EE666A35EEC55AB5EE18
:1024F800C06AF1EE10FAB5EEC05ACCBF0121002136
:10250800F1EE10FA00F16F8177EEE66AF5EEC06A37
:10251800F1EE10FACCBF0127002775EEC45AF5EE8C
:10252800C05AF1EE10FA00F1478177EEC77AF5EE5E
:10253800C07AF1EE10FACCBF01240024002A40F042
:102548008A80002964D1BFB9C4BB9C4558DB0CF113
:10255800010C03EB4C0E1CEB000F0EF1010E00F00A
:10256800C08098424FDB734600287FF779AF03B0ED
:10257800BDEC068BBDE8F08F009DA6EB0C0E00EBC2
:10258800050ABAF17F0FDFD8BEF13F0FDCD84FEA5A
:10259800DE0B019D0AEBCB1A002D00F0B1800EF086
:1025A800070BC2444FF0010E0EFA0BFE9AF814B056
:1025B8004EEA0B0E8AF814E0002CC6D0009DA6EB5C
:1025C8000C0EA5EB000ABAF17F0FBED8BEF13F0F83
:1025D800BBD84FEADE0B019D0AEBCB1A002D00F0A9
:1025E800AE800EF0070BC2444FF0010E9C450EFA68
:1025F8000BFE9AF814B04EEA0B0E8AF814E0A6DA2D
:1026080098429E46AFDA01300EEB40030133ABE748
:10261800009D0CEB060E00EB050ABAF17F0F92D86D
:10262800BEF13F0F8FD84FEADE0B019D0AEBCB1AA4
:10263800002D73D00EF0070BC2444FF0010E0EFAB6
:102648000BFE9AF814B04EEA0B0E8AF814E0002F2D
:102658003FF47AAF90E7009D0CEB060EA5EB000A5D
:10266800BAF17F0F3FF66DAFBEF13F0F3FF669AF8E
:102678004FEADE0B019D0AEBCB1A002D6DD00EF050
:10268800070BC2444FF0010E0EFA0BFE9AF814B075
:102698004EEA0B0E8AF814E000293FF454AFB7E76E
:1026A800F1EE10FA7ED44A4674EEC54AF5EEC04AF9
:1026B800F1EE10FA6CD4002135EEC55AB5EEC05AC9
:1026C800F1EE10FA5AD4002775EEC45AF5EEC05A46
:1026D800F1EE10FA3FF529AF0024002A3FF431AF9C
:1026E800B9E798428FDB00233BE700BFAFF30080D8
:1026F8007A008BFCFA210940000000000080664047
:10270800C2444FF0010B0EF0070E0BFA0EFE9AF8BA
:1027180014B02BEA0E0E8AF814E015E7C2444FF005
:10272800010B0EF0070E0BFA0EFE9AF814B02BEA06
:102738000E0E8AF814E0002F3FF406AF1CE7C244DF
:102748004FF0010B0EF0070E0BFA0EFE9AF814B0BC
:102758002BEA0E0E8AF814E0F7E6C2444FF0010B9C
:102768000EF0070E0BFA0EFE9AF814B02BEA0E0EB6
:102778008AF814E000293FF4E6AE49E777EEE66A06
:10278800F5EEC06AF1EE10FACCBF012700279BE7EF
:1027980036EE666AB5EEC06AF1EE10FACCBF0121DA
:1027A800002189E776EE473AF5EEC03AF1EE10FAE5
:1027B800CCBF0122002277E70124002A3FF4C1AEF2
:1027C80049E774EEC54A0122F5EEC04AF1EE10FA67
:1027D8007FF589AE35EEC55A0121B5EEC05AF1EE46
:1027E80010FA7FF591AE012797E6DDE9122313442D
:1027F80006EE102A1293139B5B421393D8E500BF91
:102808000449054808B5FEF7B7F802490348FEF73A
:10281800AFFBFAE794010024A8050024E40500248E
:1028280010B509480024094A09494461046206F0C0
:1028380057FB0848084B8460044A08490360BDE810
:10284800104006F04DBB00BFA8050024000000247E
:1028580055210008940100249C970008592100087C
:102868000F4A01230F494FF0060C80F8273081608A
:1028780040F2027180F810C0A0F8251080F82B30C3
:1028880010B4094CC0E9004202F181725DF8044BB2
:102898000532C26040F60662A0F82920704700BFE2
:1028A8000105080509050705000705001F2882B06E
:1028B80009D8084B03EB400213F81030507843EA6C
:1028C800002002B0704701230C2043EA002002B028
:1028D800704700BFCC97000830B5032491B001259C
:1028E800194900234FF44172089106A9ADF8242034
:1028F80002939FED137BCDE90A45144D044602A8C7
:102908008DED0C7B8DED0E7BCDE9063500F008FFD3
:1029180040F601333025ADF80430019800F056F840
:1029280003214FF07E53029A04F114000593CDE978
:10293800035103A900F0D8F911B030BDAFF30080FE
:10294800000000000100000004050406040204045D
:1029580030B504462DED028B83B089B3012240F2D5
:1029680001130092ADF80430694604F1300001F01B
:10297800DFFB204600F04CF8E01C00F0E5FA04F11B
:10298800250000F0F3F904F1140504F1290000F022
:10299800EDF92046FFF7A0FF284600F0DBF92846AE
:1029A800B0EE408A00F0D2F9D0ED007AF8EE677AFE
:1029B80088EE277A84ED0E7A03B0BDEC028B30BD29
:1029C80040F201130091ADF80430CDE710B584B0A2
:1029D80003460124ADF8040003A8ADF80C30ADF8A7
:1029E8000E4000F0C3F9214603A800F09BFA2046E8
:1029F80001F0D2FA002103A800F094FA204601F071
:102A0800CBFA214603A800F08DFA04B010BD00BF30
:102A1800F0B53F4C8BB0A06303781BB10025284666
:102A28000BB0F0BD0022079301233A49201D6160D5
:102A38000321C4E902230822202306910A21C4E9BC
:102A4800042340224FF4C073089102A9C4E9062365
:102A580000224FF40063C4E908234FF48052002396
:102A6800C4E90A2302220723CDE90223042208230A
:102A7800CDE9042305F01CFB0546002844D11023AA
:102A880001220126002702A90190201DCDE9022379
:102A98004FF48052CDE9046705F034FB642001F05F
:102AA80047FD02A94FF48052201DCDE90467022694
:102AB8001027CDE9026705F025FB0322102302A9A0
:102AC800201DCDE9022300230422CDE904234FF47D
:102AD800805205F017FB40F23223042202A9019329
:102AE8001023201DCDE90223019A012305924FF4FA
:102AF8008052049305F006FB40F60601201D05F000
:102B080021FB28460BB0F0BD012528460BB0F0BDCF
:102B1800F0050024404100526A4A00232DE9F043A1
:102B280015688FB00A9315B10FB0BDE8F083664BF6
:102B380001210C244FF0030811600026D3F8D4209B
:102B48000327624842F48052DFF89891C3F8D420F2
:102B5800D3F8D42002F480520092009AD3F8E020EF
:102B680042F01002C3F8E020D3F8E02002F010028F
:102B78000192019AD3F8E02042F04002C3F8E02025
:102B8800D3F8E02002F040020292029AD3F8E02043
:102B980042F00802C3F8E020D3F8E02002F008026F
:102BA8000392039AD3F8E02042F48072C3F8E0203D
:102BB800D3F8E02002F480720492049AD3F8E0205B
:102BC80042F08002C3F8E020D3F8E02002F080024F
:102BD8000592059AD3F8E02042F02002C3F8E020DD
:102BE800D3F8E02002F020020692069AD3F8E020FB
:102BF80042F00402C3F8E0204FF68372D3F8E030C5
:102C08000C9403F00403CDF82C8007930223079952
:102C180008A9CDE9082302F075FB48F23712022310
:102C280008A92B480C94CDE90823CDE90A6702F0DE
:102C380069FB4CF20372022308A926480C94CDE9DB
:102C48000823CDE90A6702F05DFB40F2FF62022328
:102C580008A921480C94CDE90823CDE90A6702F0B8
:102C680051FB4FF60C72022308A91C480C94CDE9BD
:102C78000823CDE90A6702F045FB4FF63F0202231D
:102C880008A917480C94CDE90823CDE90A6702F092
:102C980039FBD9F83800013001F028FBD9F8383071
:102CA8000646581C01F02AFB0223089008A9304662
:102CB8000A950993CDE90B8402F024FB0FB0BDE817
:102CC800F08300BFE80500240044025800100258B1
:102CD80000180258000C025800200258001C025824
:102CE80000140258F005002430B5154C154685B07F
:102CF800046004F1080C01AB07C98CE80700D4EDA7
:102D0800047AF5EEC07A83E80700F1EE10FA14DDD4
:102D1800F7EE006A86EEA77A84ED0B7A6DB120464D
:102D280040F8145F00F0F4FD064903690020064AE4
:102D3800E1616262E36005B030BD012005B030BDDD
:102D48002C06002400200030000000300068083005
:102D5800704700BF0068143000F0DCBD024B002251
:102D6800C3E90522704700BF2C06002430B58378DC
:102D78008FB00446022B37D0032B33D0012B31D030
:102D880000230A93E378012B2AD0022B28D00023B2
:102D98000B93002320460C9301F0A8FA0546204621
:102DA80001F0ACFA23780990082B13D8DFE803F078
:102DB8001F3245586B7E91A40500594BD3F8E0208B
:102DC80042F48072C3F8E020D3F8E03003F4807353
:102DD8000893089B09A9284602F094FA0FB030BD61
:102DE8000B93D6E70A93CDE711230A93CAE74C4B16
:102DF80009A92846D3F8E02042F00102C3F8E020F0
:102E0800D3F8E03003F001030093009B02F07AFA54
:102E18000FB030BD424B09A92846D3F8E02042F054
:102E28000202C3F8E020D3F8E03003F00203019374
:102E3800019B02F067FA0FB030BD394B09A928464B
:102E4800D3F8E02042F00402C3F8E020D3F8E030E1
:102E580003F004030293029B02F054FA0FB030BD52
:102E68002F4B09A92846D3F8E02042F00802C3F8FE
:102E7800E020D3F8E03003F008030393039B02F04B
:102E880041FA0FB030BD264B09A92846D3F8E020F7
:102E980042F01002C3F8E020D3F8E03003F010034A
:102EA8000493049B02F02EFA0FB030BD1C4B09A905
:102EB8002846D3F8E02042F02002C3F8E020D3F8F7
:102EC800E03003F020030593059B02F01BFA0FB0D6
:102ED80030BD134B09A92846D3F8E02042F0400240
:102EE800C3F8E020D3F8E03003F040030693069BD4
:102EF80002F008FA0FB030BD094B09A92846D3F8EB
:102F0800E02042F08002C3F8E020D3F8E03003F07C
:102F180080030793079B02F0F5F90FB030BD00BF9F
:102F28000044025870B506460D4601F0DFF9044624
:102F3800304601F0E3F92A1E0146204618BF012257
:102F4800BDE8704002F0E6BB2DE9F04FC84C0346DF
:102F58002DED048B2046ABB023655D781E7802F01A
:102F680031FDE0B9012D4FF00107C24A14BF4FF4FB
:102F780080134FF40003E0602260C4E9017793FAFC
:102F8800A3F3B3FA83F34FF48078013BC4F81480B9
:102F9800C4E907002046236102F0A8FC28B10120FB
:102FA8002BB0BDEC048BBDE8F08F662313901B900B
:102FB80041F288320EA90E93CDE91480CDE91600AE
:102FC800CDE91900204602F01BFD0028E7D199231E
:102FD80041F288320EA920460E9302F011FD002816
:102FE800DDD14FF0050A4FF08079249041F2883303
:102FF800219008AA29901CA9CDF870A0CDF894902A
:103008009FED917B9FED929B9FED938BCDE9228065
:10301800CDE9270020468DED087B8DED0A9B8DEDCF
:103028000C8B02F059FE0028B9D11897ADF80800AA
:1030380013901B90CDE91480CDE91609CDE919004C
:10304800002D00F0BA80F023ADF80830C02341F21B
:1030580088320EA986480E9302F0D2FC00289ED131
:1030680041F28832824802A902F034FD002896D144
:103078004FF480744FF005084FF080754FF0000A48
:103088004FF0010B2190299041F2883308AA1CA91E
:103098002294CDF8708025959FED6D9B9FED6E8BEA
:1030A800CDE92300CDE927007148CDE908AB8DEDC6
:1030B8000A9B8DED0C8B02F00FFE00287FF46FAF9A
:1030C800012706238DF8070041F2883213901CA9C6
:1030D8001B90219029900E971C93CDE91440CDE9BF
:1030E8001605CDE91900CDE92240CDE92400CDE946
:1030F80027005F4802F084FC00287FF450AF41F2BB
:10310800883308AA1CA95A48CDF8708025959FEDE8
:10311800547B8DED0A9B8DED0C8B8DED087B02F0B9
:10312800DBFD00287FF43BAF41F288320EA95048FE
:1031380002F066FC00287FF432AF402341F2883267
:103148000DF107014A488DF8073002F0C3FC00284A
:103158007FF425AF02AA41F288330EA94448CDF87E
:10316800388017959FED407B8DED049B8DED068B88
:103178008DED027B02F0B0FD00287FF410AF2190A6
:1031880008AA299041F288331CA92294CDF87080AE
:103198002595CDE92300CDE927003548CDE908ABD1
:1031A8008DED0A9B8DED0C8B02F096FD00287FF4C7
:1031B800F6AE002E60D00020F2E6612341F288329C
:1031C8000EA920460E9302F01BFC00287FF4E7AE00
:1031D80041F2883202A9204602F0FAFC00287FF466
:1031E800DEAEBDF8083041F2883221901CA923F0E8
:1031F8007803299043F04003ADF808300623CDE961
:103208002280CDE92400CDE9270020461C9302F056
:10321800F7FB00287FF4C3AE20460225022441F2C2
:10322800883308AA1CA9CDF870A0CDF894908DED2C
:103238000A9B8DED0C8BCDE9084502F04DFD002869
:103248003FF404AFABE600BF00000000010000003F
:103258001000000001000000000000000000400015
:1032680002000000020000004000000040000000D2
:103278005C06002400500052EB204FF480740023B9
:1032880000251C904FF4005022944FF440641F9086
:10329800A02020930EAA23944FF4404427931CA9FE
:1032A80028934FF080531E900620249400242993DD
:1032B8004FF04073219005482593CDE90E4502F063
:1032C80083FD003818BF01206AE600BF5C060024B1
:1032D8003E4B02682DE9F0479A428CB04FF000054A
:1032E800CDE90755CDE909550B9502D00CB0BDE8DD
:1032F800F087374B0226374905AFD3F8D420B146BB
:10330800DFF8D4A04FF0030842F48042C3F8D42079
:10331800D3F8D42002F480420092009AD3F8E02037
:1033280042F04002C3F8E020D3F8E02002F0400267
:103338000192019AD3F8E02042F02002C3F8E0207D
:10334800D3F8E02002F020020292029AD3F8E0209B
:1033580042F01002C3F8E020D3F8E02002F0100297
:103368000392039AD3F8E02042F00202C3F8E02067
:10337800D3F8E03003F002030493049B03C90590DB
:10338800ADF81810DAF8504034440236204600F000
:10339800ADFF034620461C4600F0B0FF17F8013B7E
:1033A80007A907902046CDE90895CDE90A8301F0E1
:1033B800A9FF0E2EE6D100225C20114601F0E2F8AA
:1033C8005C2001F01DF90CB0BDE8F08700500052F8
:1033D800004402580C9800085C060024124B02684E
:1033E8009A4200D07047114AD2F8D43070B523F40D
:1033F800804302250E4EC2F8D430346D2C44023579
:10340800204600F073FF034620461C4600F076FF76
:103418000146204602F0B6F80E2DEED15C20BDE83C
:10342800704001F0FBB800BF005000520044025841
:103438005C060024014802F053BD00BF5C0600246E
:1034480038B5036871B9026A00F1280500F5AC7453
:10345800012A0CBF002140218BBB1D4B5722C0F80D
:1034680058310DE0426A00F1C00500F5E874012A00
:103478000CBF00214021EBB1164B5A22C0F8D031C5
:1034880000232046C4E901214FF480524FF48061A3
:10349800636262614FF48042C4E903314FF4807380
:1034A800C4E906234FF40033236201F01DFA58B132
:1034B800FFBEFEE7084B5822C0F8D031E0E7074BC3
:1034C8005922C0F85831DBE7C5E92044A56338BD67
:1034D80010000240700002402800024058000240DC
:1034E8002DE9F043821D05468BB0031D05F10A0145
:1034F8000830CDE9052305F10C02AB69CDE90701D8
:103508000992002B3DD0EB69B3FA83F84FEA5818BB
:103518000123022205AE0AAF4FF006090393CDE955
:10352800012356F8044B2B792278934216D02B6846
:10353800F3B1012B02D1F2B10A230493204600F023
:10354800DDFE03462046009300F0D0FE694601F0F8
:10355800D9FEBE42E5D10BB0BDE8F0836979637846
:103568009942E4D1B8F1000FF3D02B68002BE0D1D9
:10357800CDF81090E2E76378022B14BF0A230823E2
:10358800DBE74FF00108C3E7534A0368934230B5BD
:1035980005468BB055D02032934252D04F4A9342C1
:1035A80004D02032934201D00BB030BD4C4C4D4872
:1035B800D4F8E03043F00103C4F8E030D4F8E03048
:1035C80003F001030593059BD4F8E03043F00803AA
:1035D800C4F8E030D4F8E03003F008030693069B03
:1035E800D4F8E03043F04003C4F8E030D4F8E030D9
:1035F80003F040030793079BD4F8F03043F400032B
:10360800C4F8F030D4F8F03003F400030893089BB2
:10361800FFF766FFD4F8D830296843F001032F4A32
:103628003048C4F8D830891AD4F8D83018BF0121E6
:1036380003F001030993099B0BB0BDE83040FFF785
:10364800FFBE274C2848D4F8E03043F00103C4F803
:10365800E030D4F8E03003F001030093009BD4F885
:10366800E03043F01003C4F8E030D4F8E03003F061
:1036780010030193019BD4F8E03043F04003C4F8F1
:10368800E030D4F8E03003F040030293029BD4F812
:10369800F03043F48003C4F8F030D4F8F03003F489
:1036A80080030393039BFFF71BFFD4F8D8302968E6
:1036B80043F00103084A0C48C4F8D830891AD4F8F2
:1036C800D83018BF012103F001030493049B0BB009
:1036D800BDE83040FFF7B4BE04580140045C014027
:1036E800004402580C090024B0060024014801F0E7
:1036F800B9BA00BF08080024014801F0B3BA00BFF6
:1037080080080024014801F0ADBA00BF640A002413
:10371800014801F0A7BA00BFDC0A0024000000003D
:103728002DE9F04F0C684FF41776754F87B004FBFE
:1037380006F6012C07EB060AC0F800A000F3A080EB
:103748000D468E464FF00008D44669A3D3E90023FE
:1037580069A1D1E90001CDE9022306ABCAF850827C
:1037680003EB8403CDE9040153F810BC53F8083C7B
:10377800CAE992880193BEE80F00ACE80F00BEE8E2
:103788000F00ACE80F00019B9EE80300CAF828B0C0
:10379800CAF8C0308CE803002B69042B0CD8DFE88A
:1037A80003F0737D879103004FF41773554A03FBA9
:1037B80004739A64C3F8E020AA692B6A002A43D0EC
:1037C800002B4FF4177308BF022203FB047318BFC2
:1037D8000322DA6201221A63EA696B6A002A40D17D
:1037E800191E4FF4177318BF012103FB0473C3E9B3
:1037F80031126B69022B05D8434A12F80380434AF9
:1038080052F823904FF4177306F1280042464946B0
:1038180003FB04740023384463646363E365C4F8FA
:10382800DC30C4F8CC30C4F8F430C4E90F33C4E950
:103838001533C4E93533C4E93B33022304F07CFB78
:10384800002849D0FFBEFEE7191E4FF4177318BFB2
:10385800012103FB0473C3E90B12EA696B6A002AAE
:10386800BED0002B4FF4177308BF022203FB04736A
:1038780018BF0322C3F8C4200122C3F8C820B8E740
:10388800012007B0BDE8F08F4FF417734FF4FA52D8
:1038980003FB04739A64C3F8E0208DE74FF41773B1
:1038A8004FF47A5203FB04739A64C3F8E02083E769
:1038B8004FF417734FF4FA4203FB04739A64C3F886
:1038C800E02079E74FF417734BF6803203FB04735B
:1038D8009A64C3F8E0206FE706F1C000022342466D
:1038E8004946384404F028FB0028CAD0FFBEFEE74A
:1038F80004580140045C014024580140245C014004
:10390800B0060024007701001498000818980008F1
:103918000068704703681B69042B05D8044A02EB4A
:10392800830393ED000A70479FED020A704700BFBA
:103938002498000800803B472DE9F043002387B016
:103948000222044605690493CDE90223D0E9021254
:103958008E00FAB1022D7AD02178B5FA85F54FF0AC
:103968000108276A0B294FEA551521D1A2780B2A9D
:1039780002D0B8F1000F38D123790B2B01D0002DDC
:103988006CD1A37917B10B2B40F09980002007B0B8
:10399800BDE8F08335F002032178276A0CBF4FF0A9
:1039A80001084FF00008023D18BF01250B29DDD0A2
:1039B8007D4B94F801C053F8262010780B2802D0CC
:1039C800884200F0AD80D378D01C994202D10B2BED
:1039D80040F0BD809379901D8B4202D10B2B40F0B3
:1039E800BC80012007B0BDE8F083711C6E4BE07805
:1039F80053F8213019780B2902D08A4200F0B5809B
:103A0800D97803F1030C0B2902D08A4200F0BB805D
:103A1800997903F1060C0B29E3D08A42E1D1DB79CD
:103A28008342DED1634604F102099B784846059338
:103A380000F05CFC8046484600F060FC01A901905B
:103A4800404601F05FFC23790B2B98D199E7017868
:103A5800076A0B2940F0868001258DE7B11C524A80
:103A6800607952F8212011780B2902D08B4200F09E
:103A78008180D178D51C0B2902D08B4200F08D8033
:103A88009179951D8B42ACD10B29AAD0D379834269
:103A9800A7D12A46251D93782846059300F026FCD1
:103AA800034628461D4600F029FC01A90190284636
:103AB80001F028FCA379002F7FF465AF66E7F11CBD
:103AC800394AE07952F8212011780B2901D08B422C
:103AD8005FD0D178D51C0B2901D08B424FD091797A
:103AE800951D8B427FF47DAF0B293FF47AAFD379D4
:103AF80083427FF476AF2A46A51D9378284605931E
:103B080000F0F4FB0446284600F0F8FB034601A940
:103B18002046019301F0F6FB002007B0BDE8F083D2
:103B2800537863457FF44FAF93782046059300F0B0
:103B3800DDFB8146204600F0E1FB01A901904846E3
:103B480001F0E0FBA2780B2A7FF413AF14E7137996
:103B580063457FF43FAF0246E6E7D37963457FF4D8
:103B680040AFF8E79846012522E7597881427FF46B
:103B780047AF58E7517881427FF47BAF8AE71179E4
:103B88008142ACD1B7E7197981427FF441AF6346EE
:103B980049E7517881429CD1AEE7117981427FF49F
:103BA8006FAF2A4676E700BF60980008504A03685E
:103BB800934200F08F80A2F57842934200F08C8007
:103BC80002F58062934200F0898002F578429342C0
:103BD80000F0868002F5E052934200F08380454A67
:103BE800934240F081800523B021434A01FB03F34F
:103BF80010B5D418D05C86B000F088FBA07800F02F
:103C080085FB207900F082FBA07900F07FFBA36898
:103C1800052B11D8DFE803F0182634425003374B40
:103C2800D3F8F42042F02002C3F8F420D3F8F4309B
:103C380003F020030593059B2046FFF77DFE01282E
:103C480000D1FFBE06B010BD2C4BD3F8F02042F4D3
:103C58008052C3F8F020D3F8F03003F48053009377
:103C6800009BE9E7254BD3F8E82042F48042C3F8EB
:103C7800E820D3F8E83003F480430193019BDBE7A5
:103C88001E4BD3F8E82042F40042C3F8E820D3F8EA
:103C9800E83003F400430293029BCDE7174BD3F8B7
:103CA800F02042F40052C3F8F020D3F8F03003F4C7
:103CB80000530393039BBFE7104BD3F8F02042F463
:103CC8008012C3F8F020D3F8F03003F48013049383
:103CD800049BB1E7002387E7012385E7022383E7F5
:103CE800032381E704237FE700231B78FFDE00BF5F
:103CF8000030014000140058680B002400440258AA
:103D08002DE9F0418F68B0243B4E8C4607FB04F444
:103D1800052F06EB04050560AE46BCE80F00AEE8CB
:103D28000F00BCE80F00AEE80F009CE803008EE827
:103D380003005BD8EB68002B5BD0012B56D1002128
:103D4800B02303FB07631A69032A4FD8D3F814C0BA
:103D5800ACF104001C2849D89B691BB1012B45D143
:103D68004FF00073B02000FB0760C06918B101284C
:103D78003CD14FF08070B02505FB0765D5F820E0F1
:103D8800BEF1020F32D8D5F82480B8F1070F2DD82C
:103D98005204E962C5E90E300CF1FF332A6304F1DD
:103DA80028006B634FEA087330446B640023C5E94D
:103DB8001233C5E91433C5E91833C5E91A33C5E91F
:103DC8001C33C5E91E33C5F880300C4B53F82E2040
:103DD8000B4B2A6453F82730AB624FF08043EB65F6
:103DE80004F024FA18B1FFBE012000E00120BDE86C
:103DF800F0814FF48001A3E7680B00245098000875
:103E080038980008006892B208B5283004F0BCFA67
:103E1800003818BF012008BD424B43481A8819686A
:103E28009B7830B4C28003724048414CC280037210
:103E3800080CE2802372A4F8032063712180A0702B
:103E48003C4C3D4DE2802372A4F8032063713B4C47
:103E5800EA80E28023723A4C2B72E2802372A4F843
:103E680003206371374CE2802372374CE28023725F
:103E7800364CA4F803206371E2802372344C21800D
:103E8800A070A4F803206371E2802372314C218072
:103E9800A070A4F803206371E28023722E4C218065
:103EA800A070A4F803206371E28023722B4C218058
:103EB800A070A4F803206371E2802372284C21804B
:103EC800A070A4F803206371E2802372254C21803E
:103ED800A070E2802372A4F803206371224C218031
:103EE800A070E2802372A4F8032063711F4C218024
:103EF8001F49A070E2801F482372A1F803204B716C
:103F0800CA800B72A4F803201B4963711B4CC28042
:103F1800E28023720372A1F803204B71CA800B72EE
:103F280030BC70475C98000840000024040000245E
:103F3800A00F0024580000244C0000246400002432
:103F480088000024700000247C0000241C00002449
:103F5800C40F0024AC0F0024B80F0024880F0024DD
:103F6800E80F0024D00F0024DC0F0024940F002455
:103F7800AC000024A00000242800002494000024A1
:103F8800704700BF08B500F0C1FABDE8084000F06E
:103F9800C1BB00BF704700BF00F0CABA2DE9F041AD
:103FA800CEB004464C2200210AA805F0FDFA2022D2
:103FB800002102A805F0F8FABC2200211EA805F08D
:103FC800F3FA022001F0AAFB2368012B4FF000034B
:103FD80054D0534A02250193C820D16A514B21F08D
:103FE8000101D162D26A02F0010201929A6942F497
:103FF80040429A619B6903F440430193019B494AFB
:1040080093699B04FCD548490224002201268B6A47
:1040180004274FF0080823F0030323438B6205238A
:1040280016900AA818934FF4803310961794199491
:104038001597CDF86880CDE91B222122CDE91344DC
:10404800CDE90A2302F054F800B1FEE73F2203232A
:10405800294602A8CDE9022300220823CDE904233A
:1040680040224023CDE9062340234FF48062CDE966
:10407800082302F06BFB0346B8B1FEE7294A042582
:104088000093F0209169264B41F440419161926977
:1040980002F440420092DA6A42F00102DA62DB6A14
:1040A80003F001030093009BA9E720224FF48051FD
:1040B80025934FF440152B9280222D931EA8309300
:1040C800269135914FF48071249234920C223394C6
:1040D800439140F2271120921022CDF884802A972C
:1040E8001F96CDE92E34CDE93B334FF48033CDE92B
:1040F80022463193002446930623CDE93E45279373
:104108004FF48063094C2C931E94CDE9281202F0D9
:104118002BFD00B1FEE701F027FB4EB0BDE8F081B2
:104128000004005800480258004402580F130F03B7
:104138002DE9F04104460D4684B001264FF48077FE
:104148004FF00008D1E9000184E8030000F0AEF95F
:104158002046FFF723FF00F08BFA4FF040536846E4
:10416800ADF800600193364B0397029300F09EFA76
:104178004FF04043192268468DF80F6001938DF87F
:104188000820ADF80D708DF801608DF80A8000F0F8
:104198008DFA042000F07AFA04F072FC04F02AFB8D
:1041A8002B791BBB6B799BB1BFF34F8FBFF36F8F1D
:1041B800244B0022C3F85022BFF34F8FBFF36F8FF9
:1041C8005A6942F400325A61BFF34F8FBFF36F8FC1
:1041D8000022002369461C48CDE9002304F0E4FBD3
:1041E800194804F043FC04B0BDE8F081154CC4F84C
:1041F8008480BFF34F8FD4F8803043F6E071C3F367
:10420800C906C3F34E334FEA431C0CEA0100334698
:1042180040EA8372013BC4F860225A1CF8D1ACF121
:10422800200C1CF1200FF0D1BFF34F8F636943F4CA
:1042380080336361BFF34F8FBFF36F8FB2E700BF67
:104248000E00010300ED00E0F40F002403480023F2
:10425800034A0449036004F043BE00BFF40F00247E
:1042680000000024893F000810B41A4C00221A4BA1
:10427800D4F88810194841F47001C4F888101968F6
:10428800174C41F0010119601A6119680840154975
:1042980018609A61DA611A629A62DA621A635A637A
:1042A8009A63DA631A645A64186820F480201860E4
:1042B8001A6623681940B1F1005F03D20A4B012244
:1042C800C3F80821034B4FF000625DF8044B9A6075
:1042D800704700BF00ED00E0004402587FEDF6EAA9
:1042E8000010005C0000FFFF00800051024B0278C4
:1042F80053F82200704700BFF0980008024B42783C
:1043080033F81200704700BFD09800088CB00A2814
:1043180014D8DFE800F01523313F4D5B69778593AA
:1043280006004D4BD3F8E02042F48062C3F8E02049
:10433800D3F8E03003F480630B930B9B0CB0704709
:10434800454BD3F8E02042F00102C3F8E020D3F84F
:10435800E03003F001030193019BEFE73E4BD3F8F4
:10436800E02042F00202C3F8E020D3F8E03003F086
:1043780002030293029BE1E7374BD3F8E02042F0B7
:104388000402C3F8E020D3F8E03003F004030393F9
:10439800039BD3E7304BD3F8E02042F00802C3F880
:1043A800E020D3F8E03003F008030493049BC5E74A
:1043B800294BD3F8E02042F01002C3F8E020D3F8EC
:1043C800E03003F010030593059BB7E7224BD3F8C1
:1043D800E02042F02002C3F8E020D3F8E03003F0F8
:1043E80020030693069BA9E71B4BD3F8E02042F075
:1043F8004002C3F8E020D3F8E03003F0400307930D
:10440800079B9BE7144BD3F8E02042F08002C3F8E7
:10441800E020D3F8E03003F080030893089B8DE791
:104428000D4BD3F8E02042F48072C3F8E020D3F8B3
:10443800E03003F480730993099B7FE7064BD3F8B8
:10444800E02042F40072C3F8E020D3F8E03003F42F
:1044580000730A930A9B71E700440258704700BF33
:104468000F4B1B780BB90120704710B504464FF469
:104478007A700C4AB0FBF3F31068B0FBF3F000F06D
:10448800E1F80F2C00D808B1012010BD0022214608
:104498004FF0FF3000F076F8034B00201C6010BD91
:1044A800C0000024B8000024C400002438B503204C
:1044B800124D00F055F8124C02F0A8F8114A1249B2
:1044C8009369C3F30323CB5C03F01F0320FA03F3C0
:1044D8000F202B60926902F00F028A5C02F01F0223
:1044E800D3402360FFF7BCFF10B10124204638BD3C
:1044F8000446FFF7B3FF204638BD00BFB8000024CC
:10450800BC00002400440258C0980008034A044B29
:1045180011681B780B441360704700BFF80F002424
:10452800C0000024014B1868704700BFF80F002432
:1045380038B50446FFF7F6FF0546631C02D0044B66
:104548001B781C44FFF7EEFF431BA342FAD338BD88
:10455800C0000024014B1868000C70470010005C74
:1045680006494FF6FF0C0002054BCA6800F4E060EC
:1045780002EA0C0210430343CB60704700ED00E0F1
:104588000000FA051B4BDB68C3F3022300B5C3F137
:10459800070E03F1040CBEF1040F28BF4FF0040E00
:1045A800BCF1060F1AD9033B4FF0FF3C0CFA03FC91
:1045B80022EA0C024FF0FF3C00280CFA0EFC21EA1C
:1045C8000C0101FA03F141EA02010ADB09010A4B75
:1045D800C9B2034483F800135DF804FB00221346B4
:1045E800E8E700F00F000901044BC9B2034419764B
:1045F8005DF804FB00ED00E000E100E0FCEC00E009
:10460800002807DB00F01F0101234009024A8B4004
:1046180042F82030704700BF00E100E000280DDBC1
:104628004309012200F01F000549203302FA00F077
:1046380041F82300BFF34F8FBFF36F8F704700BF60
:1046480000E100E0431EB3F1807F0CD24FF0E0227E
:10465800002006494FF0F00C5361072381F823C06E
:104668009061136170470120704700BF00ED00E0C2
:10467800BFF35F8F044B00215A6A22F480325A62DA
:10468800C3F89410704700BF00ED00E0064B40F0FF
:104698000100C3F894005A6A42F480325A62BFF3A8
:1046A8004F8FBFF36F8F704700ED00E0174A4378D4
:1046B800C2F89830017821B3436800B5C2F89C303D
:1046C800C37A90F80CC01B0690F80FE043EA0C730D
:1046D80090F80AC00B43817B43EACC4390F80DC0A5
:1046E80043EA8C4390F809C043EA4143017A43EA1C
:1046F8000E4343EA0C2343EA4103C2F8A0305DF8B5
:1047080004FBC2F89C10C2F8A010704700ED00E04E
:10471800704700BF08B5FFF7FBFF08BD0268344BC0
:10472800344930B4344D354CAA4218BF9A420CBFB4
:10473800012300238A4208BF43F001033031A2421B
:1047480008BF43F0010330348A4208BF43F0010335
:104758003031A24208BF43F0010330348A4208BF17
:1047680043F0010301F55C71A24208BF43F0010365
:1047780004F55C748A4208BF43F001033031A24259
:1047880008BF43F0010330348A4208BF43F00103F5
:104798003031A24208BF43F0010330348A4208BFD7
:1047A80043F001033031A24208BF43F001038A42BB
:1047B80008BF43F0010313B9114B9A4213D1D3B286
:1047C8001049114C103BA1FB03515F2B0F4BC1F358
:1047D800021103EA0203615C88BF0433C165836583
:1047E800184630BC704722F0FF038365F8E700BF26
:1047F80010000240400002402800024058000240D9
:10480800B8040240ABAAAAAA2099000800FCFFFF3E
:104818000368294A294930B4294D2A4CAB4218BFAC
:1048280093420CBF012200228B4208BF42F00102D2
:104838002831A34208BF42F0010228348B4208BF46
:1048480042F001022831A34208BF42F001028B4224
:1048580008BF42F0010212B91B4A934213D1DBB2DE
:104868001A4C1B4A0121083B1A4DA4FB0343456619
:1048780002EB1312C3F30413920001FA03F3026666
:10488800836630BC7047DAB21349144C1944103AA5
:10489800A829A4FB02234FEA131300D80833104AAF
:1048A80003F01F0501210F4C1A44A94044669200E9
:1048B80081660266E5E700BF085402583054025882
:1048C8001C5402584454025894540258CDCCCCCCB1
:1048D8000096001680580258F0FBFDBFABAAAAAAA2
:1048E800008200108008024070B50446FFF71AFEE7
:1048F800002C00F0C68023680546954A934248D0AC
:104908001832934245D0303292498B4218BF9342B5
:1049180001F130010CBF012200228B4208BF42F096
:10492800010218318B4208BF42F0010218318B4254
:1049380008BF42F0010218318B4208BF42F0010261
:1049480001F556718B4208BF42F0010218318B42C3
:1049580008BF42F0010218318B4208BF42F0010241
:1049680018318B4208BF42F0010218318B4208BF50
:1049780042F0010218318B4208BF42F0010218319F
:104988008B4208BF42F001021AB9734A934240F0C1
:10499800F5800222002184F8352084F834101A6842
:1049A80022F001021A6005E0FFF7BCFD431B052B4E
:1049B80040D823681A68D107F6D4D4E902252169BA
:1049C8002A43A0691D680A4361690A43E1690243F1
:1049D8000A4362492940256A2A430A43616A04292D
:1049E8002FD01A605A6922F00702114359612046F4
:1049F800FFF794FEE26D3F2302F01F0293408360AD
:104A08002046FFF705FFA368802B3CD06368A06EA3
:104A1800DAB2013BD4E91851072B2A60486026D93D
:104A28000023C4E91B33636700200123606584F811
:104A3800353070BD202203230120626584F83530AB
:104A480070BDD4E90B5129430A431A605969A26A17
:104A580021F00701114341F00401002DC6D00028C0
:104A68004FD1012A6ED032F00202BFD151E0501E60
:104A7800072810D9626FD4E91B31002018604A60FA
:104A8800D2E7012070BD0023A16ED4E9180263604B
:104A980003605160C4E72168314B324DA94218BF09
:104AA800994205F114050CBF01230023A94208BF50
:104AB80043F001031435A94208BF43F0010314353C
:104AC800A94208BF43F001031435A94208BF43F0C7
:104AD80001031435A94208BF43F001033BB9224B37
:104AE800994204D0214B224913449B0003E0214BF7
:104AF800214913449B0001228240C4E91B316267AB
:104B0800BBE7B0F5005F0ED0022A05D9032A7FF46F
:104B18006DAFEA017FF56AAF01234022184662654E
:104B280084F8353070BD032A3FF660AF01A050F815
:104B380022F000BF214B00081B4B0008214B000846
:104B48004D4B0008B5F1C07F7FF450AFE4E700BFDC
:104B58001000024040000240B80402403F8010FEAE
:104B6800085402581C540258945402583F820010AA
:104B7800400902403F96001640590258324A3348CD
:104B88003349834218BF934200F128000CBF012229
:104B980000228B4208BF42F001022831834208BF3D
:104BA80042F0010228308B4208BF42F0010228314E
:104BB800834208BF42F001028B4208BF42F0010263
:104BC80012B9244A934238D102220021224D84F896
:104BD800341084F835201A681540A268402A2AD073
:104BE800802A0CBF4FF480400846266AD4E9031295
:104BF800D20842EAD102616942EAD102A16942EAD5
:104C0800D102E16942EAD102144942EA1612194472
:104C18002A4302431248A0FB010120461A600B09EF
:104C28009B00E365FFF77AFDE26D012302F01F02A6
:104C380093404360E4E61020D7E740220323012095
:104C4800626584F8353070BD085402581C54025807
:104C580030540258945402580F00FEFFF8ABFDA7D9
:104C6800CDCCCCCC2DE9F04300229C4B83B09C4E9C
:104C78001D688146019203689A4A846D934218BF61
:104C8800B342276808BF0126216818BF002645D00F
:104C980018329548834218BF934200F118000CBFA0
:104CA80001220022834208BF42F0010218308342E9
:104CB80008BF42F001021830834208BF42F00102E7
:104CC8001830834208BF42F0010200F55670834253
:104CD80008BF42F001021830834208BF42F00102C7
:104CE8001830834208BF42F001021830834208BFDF
:104CF80042F001021830834208BF42F00102183026
:104D0800834208BF42F001021830834208BF42F0D4
:104D180001021AB9754A934240F05082D9F85C10E2
:104D2800082201F01F0C02FA0CF2174240F08881A9
:104D380027FA0CF2D2070CD55A69100609D50122B8
:104D480002FA0CF2A260D9F8542042F00202C9F823
:104D580054204FF0040E0EFA0CF038425BD0002EAF
:104D68004FD1634ADFF88081434518BF934208F169
:104D780018080CBF01220022434508BF42F0010277
:104D880008F11808434508BF42F0010208F1180865
:104D9800434508BF42F0010208F11808434508BF1F
:104DA80042F0010208F55678434508BF42F0010277
:104DB80008F11808434508BF42F0010208F1180835
:104DC800434508BF42F0010208F11808434508BFEF
:104DD80042F0010208F11808434508BF42F00102F9
:104DE80008F11808434508BF42F0010208F1180805
:104DF800434508BF42F001021AB93C4A934240F0C9
:104E080019821A68920706D5A060D9F8542042F092
:104E18000402C9F85420102202FA0CFC1CEA070FFD
:104E28006CD0002E45D1324A2F4EB34218BF934260
:104E380006F118060CBF01220022B34208BF42F057
:104E480001021836B34208BF42F001021836B342D5
:104E580008BF42F001021836B34208BF42F001020F
:104E680006F55676B34208BF42F001021836B3423F
:104E780008BF42F001021836B34208BF42F00102EF
:104E88001836B34208BF42F001021836B34208BFD1
:104E980042F001021836B34208BF42F00102183648
:104EA800B34208BF42F001021AB9104A934240F0D7
:104EB800C9811A68100721D5C4F808C01A685603B2
:104EC80000F14C811A68D20503D41A6822F008024E
:104ED8001A60D9F840308BB10CE000BFB80000244C
:104EE800100002402800024058000240B804024066
:104EF8004000024048469847D9F85C1001F01F016D
:104F080020268E403E4268D0D9F80020A54BA64FF7
:104F1800BA4218BF9A4207F118070CBF01230023B1
:104F2800BA4208BF43F001031837BA4208BF43F03A
:104F380001031837BA4208BF43F001031837BA42D1
:104F480008BF43F001031837BA4208BF43F0010312
:104F58001837BA4208BF43F0010307F55677BA423B
:104F680008BF43F001031837BA4208BF43F00103F2
:104F78001837BA4208BF43F001031837BA4208BFCE
:104F880043F001031837BA4208BF43F0010318374A
:104F9800BA4208BF43F001031837BA4208BF43F0CA
:104FA80001031BB9814B9A4240F062811368DB060A
:104FB80013D5A66099F83530042B136800F0AE803D
:104FC80013F4802F136800F0D3801C0340F1DE80B7
:104FD800D9F83C300BB148469847D9F85430002BE3
:104FE80000F0B980D9F85430D8071FD5D9F8002077
:104FF800042189F83510136823F0010313606C4B02
:10500800A3FB0535AD0A02E01368D90704D5019B57
:105018000133AB420193F7D9002389F83430136880
:10502800DB074CBF0323012389F83530D9F84C300E
:10503800002B00F09080484603B0BDE8F0431847C5
:10504800186840070AD5186820F004001860A260A4
:10505800D9F8542042F00102C9F8542027FA0CF27A
:10506800D2077FF576AE534A5348834218BF93421E
:1050780000F130000CBF01220022834208BF42F039
:1050880001021830834208BF42F0010218308342FF
:1050980008BF42F001021830834208BF42F0010203
:1050A80000F55670834208BF42F00102183083426F
:1050B80008BF42F001021830834208BF42F00102E3
:1050C8001830834208BF42F001021830834208BFFB
:1050D80042F001021830834208BF42F00102183042
:1050E800834208BF42F001021830834208BF42F0F1
:1050F8000102002A7FF420AE002E7FF41DAE1A684C
:10510800042202FA0CF23A4240F09480102202FA89
:105118000CFC17EA0C0F3FF4F1AE84E623F01603FB
:105128001360536923F080035361D9F840309BB36F
:10513800136823F0080313603F230025012203FAB4
:1051480001F1D9F85030A16089F8345089F8352038
:10515800002B7FF470AF03B0BDE8F0831B68180321
:105168007FF5B7AED9F84830002B7FF4C3AEC5E65B
:1051780013F480737FF42CAF116821F010011160D3
:10518800012289F8343089F8352021E7D9F84430EC
:10519800002B7FF420AF20E7D9F84830002BC7D187
:1051A800CAE700BF1000024028000240B8040240CD
:1051B800B5814E1B58000240400002404E4A4F4DF8
:1051C800AB4218BF934205F114050CBF012200221F
:1051D800AB4208BF42F001021435AB4208BF42F0AF
:1051E80001021435AB4208BF42F001021435AB424C
:1051F80008BF42F001021435AB4208BF42F0010279
:1052080012B93F4A9342A6D1D9F85C5004261A68CD
:1052180005F01F05AE400E4219D0570717D51004E8
:1052280066604BD5D1034FD4D9F84830002B7FF4B2
:1052380002AF90E71A68102202FA0CFC17EA0C0F6A
:105248003FF45CAE1A6852077FF558AE34E6022682
:10525800AE400E4211D097070FD56660140439D5B9
:10526800D00343D4D9F84430002B7FF4E4AE72E77E
:1052780013689F077FF5B1AE9BE60826AE400E4245
:105288003FF469AF11077FF566AF1A68002122F075
:105298000E021A600123D9F84C2003FA05F565605F
:1052A800C9F8543089F8341089F83530002A3FF4A9
:1052B80052AF484603B0BDE8F0431047920603D406
:1052C8001A6822F004021A60D9F84030002B7FF4E3
:1052D800B2AE40E712F0200208D11968012421F08B
:1052E8000A01196089F8342089F83540D9F83C302A
:1052F800002B7FF4A0AE2EE7085402581C54025825
:10530800945402582DE9F04F0D6883B0002D00F039
:10531800D5800023DFF8688201229A4012EA050C42
:1053280000F0C7804E6826F01009B9F1020F40F06E
:10533800C88003F007044FEAD30E4FF00F0A4FEA74
:10534800840900EB8E0E0AFA09FADEF8204024EAF6
:105358000A0A0C6904FA09F406F0030944EA0A0483
:10536800CEF820404FEA430E0324D0F800A009FAF3
:105378000EF904FA0EF42AEA040AE44349EA0A098F
:10538800C0F80090D0F808A0CF6804EA0A0A07FA23
:105398000EF949EA0A09C0F80890C6F30019D0F8CE
:1053A80004A009FA03F92AEA020249EA0202426061
:1053B800C268F70004EA02048A6802FA0EF242EAB6
:1053C8000402C26075D5644C23F0030E03F0030990
:1053D800D4F8F420C6444FEA890942F00202C4F81E
:1053E800F420D4F8F42002F002020192019A0F226C
:1053F800DEF8084002FA09F224EA0202574CA042F9
:1054080025D004F58064A0427BD0554CA0427ED0C4
:10541800544CA0426FD0544CA04200F08480534CAE
:10542800A04200F08680524CA04276D0514CA04257
:1054380000F08580504CA04200F087804F4CA0427D
:105448000CBF09240A2404FA09F942EA0902CEF831
:1054580008204FF0B0426FEA0C0EF403D2F8802017
:105468004FF0B04454BF0EEA02024CEA0202C4F8FC
:105478008020B203D4F884404FF0B04254BF0EEA03
:1054880004044CEA0404F702C2F8844014684FF09C
:10549800B04254BF0EEA04044CEA04041460B40297
:1054A80052684FF0B04454BF0EEA02024CEA0202BE
:1054B8006260013335FA03F27FF42EAF03B0BDE822
:1054C800F08F4FEA430E0324D0F800B006F0030A29
:1054D80004FA0EF409F1FF390AFA0EFA2BEA040B62
:1054E800B9F1010F6FEA04044AEA0B0AC0F800A0F8
:1054F8003FF65EAF46E7032404FA09F942EA0902D7
:10550800A5E7012404FA09F942EA09029FE70224FF
:1055180004FA09F942EA090299E7062404FA09F9A2
:1055280042EA090293E7042404FA09F942EA090263
:105538008DE7052404FA09F942EA090287E70724F6
:1055480004FA09F942EA090281E7082404FA09F988
:1055580042EA09027BE700BF0044025800000258F3
:1055680000080258000C0258001002580014025893
:1055780000180258001C0258002002580024025843
:1055880000040058002900F0A88000232DE9F04FFE
:10559800DFF8689183B0DFF86881DFF868A1DFF889
:1055A80068B14FF0010E0EFA03F212EA010C6FD047
:1055B80023F0030503F003040F2640454D444FEA4A
:1055C800C404AF6806FA04F607EA0607019721D073
:1055D800504566D0584567D0434FB8426ED0434FC8
:1055E800B84270D0424FB84263D0424FB84256D00A
:1055F800414FB84272D0DFF814E1704568D0DFF847
:1056080010E1704514BF4FF00A0E4FF0090E0EFA64
:1056180004F400E00024019FA74219D1AC6824EAF1
:1056280006064FF0B044AE60D4F8805025EA0C0569
:10563800C4F88050D4F8845025EA0C05C4F8845086
:10564800256825EA0C052560656825EA0C0565606E
:1056580003255C0003F007070F2605FA04F4056824
:10566800BF00254306FA07F70560DD0800EB85054E
:105678002E6A26EA07062E62856825EA04058560F3
:10568800456825EA02024260C26822EA0404C4604E
:10569800013331FA03F284D103B0BDE8F08F4FF043
:1056A800060E0EFA04F4B6E74FF0020E0EFA04F4F2
:1056B800B1E74FF0050E0EFA04F4ACE74FF0030E15
:1056C8000EFA04F4A7E74FF0040E0EFA04F4A2E76A
:1056D8004FF0080E0EFA04F49DE770474FF0070EDE
:1056E8000EFA04F497E700BF000C025800100258A5
:1056F8000014025800180258001C025800040058F0
:1057080000000258000402580008025800200258FD
:105718000024025802B909048161704738B5114B59
:10572800DA68520704D4DB6803F00703834214D114
:105738000C4CE36823F007031843E060FEF7F2FE21
:10574800054605E0FEF7EEFE401BB0F57A7F06D869
:1057580063689B04F6D5002038BD012038BD0320BE
:1057680038BD00BF00480258024AD36843F080732E
:10577800D36070470048025870B44D6A15B1B2F151
:10578800406F3AD18B691BB30C6A002C4CD08E68E1
:105798000068C661CE69002E69D02B4313432343AA
:1057A800CC6A334323430C6B23434C6B23430C6970
:1057B8002343CC6823430C6823434C69B2F1406F00
:1057C80043EA8443436165D04B6870BC836170478A
:1057D8000B6ABBB100682B438C68CE69C461002E8C
:1057E8006BD01343CC6A334323430C6B23434C6B7A
:1057F80023430C692343CC68DEE78B6A0468013BCA
:105808002361BFE7CB69002B66D1002D42D0CB6A5C
:105818000C6B2B43006813434A6923434C6B2343A7
:1058280043EA8243436135E0CC6945EA030C002C26
:1058380032D003684CEA0200B2F1406F40EA04003B
:10584800CC6A40EA04000C6B40EA04004C6B40EA66
:105858000400CC6840EA04000C6840EA04004C6983
:1058680040EA8440586115D04A689A6112E045EAD6
:10587800030C0D694CEA0203CA6A23431343D1E9B6
:105888000C4223430C6813434A692B43234343EADE
:105898008243436170BC7047CC6A4CEA02030068DB
:1058A8002343D1E90C4223430C6813434A69234339
:1058B80043EA824370BC43617047CC6A1343234375
:1058C800D1E90C4223431343D1E90442234343EA79
:1058D800824370BC436170472B43CD6A0C6B134302
:1058E80000682B4323434C6B84E700BF70B5044624
:1058F800FEF718FE002C54D094F84030012B52D0FB
:105908000123064684F8403094F8413003F0FF0242
:10591800002B34D0A56C2268A1681368013923F4E0
:10592800706343EA0123136001E06B1C31D1936873
:1059380013F02003F9D1E069E16815680143206A92
:105948000143606841EA00611C48284001436069DE
:105958001160A16955680143206941EA004118486E
:1059680028400125014318465160116829431160F8
:10597800636484F84150002384F8403070BD2046A9
:1059880084F84020FDF7A4FC41F288331D46A36447
:10599800C1E7FEF7C7FD801BA84206D82DB12268D3
:1059A800C5E7012070BD022070BD0423012084F8E2
:1059B8004130636C03436364DDE700BF2FFFFF00E2
:1059C800FEF8E0FFC8B110B590F840300446012B4E
:1059D80011D00268012380F84030136823F00103D6
:1059E8001360FDF7FBFC00236364184684F841301C
:1059F80084F8403010BD022010BD0120704700BF60
:105A08002DE9F04104460E461546FEF78BFD94F845
:105A18004030012B3AD0012384F8403094F84130CB
:105A2800012BDFB206D002270023384684F8403025
:105A3800BDE8F081002380466364022384F8413086
:105A4800681C23680ED19A6812F02002FBD13146F7
:105A58002046FFF791FE736AE3B10123002784F81B
:105A68004130E1E79A6812F020021ED0FEF75AFD95
:105A7800A0EB0800854201D3002DE1D1042384F86E
:105A88004130636C43F001036364CDE70227384675
:105A9800BDE8F081226893689B07FCD502210123A9
:105AA8000027D16084F84130BEE731462046FFF731
:105AB80063FE736A43B1D0E7FEF734FDA0EB08003C
:105AC8008542DBD3002DD9D0226893689907F3D596
