:020000040800F2
:10000000000002206906000865060008C54D0008CA
:100010006506000865060008650600080000000087
:10002000000000000000000000000000650600085D
:10003000650600080000000065060008B54D0008D0
:1000400065060008650600086506000865060008E4
:1000500065060008650600086506000865060008D4
:10006000650600086506000865060008C543000827
:10007000D143000865060008DD430008E943000895
:10008000650600082D9C0008650600086506000846
:100090006506000865060008650600086506000894
:1000A0006506000865060008650600086506000884
:1000B000650600086506000865060008619C0008E2
:1000C000650600086D9C00086506000865060008C6
:1000D0006506000865060008650600086506000854
:1000E00065060008650600080000000065060008B7
:1000F0006506000865060008650600086506000834
:100100006506000865060008650600086506000823
:100110006506000865060008650600086506000813
:100120006506000865060008650600086506000803
:1001300065060008650600086506000865060008F3
:1001400000000000000000000000000000000000AF
:1001500065060008650600086506000865060008D3
:10016000799C000865060008650600086506000819
:1001700065060008650600086506000865060008B3
:1001800065060008650600086506000865060008A3
:100190006506000865060008650600086506000893
:1001A0006506000865060008650600086506000883
:1001B0000D41000865060008650600086506000890
:1001C0006506000865060008650600086506000863
:1001D0006506000865060008650600086506000853
:1001E0006506000865060008650600086506000843
:1001F0006506000865060008650600086506000833
:100200006506000865060008650600086506000822
:100210006506000865060008650600086506000812
:100220006506000865060008650600080000000075
:100230006506000865060008000000006506000865
:1002400065060008650600086506000865060008E2
:1002500065060008650600086506000865060008D2
:1002600065060008650600086506000865060008C2
:100270006506000865060008650600080000000025
:100280006506000865060008650600080000000015
:080290000000000065060008F3
:1002980010B5054C237833B9044B13B10448AFF3B8
:1002A80000800123237010BD7801002400000000A5
:1002B80068B4000808B5034B1BB103490348AFF302
:1002C800008008BD000000007C01002468B400081C
:1002D80010F8012B11F8013B012A28BF9A42F7D0E8
:1002E800D01A704781F0004102E000BF83F000435C
:1002F80030B54FEA41044FEA430594EA050F08BFB9
:1003080090EA020F1FBF54EA000C55EA020C7FEA7C
:10031800645C7FEA655C00F0E2804FEA5454D4EBF9
:100328005555B8BF6D420CDD2C4480EA020281EAC3
:10033800030382EA000083EA010180EA020281EAFB
:100348000303362D88BF30BD11F0004F4FEA01314D
:100358004FF4801C4CEA113102D0404261EB41015C
:1003680013F0004F4FEA03334CEA133302D05242E2
:1003780063EB430394EA050F00F0A780A4F101049E
:10038800D5F1200E0DDB02FA0EFC22FA05F28018D8
:1003980041F1000103FA0EF2801843FA05F35941BE
:1003A8000EE0A5F120050EF1200E012A03FA0EFC3D
:1003B80028BF4CF0020C43FA05F3C01851EBE37167
:1003C80001F0004507D54FF0000EDCF1000C7EEB84
:1003D80000006EEB0101B1F5801F1BD3B1F5001FC2
:1003E8000CD349085FEA30004FEA3C0C04F10104E1
:1003F8004FEA445212F5800F80F09A80BCF1004F0A
:1004080008BF5FEA500C50F1000041EB045141EA8B
:10041800050130BD5FEA4C0C404141EB0101013C54
:1004280028BFB1F5801FE9D291F0000F04BF014643
:100438000020B1FA81F308BF2033A3F10B03B3F115
:1004480020020CDA0C3208DD02F1140CC2F10C02A5
:1004580001FA0CF021FA02F10CE002F11402D8BF03
:10046800C2F1200C01FA02F120FA0CFCDCBF41EACF
:100478000C019040E41AA2BF01EB0451294330BD9E
:100488006FEA04041F3C1CDA0C340EDC04F114047B
:10049800C4F1200220FA04F001FA02F340EA030052
:1004A80021FA04F345EA030130BDC4F10C04C4F198
:1004B800200220FA02F001FA04F340EA0300294678
:1004C80030BD21FA04F0294630BD94F0000F83F4C2
:1004D800801306BF81F480110134013D4EE77FEAA5
:1004E800645C18BF7FEA655C29D094EA050F08BFF1
:1004F80090EA020F05D054EA000C04BF19461046D2
:1005080030BD91EA030F1EBF0021002030BD5FEA15
:10051800545C05D14000494128BF41F0004130BD3D
:1005280014F580043CBF01F5801130BD01F0004591
:1005380045F0FE4141F470014FF0000030BD7FEA04
:10054800645C1ABF194610467FEA655C1CBF0B46FF
:10055800024650EA013406BF52EA033591EA030F16
:1005680041F4002130BD00BF90F0000F04BF00210E
:10057800704730B54FF4806404F132044FF0000541
:100588004FF0000150E700BF90F0000F04BF0021BA
:10059800704730B54FF4806404F1320410F0004520
:1005A80048BF40424FF000013EE700BF42004FEA1B
:1005B800E2014FEA31014FEA02701FBF12F07F4398
:1005C80093F07F4F81F06051704732F07F4208BF4F
:1005D800704793F07F4F04BF41F40021704730B556
:1005E8004FF4607401F0004521F000411CE700BFA2
:1005F80050EA010208BF704730B54FF000050AE025
:1006080050EA010208BF704730B511F0004502D525
:10061800404261EB41014FF4806404F132045FEA27
:10062800915C3FF4D8AE4FF003025FEADC0C18BFD0
:1006380003325FEADC0C18BF033202EBDC02C2F1C2
:10064800200300FA03FC20FA02F001FA03FE40EA54
:100658000E0021FA02F11444BDE600BFFEE700BF18
:100668000B480C4A904203D0121A0B490AF014FCAA
:100678000A480B4A904203D0121A00210AF01AFCC9
:1006880004F006FD0AF0DCFB02F006F9FEE700BF05
:10069800000000247801002484B4000878010024B4
:1006A800B01400242DE9F04101268CB00746044619
:1006B800804601918672002527F8081F384603F006
:1006C800BDF9BDF80630A67128F8043F404603F08E
:1006D800B5F9A74B204606960293A64B0595CDE99A
:1006E80003350223CDE90A3308230DEB03010793F1
:1006F800CDE9085504F018FA2946404603F07AFA7D
:100708000A2004F05DFB3146404603F073FA0A20E4
:1007180004F056FBAE23294638468DF8083003F01E
:1007280069FA324602A96423204604F07FFAD523E9
:10073800294638468DF8083003F05CFA324602A99B
:100748006423204604F072FA8023294638468DF83F
:10075800083003F04FFA324602A96423204604F019
:1007680065FAA823294638468DF8083003F042FA7E
:10077800324602A96423204604F058FA3F2329464A
:1007880038468DF8083003F035FA324602A964235A
:10079800204604F04BFADA23294638468DF808300B
:1007A80003F028FA324602A96423204604F03EFAF0
:1007B8001223294638468DF8083003F01BFA3246D2
:1007C80002A96423204604F031FAD3232946384687
:1007D8008DF8083003F00EFA3246642302A9204649
:1007E80004F024FA294638468DF8085003F002FA36
:1007F800324602A96423204604F018FA4023294609
:1008080038468DF8083003F0F5F9324602A964231A
:10081800204604F00BFAA623294638468DF80830FE
:1008280003F0E8F9324602A96423204604F0FEF9F1
:10083800A423294638468DF8083003F0DBF9324600
:1008480002A96423204604F0F1F98D23294638468D
:100858008DF8083003F0CEF9324602A96423204609
:1008680004F0E4F91423294638468DF8083003F0DB
:10087800C1F9324602A96423204604F0D7F9A1231E
:10088800294638468DF8083003F0B4F9324602A9F3
:100898006423204604F0CAF9C823294638468DF84F
:1008A800083003F0A7F9324602A96423204604F071
:1008B800BDF98123294638468DF8083003F09AF9A6
:1008C800324602A96423204604F0B0F98F23294652
:1008D80038468DF8083003F08DF9324602A96423B2
:1008E800204604F0A3F9D923294638468DF8083064
:1008F80003F080F9324602A96423204604F096F9F1
:100908002523294638468DF8083003F073F9324616
:1009180002A96423204604F089F9DB2329463846D6
:100928008DF8083003F066F9324602A964232046A0
:1009380004F07CF93423294638468DF8083003F052
:1009480059F9324602A96423204604F06FF9AF230F
:10095800294638468DF8083003F04CF964233246AE
:1009680002A9204604F062F90CB0BDE8F08100BF8E
:10097800060B0B000105060A70B5054682B0144641
:100988000E4601F0CBFF0021284602F049F8092065
:1009980001F0EAFF03461E20ADF8003001F0E4FF45
:1009A800034606F108004FF07C56ADF80230009976
:1009B800FFF778FE284601F0F1FFB7EE006AF0EE87
:1009C800407A9FED137A00232046B0EE470A84ED63
:1009D800027AC6EE276AC4ED037A63616660C4EDE5
:1009E800046A09F03BFEDFED0B7A40F201120223A4
:1009F800204684ED060AA284B0EE670A237066607A
:100A0800C4ED027A09F02AFE84ED060A02B070BD30
:100A18000000C8420000DC4349424FF480621430B1
:100A2800C9B20AF047BA00BF80207047402070471B
:100A38002DE9F041B02482B000F1080600F110055C
:100A480000F11408002728468DF80740013439467C
:100A580003F0D0F8642301220DF107013046E4B217
:100A680004F0E4F8394628468DF8077003F0C2F818
:100A7800012264230DF10701304604F0D7F8102352
:100A8800394628468DF8073003F0B4F8642301226C
:100A98000DF10701304604F0C9F80121284603F09A
:100AA800A9F88022414664233046904404F0BEF8F9
:100AB800B82CC7D102B0BDE8F08100BF2DE9F04FD6
:100AC80083B05C1A0C9E002C9DF83490A6EB0208AB
:100AD800B8BF6442B8F1000FB8BFC8F100088B4234
:100AE8008CBF4FF0010A4FF0FF3A9642A4EB080C76
:100AF80051D84FF0FF357F2B019512D83F2E10D8D3
:100B0800F50806F0070E012703EBC5150544B9F1F2
:100B1800000F47D007FA0EF795F814E047EA0E07DA
:100B28002F75964201D18B4229D0C8F100077F2941
:100B380014D83F2A12D8D50802F0070B4FF0010E3F
:100B480001EBC5150544B9F1000F1BD00EFA0BFED9
:100B580095F814B04EEA0B0E85F814E0B7EB4C0F7D
:100B68004FEA4C0502DAACEB080C5144AC4202DD0A
:100B7800019DA4442A449942D9D19642D7D103B0C1
:100B8800BDE8F08F0EFA0BFB95F814E02EEA0B0E79
:100B980085F814E0E2E701257F2B0195C5D83F2EA3
:100BA800AED9C2E707FA0EFE2F7D964227EA0E0756
:100BB8002F75B8D0B9E700BF2DE9F04F87B09DF881
:100BC8004850109C2E4601959DF844509EB399427A
:100BD8002ED89946A24228D87F29164694BF0023CA
:100BE800012308E09CF814804EEA080E8CF814E003
:100BF8000136B44219D33F2EFAD8002BF8D14FEA68
:100C0800D60C06F0070E4FF0010801EBCC1C08FAD1
:100C18000EFE8444002DE5D19CF814B001362BEA71
:100C28000E0AB4428CF814A0E5D201318945D1D21C
:100C380007B0BDE8F08FA3EB0108B8F1000FB8BF0B
:100C4800C8F100089942C0F04E817F2B4FF0FF3A5F
:100C580094BF002601263F2A009694BF002701274B
:100C68000397A6B99FB9D60802F0070C012703EB32
:100C7800C6160644002D00F0958107FA0CF796F881
:100C880014C047EA0C073775002603960096994268
:100C980000F09881464694468E46BEF17F0F16D8DE
:100CA800BCF13F0F13D84FEADC070CF0070B4FF0ED
:100CB80001090EEBC7170744002D00F0398109FA26
:100CC8000BF997F814B049EA0B0987F814907700E4
:100CD80018BFD644B84502DD46440CF1FF3C7345C5
:100CE800DBD16245D9D100260496A4EB0209B9F1FB
:100CF800000FB8BFC9F100093F2C94BF0026012698
:100D0800A242C9F100080296C0F02481002E40F0EA
:100D18005281009E002E40F04E814FF0FF36009623
:100D2800E60803EBC6160644002D00F01F814FF0BD
:100D3800010C04F007070CFA07F796F814C047EA05
:100D48000C07377500260296A24200F03E81C44681
:100D580016461F4605927F2F15D83F2E13D84FEA07
:100D6800D60E06F0070B4FF0010A07EBCE1E86449D
:100D7800002D00F0E6800AFA0BFA9EF814B04AEA51
:100D88000B0A8EF814A0B8EB4C0F4FEA4C0E02DA9F
:100D9800ACEB090C013FBEF1000F01D0009A1644DC
:100DA800BB42D8D1B442D6D1059AA1EB030EBEF10D
:100DB800000FB8BFCEF1000E7F2994BF4FF0000A94
:100DC8004FF0010A99428CBF4FF001094FF0FF39EB
:100DD800BAF1000F13D1029E8EB9E60801EBC616D0
:100DE8000644002D00F0D4804FF0010C04F00707F2
:100DF8000CFA07F796F814C047EA0C073775049EF3
:100E080026BB774626467F2B14D83F2E12D84FEAAA
:100E1800D60C06F0070B4FF0010803EBCC1C8444FA
:100E2800002D73D008FA0BF89CF814B048EA0B08A8
:100E38008CF814805FEA470C18BF4B44E64501DD87
:100E48007744013E9942DED1B442DCD1A2EB040ED4
:100E5800BEF1000FB8BFCEF1000EA2428CBF4FF01A
:100E680001084FF0FF38CEF1000CBAF1000F0ED197
:100E7800039B63B9D30802F00707012601EBC313EC
:100E88000344002D7DD0BE401F7D3E431E75019B4F
:100E9800002B7FF4CDAE66460B467F2B12D83F2C35
:100EA80010D8E70804F0070A4FF0010903EBC71749
:100EB8000744A5B309FA0AF997F814A049EA0A09F8
:100EC80087F81490BCEB460F4FEA460702DAA6EB08
:100ED8000E06013B07B144449942DED1A242DCD15F
:100EE80007B0BDE8F08F3F2A4FF0010A94BF0026F3
:100EF80001267F2B039694BF002701270097002E19
:100F08007FF4C8AE002F3FF4AEAEC3E608FA0BFB81
:100F18009CF8148028EA0B088CF814808AE709FAF0
:100F28000AFA97F8149029EA0A0987F81490C9E789
:100F380009FA0BFB97F8149029EA0B0987F8149023
:100F4800C5E60AFA0BFB9EF814A02AEA0B0A8EF8EB
:100F580014A018E79EBB009E8EBB01260096E608EB
:100F680003EBC6160644002D7FF4E1AE012704F01A
:100F7800070C029507FA0CFC377D27EA0C07377532
:100F8800E2E606FA07F71E7D26EA07061E757EE7E3
:100F9800012704F0070C07FA0CFC377D27EA0C0739
:100FA80037752CE707FA0CFC377D039527EA0C0701
:100FB800009537756BE64FF0FF360096C4E60126BC
:100FC8000096C4E6012604968FE601260196ECE613
:100FD8002DE9F04F0E6887B01C4A0C463369074666
:100FE800934241F0DD804FF48062002104F1140047
:100FF80009F060FFF368164DD6F81C80AB4241F04B
:10100800C5803626AB4241F0BA804C23114A904540
:1010180022D1B34229D30621CA0801F0070C0120C6
:101028007F2E06EBC212014400FA0CF0224404D8C9
:1010380092F814C040EA0C0010752229ECD1B34292
:1010480006F1010211D01646E5E700BF210A0008A3
:10105800310A0008C10B0008012231462046CDE9BB
:101068000122212200920622C0472268D368D2F8C2
:101078001890AB4241F079804FF036084FF0400AA3
:10108800AB4241F06980402136230A46CB4EB14538
:1010980041F05780A1EB0A0143458CBF4FF0010A8C
:1010A8004FF0FF3A7F2B81EAE179A9EBE179A9F1C9
:1010B8000F0107D802F2F62214FA82F2107D40F0EE
:1010C800100010754FF0250C4FEADC024FF0010BB1
:1010D8000CF00700B8F17F0F08EBC21201FA0BFE03
:1010E8000BFA00F0224407D8BCF13F0F04D892F85D
:1010F80014B040EA0B0010751EF10E0FC0F2FD840B
:10110800F145D044A1F10F0100F3F7849845DBD1F4
:10111800BCF1340FD8D12268D368D2F81890AB420A
:1011280041F004804FF03608C246AB4240F0F687E3
:10113800392340221946B14540F0E587A1EB0A0161
:10114800984534BF4FF0010A4FF0FF3A7F2B81EAF0
:10115800E179A9EBE179A9F10F0107D802F2F922A7
:1011680014FA82F2107D40F0100010754FF0250C33
:101178004FEADC024FF0010B0CF00700B8F17F0FCB
:1011880008EBC21201FA0BFE0BFA00F0224407D852
:10119800BCF13F0F04D892F814B040EA0B00107568
:1011A8001EF10E0FC0F2A484F145D044A1F10F0145
:1011B80000F39E849845DBD1BCF1340FD8D1226866
:1011C800D368D2F81890AB4240F092874FF03908B4
:1011D800C246AB4240F084873C2340221946B145C1
:1011E80040F07387A1EB0A01984534BF4FF0010A1C
:1011F8004FF0FF3A7F2B81EAE179A9EBE179A9F178
:101208000F0107D802F5FE7214FA82F2107D40F041
:10121800200010754FF0340C4FEADC024FF0010B40
:101228000CF00700B8F17F0F08EBC21201FA0BFEB1
:101238000BFA00F0224407D8BCF13F0F04D892F80B
:1012480014B040EA0B0010751EF10E0FC0F24B846B
:10125800F145D044A1F10F0100F345844345DBD1AA
:10126800BCF1250FD8D12268D368D2F81890AB42C8
:1012780040F021874FF03C084FF0400AAB4240F065
:10128800128740213C230A46B14540F00187A1EB73
:101298000A0143458CBF4FF0010A4FF0FF3A7F2BFC
:1012A80081EAE179A9EBE179A9F10F0107D802F503
:1012B8003F7214FA82F2107D40F0100010754FF062
:1012C800250C4FEADC024FF0010B0CF00700B8F1D7
:1012D8007F0F08EBC21201FA0BFE0BFA00F0224452
:1012E80007D8BCF13F0F04D892F814B040EA0B00BD
:1012F80010751EF10E0FC0F2F283F145D044A1F132
:101308000F0100F3EC839845DBD1BCF1340FD8D141
:101318002268D368D2F81890AB4240F091864FF01B
:101328003E084FF0400AAB4240F0828640213E23FF
:101338000A46B14540F07186A1EB0A0143458CBFCE
:101348004FF0010A4FF0FF3A7F2B81EAE179A9EBD0
:10135800E179A9F10F0107D802F5FF7214FA82F2B8
:10136800107D40F0200010754FF0340C4FEADC027D
:101378004FF0010B0CF00700B8F17F0F08EBC21219
:1013880001FA0BFE0BFA00F0224407D8BCF13F0F1C
:1013980004D892F814B040EA0B0010751EF10E0F35
:1013A800C0F29983F145D044A1F10F0100F3938372
:1013B8004345DBD1BCF1250FD8D101E0C50A0008AF
:1013C8002268D368D2F81890AB4240F006864FF0F6
:1013D8003E08AB42C24640F00C864123B1454FF06F
:1013E80040001A4640F01086A2EB0A0EBEF1000F2C
:1013F800B8BFCEF1000E434500F284837F2A4FF038
:10140800FF3A07D800F2812214FA82F2117D41F0E6
:1014180020011175434520D0F4462D21CA0801F05A
:1014280007090120B8F17F0F08EBC21200FA09F092
:1014380007D83F29224404D892F8149040EA0900BA
:1014480010755FEA4C0218BFD044964501DDF4449C
:1014580001399845E2D12D29E0D12268D368D2F824
:101468001890AB4240F0AC854FF04108C246AB4201
:1014780040F058844123B1454FF04002184640F0EF
:101488005C84A0EB0A09B9F1000FB8BFC9F10009E3
:1014980043458CBF4FF0010A4FF0FF3A7F28A9F16E
:1014A8000F0107D802F2012214FA82F2107D40F0EF
:1014B800200010754FF0340C4FEADC024FF0010B9E
:1014C8000CF00700B8F17F0F08EBC21201FA0BFE0F
:1014D8000BFA00F0224407D8BCF13F0F04D892F869
:1014E80014B040EA0B0010751EF10E0FC0F22883ED
:1014F800F145D044A1F10F0100F322839845DBD1D7
:10150800BCF1250FD8D12268D368D2F81890AB4225
:1015180040F022844FF04308AB42C24640F02A8490
:101528004323B1454FF04002184640F02E84A0EB0B
:101538000A09B9F1000FB8BFC9F1000943458CBFCA
:101548004FF0010A4FF0FF3A7F28A9F10F0107D8A1
:1015580002F2033214FA82F2107D40F01000107586
:101568004FF0250C4FEADC024FF0010B0CF007009E
:10157800B8F17F0F08EBC21201FA0BFE0BFA00F06C
:10158800224407D8BCF13F0F04D892F814B040EABF
:101598000B0010751EF10E0FC0F2CE82F145D0443B
:1015A800A1F10F0100F3C8824345DBD1BCF1340F30
:1015B800D8D12268D368D2F81890AB4240F0F583AE
:1015C8004FF04308AB42C24640F0FD834623B14585
:1015D8004FF04002184640F00184A0EB0A09B9F127
:1015E800000FB8BFC9F1000943458CBF4FF0010A8D
:1015F8004FF0FF3A7F28A9F10F0107D802F206320F
:1016080014FA82F2107D40F0100010754FF0250C8E
:101618004FEADC024FF0010B0CF00700B8F17F0F26
:1016280008EBC21201FA0BFE0BFA00F0224407D8AD
:10163800BCF13F0F04D892F814B040EA0B001075C3
:101648001EF10E0FC0F27482F145D044A1F10F01D2
:1016580000F36E824345DBD1BCF1340FD8D1226848
:10166800D368D2F81890AB4240F0C8834FF04608D0
:10167800AB42C24640F0D0834623B1454FF040020A
:10168800184640F0D483A0EB0A09B9F1000FB8BF9F
:10169800C9F1000943458CBF4FF0010A4FF0FF3AEA
:1016A8007F28A9F10F0107D802F2062214FA82F264
:1016B800107D40F0200010754FF0340C4FEADC022A
:1016C8004FF0010B0CF00700B8F17F0F08EBC212C6
:1016D80001FA0BFE0BFA00F0224407D8BCF13F0FC9
:1016E80004D892F814B040EA0B0010751EF10E0FE2
:1016F800C0F21A82F145D044A1F10F0100F314821F
:101708009845DBD1BCF1250FD8D12268D368D2F82F
:101718001890AB4240F09B834FF04808AB42C2465A
:1017280040F0A3834823B1454FF04002184640F0EB
:10173800A783A0EB0A09B9F1000FB8BFC9F10009E6
:1017480043458CBF4FF0010A4FF0FF3A7F28A9F1BB
:101758000F0107D802F5027214FA82F2107D40F0E8
:10176800200010754FF0340C4FEADC024FF0010BEB
:101778000CF00700B8F17F0F08EBC21201FA0BFE5C
:101788000BFA00F0224407D8BCF13F0F04D892F8B6
:1017980014B040EA0B0010751EF10E0FC0F2C081A4
:1017A800F145D044A1F10F0100F3BA814345DBD1E3
:1017B800BCF1250FD8D12268D368D2F81890AB4273
:1017C80040F06E834FF04A08AB42C24640F0768341
:1017D8004C23B1454FF040001A4640F07A83A2EB03
:1017E8000A0EBEF1000FB8BFCEF1000E434500F25D
:1017F8005D827F2A4FF0FF3A07D800F5037214FA8A
:1018080082F2117D41F020011175434520D0F44644
:101818002521CA0801F007090120B8F17F0F08EB5C
:10182800C21200FA09F007D83F29224404D892F8D6
:10183800149040EA090010755FEA4C0218BFD044C2
:10184800964501DDF44401394345E2D12529E0D12B
:101858002268D368D2F81890AB4240F048834FF022
:101868004A08AB42C24640F050834C23B1454FF082
:101878004002184640F05483A0EB0A09B9F1000F62
:10188800B8BFC9F10009984534BF4FF0010A4FF0BD
:10189800FF3A7F28A9F1070107D802F5237214FA45
:1018A80082F2107D40F0100010754FF0250C4FEAC1
:1018B800DC024FF0010B0CF00700B8F17F0F08EBCA
:1018C800C21201FA0BFE0BFA00F0224407D8BCF151
:1018D8003F0F04D892F814B040EA0B0010751EF1BF
:1018E800060FC0F21981F145D044A1F1070100F3B8
:1018F80013819845DBD1BCF12C0FD8D12268D3686D
:10190800D2F818A0AB4240F01B834FF04C08AB4212
:10191800C34640F023834FF04A09B2454FF04002D6
:10192800484640F02683A0EB0B03002BB8BF5B4270
:10193800C1458CBF4FF0010A4FF0FF3A7F28A3F151
:10194800080107D802F20A3214FA82F2107D40F038
:10195800100010754FF02C0C4FEADC024FF0010B11
:101968000CF00700B8F17F0F08EBC21201FA0BFE6A
:101978000BFA00F0224407D8BCF13F0F04D892F8C4
:1019880014B040EA0B0010751EF1070FC0F2C080BA
:101998007345D044A1F1080100F3BA80C845DBD1F2
:1019A800BCF1340FD8D12268D368D2F81890AB4272
:1019B80040F0EF824FF04A08AB42C24640F0F7824F
:1019C8004C2340201A46B14540F07C81A2EB0A0C1A
:1019D800BCF1000FB8BFCCF1000C434500F26C819C
:1019E8007F2A4FF0FF3E07D800F5437214FA82F2BF
:1019F800117D41F01001117543451FD06646342111
:101A0800CA0801F007090120B8F17F0F08EBC212DC
:101A180000FA09F007D83F29224404D892F8149014
:101A280040EA09001075720018BFF044944501DDC2
:101A3800664401394345E3D13429E1D1B0EE007A57
:101A4800D7ED007A236877EE877ADA68DE69AA42EA
:101A5800FCEEE77A17EE909A40F015834FF0800A73
:101A68009B68DFF8BC82434540F00483DFEDA87A29
:101A7800D7ED006AB0EE007AA64B77EEA67A9E42C2
:101A880077EE877AFCEEE77A17EE902A40F0E78245
:101A98000023A446914518D87F2B494694BF0024BB
:101AA8000124C80801F0070E01263F2903EBC010E6
:101AB800314406FA0EF606D8604424B990F814E0CA
:101AC8002EEA060606758A42EBD2534503F1010158
:101AD8003AD00B46DEE749440CF1FF3C68E4494440
:101AE8000CF1010C0FE449440CF1FF3CFFF7B6BBC5
:101AF80049440CF1010CFFF75DBB49440CF1010CA2
:101B0800FFF704BB7F2A4FF0010A7FF67BAC83E422
:101B180019440CF1010C41E749440CF1010CE8E6C9
:101B280049440CF1FF3C41E649440CF1FF3CE7E530
:101B380049440CF1010C8DE549440CF1010C33E5E5
:101B480049440CF1FF3CD9E4644623689A68D3F809
:101B58001CA0424540F0CD80DFED6D7AF0EE006AC2
:101B680097ED007ADA6837EE267AAA4277EEC77AD6
:101B7800FCEEE77A17EE906A40F0AC809B684FF075
:101B88008009434540F0AE80DFED637AD7ED006A07
:101B9800B0EE007A5F4A77EEE67A924577EE877A7A
:101BA800FCEEE77A17EE903A22D10020B4469C4525
:101BB80018D87F28624694BF00260126D10802F073
:101BC800070E01253F2A00EBC1112A4405FA0EF53C
:101BD80006D8214426B991F814E02EEA05050D75BA
:101BE8009342EBD2814500F101020BD01046DEE7AB
:101BF800012000214B463246CDED007ACDE9011097
:101C08002046D04797ED007A2368B7EEC77A434A53
:101C1800DB6A9FED3D6B934237EE467BB7EEC77BA1
:101C280087ED007A40F0168204F1080704F11006E7
:101C3800B02514344FF0000830468DF817500135A0
:101C4800414601F0D7FF642301220DF11701384600
:101C5800EDB202F0EBFF414630468DF8178001F0F7
:101C6800C9FF012264230DF11701384602F0DEFF97
:101C78001023414630468DF8173001F0BBFF64232E
:101C880001220DF11701384602F0D0FF012130463C
:101C980001F0B0FF8022214664233846144402F044
:101CA800C5FFB82DC6D107B0BDE8F08F7F2A4FF029
:101CB800010A7FF6A2ADAAE57F2A4FF0010E7FF652
:101CC80093AE9BE6342201204146CDE90020204610
:101CD800C847B3E620469047236881469B6843453A
:101CE8003FF452AF2046984707EE900AF8EEE77A9D
:101CF8004CE720469047C0F34F0307EE903A23681D
:101D0800F8EEE77A2AE700BF9A9999999999B93F25
:101D180000000042C10B000800008042390A000898
:101D2800350A000820469847C0F34F02B14502F132
:101D3800010080B203463FF4A4AB252201204146AE
:101D4800CDE9002034222046C8472268D368D2F85B
:101D58001890AB423FF4DEAB2046984723684FEA21
:101D6800500ADB680AF1030AAB421FFA8AFAD04626
:101D78003FF4D6AB20469847C0F34F02B14502F175
:101D8800030080B203463FF4D2AB34224FF0010B7C
:101D980041462046CDE9002B2522C8472268D36852
:101DA800D2F81890AB423FF40BAC20469847236812
:101DB8004FEA500ADB680AF1030AAB421FFA8AFAB3
:101DC800D0463FF403AC20469847C0F34F02B145D4
:101DD80002F1060080B203463FF4FFAB34224FF015
:101DE800010A41462046CDE9002A2522C847226833
:101DF800D368D2F81890AB423FF438AC20469847E5
:101E080023684FEA500ADB680AF1060AAB421FFA58
:101E18008AFAD0463FF430AC20469847C0F34F02C8
:101E2800B14502F1060080B203463FF42CAC4146AE
:101E380025224FF001082046CDE900283422C84762
:101E48002268D368D2F81890AB423FF465AC2046BC
:101E5800984723684FEA500ADB680AF1080AAB4240
:101E68001FFA8AFAD0463FF45DAC20469847C0F383
:101E78004F02B14502F1080080B203463FF459AC65
:101E880025224FF0010E41462046CDE9002E34228E
:101E9800C8472268D368D2F81890AB423FF492AC96
:101EA8002046984723684FEA500ADB680AF10A0A75
:101EB800AB421FFA8AFAD0463FF48AAC20469847CC
:101EC800C0F34F00B14500F10C0292B213463FF443
:101ED80086AC252201204146CDE900202046C8478E
:101EE8002268D368D2F81890AB423FF4B8AC2046C9
:101EF800984723684FEA500ADB680AF10A0AAB429E
:101F08001FFA8AFAD0463FF4B0AC20469847C0F38F
:101F18004F02B14502F10C0080B203463FF4ACAC6D
:101F28002C224FF0010C41462046CDE9002C2522F9
:101F3800C8472268D368D2F818A0AB423FF4E5AC92
:101F48002046984723684FEA500BDB680BF10C0BCF
:101F5800AB421FFA8BFBD8463FF4DDAC20469847CE
:101F6800C0F34F02B24502F10A0080B281463FF445
:101F7800DAAC342201204B464146CDE900202C2220
:101F88002046D0472268D368D2F81890AB423FF475
:101F980011AD2046984723684FEA500ADB680AF1DA
:101FA8000A0AAB421FFA8AFAD0463FF409AD204626
:101FB8009847C0F34F0000F10C0292B2134602E5B5
:101FC8002046984723684FEA500ADB680AF1010A5D
:101FD8001FFA8AFAD046FFF74ABA2046984723687C
:101FE800C0F34F00DB68A0F1020AAB42D0463FF4D1
:101FF800F4A920469847C0F34F00B14500F101020B
:1020080092B213463FF4F0A92D2201204146CDE9B2
:1020180000202046C847FFF720BA25224FF0010CC0
:1020280041462046CDE9002C3422C847FFF7C8B9FD
:1020380020469847C0F34F021146931EFFF779B91F
:10204800204698472368C0F34F0ADB68AAF10208C4
:10205800FFF769B9204607B0BDE8F04F18470021DF
:10206800012053464A46CDED007ACDE901102046BD
:10207800B0476AE520469847C0F34F0307EE903A09
:10208800F8EEE77AF4E42046904723688246E7E4CE
:1020980034224FF0010E41462046CDE9002E25227C
:1020A800C847FFF735B920469847C0F34F02114695
:1020B800131FFFF7E9B8204698472368C0F34F0A73
:1020C800DB68AAF10408FFF7D9B8414625224FF08A
:1020D80001082046CDE900283422C847FFF7C3B8D5
:1020E80020469847C0F34F02111F0B46FFF777B8F9
:1020F80020469847C0F34F002368A0F1070ADB6821
:10210800D046FFF766B834224FF0010A4146204610
:10211800CDE9002A2522C847FFF751B8204698473D
:10212800C0F34F02D11F0B46FFF705B8204698476A
:10213800C0F34F002368A0F10A0ADB68D046FEF717
:10214800F4BF34224FF0010B41462046CDE9002B65
:102158002522C847FEF7DFBF20469847C0F34F0245
:102168001146A2F10A03FEF791BF2046984723685B
:10217800C0F34F0ADB68AAF10A08FEF781BF2046C0
:10218800984743080C339BB2FEF740BF2046984758
:102198002368C0F34F00DB68A0F10A06FEF732BFE0
:1021A8000021204698472668FEF724BF704700BFE5
:1021B800704700BF704700BFA2B170B50D46164604
:1021C8000024094808F068F8D5E9000300EB84000A
:1021D80003EB8403013480ED000AA64283ED000A74
:1021E800EFD170BD704700BFE405002410B5044668
:1021F80040F2144108F0B6FA204610BD2DE9F04F20
:1022080085B0A1F1200504AC9DF83870009104E96F
:102218000C00EBB25E2B00F29580036880465D4AA5
:10222800DB689DF8084093429DF8096040F094806F
:102238008020B8F804302344834200F38380D8F820
:102248000030554A9B68934240F088804020B8F897
:10225800062093190192834274DC002E00F08980D5
:1022680006FB05F56FF00040039B964628442E4474
:10227800B8F804A003EB4000023B03EB460B30F830
:10228800026FBCB30EF007034FF0010C4FEADE02F9
:1022980051460CFA03FC0AF114034FFA8CFC03EBC9
:1022A800C21200236FEA0C0942440EE07F2907D8C6
:1022B800BEF13F0F04D815789FB14CEA050515709B
:1022C8000133013201319C4214D006FA03F52D0482
:1022D800ECD47F29F4D8BEF13F0FF1D81578002F40
:1022E800EBD0013309EA0505013201319C4202F8BD
:1022F800015CEAD158450EF1010EC0D1D8F8003082
:1023080054442449DA68A4B28A422DD180208442F8
:102318001CD29B68204AA8F80440934221D140204F
:10232800019B834207D3D8F800301B4A9B6893422D
:1023380029D13F230193DDE90003A8F8063005B051
:10234800BDE8F08F002005B0BDE8F08FDA681149CC
:102358008A4211D17F24DCE798476AE740469847CC
:1023680075E740469847DBE740469047D8F8003085
:10237800CDE7B8F804A0C1E7404690470138D8F83F
:10238800003084B2C5E740469847013883B20193CC
:10239800D1E700BF310A0008350A0008F0B585B05A
:1023A8000C46097802AD9DF8287085E80C0081B1CB
:1023B800064602E014F8011F59B1304695E80C00B2
:1023C8000097FFF71BFF23789842F3D0184605B013
:1023D800F0BD0023184605B0F0BD00BF7F291ED808
:1023E8003F2A1CD86BB1D3084FF0010C02F007024A
:1023F80001EBC3130CFA02F2C1180B7D1A430A75DC
:102408007047D3084FF0010C02F0070201EBC31329
:102418000CFA02FCC1180A7D22EA0C020A75704700
:102428002DE9F04F2DED068B83B01F4680460D46F3
:102438009DF8503016460193139B002BC0F2218261
:10244800129A134406EE103ADDED127AB8EEC66B16
:102458009FEDCD4BB8EEE77B9FEDCD5B27EE047B80
:1024680026EE046B87EE050B86EE05ABF7EEC08B08
:10247800B0EE680A08F014FA07EE907AB7EECAAB25
:10248800F8EE679AB0EE408AB0EE680A08F004FBEE
:1024980060EE698AB0EE4A0A08F002FAB0EE409A95
:1024A800B0EE4A0A08F0F8FA20EE690A29EE888A9E
:1024B80029EE899A70EE687AF0EE006A39EE487A69
:1024C80067EEA77AE7EE077AF4EEE67AF1EE10FA0D
:1024D80006D5139BB42B40F396804FF0010901E019
:1024E8004FF00009012478424FF0000C0095E31BDF
:1024F800214627462246A340B9F1000F6AD142423D
:1025080006EE90CACCF1000107EE102AB8EEE66A92
:1025180007EE901A06EE900AB8EEC77A139A66EE9E
:10252800084AF8EEE77AB42A27EE284AF8EEE66A6F
:1025380067EE885A74EEC43A26EEA85A26EE096A5F
:1025480066EE806A67EE897A27EE007AF5EEC03A81
:1025580040F3F280F1EE10FA00F17F8176EE473A0F
:1025680074EEC54AF5EEC03AF1EE10FAF5EEC04A3F
:10257800CCBF01220022F1EE10FA00F1778136EE8D
:10258800666A35EEC55AB5EEC06AF1EE10FAB5EED8
:10259800C05ACCBF01210021F1EE10FA00F16F8181
:1025A80077EEE66AF5EEC06AF1EE10FACCBF0127C5
:1025B800002775EEC45AF5EEC05AF1EE10FA00F194
:1025C800478177EEC77AF5EEC07AF1EE10FACCBF04
:1025D80001240024002A40F08A80002964D1BFB970
:1025E800C4BB9C4558DB0CF1010C03EB4C0E1CEBF7
:1025F800000F0EF1010E00F0C08098424FDB7346C9
:1026080000287FF779AF03B0BDEC068BBDE8F08FEB
:10261800009DA6EB0C0E00EB050ABAF17F0FDFD880
:10262800BEF13F0FDCD84FEADE0B019D0AEBCB1A57
:10263800002D00F0B1800EF0070BC2444FF0010EE0
:102648000EFA0BFE9AF814B04EEA0B0E8AF814E054
:10265800002CC6D0009DA6EB0C0EA5EB000ABAF123
:102668007F0FBED8BEF13F0FBBD84FEADE0B019DEE
:102678000AEBCB1A002D00F0AE800EF0070BC24417
:102688004FF0010E9C450EFA0BFE9AF814B04EEA74
:102698000B0E8AF814E0A6DA98429E46AFDA0130AB
:1026A8000EEB40030133ABE7009D0CEB060E00EB8D
:1026B800050ABAF17F0F92D8BEF13F0F8FD84FEAC3
:1026C800DE0B019D0AEBCB1A002D73D00EF0070B21
:1026D800C2444FF0010E0EFA0BFE9AF814B04EEAFF
:1026E8000B0E8AF814E0002F3FF47AAF90E7009DB4
:1026F8000CEB060EA5EB000ABAF17F0F3FF66DAFA3
:10270800BEF13F0F3FF669AF4FEADE0B019D0AEBC2
:10271800CB1A002D6DD00EF0070BC2444FF0010EFE
:102728000EFA0BFE9AF814B04EEA0B0E8AF814E073
:1027380000293FF454AFB7E7F1EE10FA7ED44A46C9
:1027480074EEC54AF5EEC04AF1EE10FA6CD40021D9
:1027580035EEC55AB5EEC05AF1EE10FA5AD4002734
:1027680075EEC45AF5EEC05AF1EE10FA3FF529AFEE
:102778000024002A3FF431AFB9E798428FDB0023E9
:102788003BE700BFAFF300807A008BFCFA210940D9
:102798000000000000806640C2444FF0010B0EF0BC
:1027A800070E0BFA0EFE9AF814B02BEA0E0E8AF8F2
:1027B80014E015E7C2444FF0010B0EF0070E0BFAB8
:1027C8000EFE9AF814B02BEA0E0E8AF814E0002FC9
:1027D8003FF406AF1CE7C2444FF0010B0EF0070EA2
:1027E8000BFA0EFE9AF814B02BEA0E0E8AF814E0D3
:1027F800F7E6C2444FF0010B0EF0070E0BFA0EFE7F
:102808009AF814B02BEA0E0E8AF814E000293FF467
:10281800E6AE49E777EEE66AF5EEC06AF1EE10FA41
:10282800CCBF012700279BE736EE666AB5EEC06A83
:10283800F1EE10FACCBF0121002189E776EE473A84
:10284800F5EEC03AF1EE10FACCBF0122002277E78C
:102858000124002A3FF4C1AE49E774EEC54A0122BB
:10286800F5EEC04AF1EE10FA7FF589AE35EEC55A9D
:102878000121B5EEC05AF1EE10FA7FF591AE0127AD
:1028880097E6DDE91223134406EE102A1293139BF0
:102898005B421393D8E500BF07490848084A08B5C2
:1028A800FEF76AF80749054800F074F80249064837
:1028B800FEF78EFBFAE700BF94010024A805002468
:1028C800E4050024C12100080C06002410B50B48BB
:1028D80000240B4A0B494461046207F0CBFE0A4806
:1028E8000A4B0B49064A8460036007F0C3FE044A9A
:1028F80008490948BDE8104007F0BCBEA8050024F7
:1029080000000024B521000894010024A8B00008A4
:10291800BD210008B9210008E40500240F4A01235D
:102928000F494FF0060C80F82730816040F20271A1
:1029380080F810C0A0F8251080F82B3010B4094C8E
:10294800C0E9004202F181725DF8044B0532C260B1
:1029580040F60662A0F82920704700BF0105080567
:1029680009050705000705001F2882B009D8084B8C
:1029780003EB400213F81030507843EA002002B00D
:10298800704701230C2043EA002002B0704700BFC3
:10299800D8B00008143001F027B800BF143001F097
:1029A8001FB800BF0000000030B5032491B0012516
:1029B800194900234FF44172089106A9ADF8242063
:1029C80002939FED137BCDE90A45144D044602A8F6
:1029D8008DED0C7B8DED0E7BCDE9063501F07CFD90
:1029E80040F601333025ADF80430019800F056F870
:1029F80003214FF07E53029A04F114000593CDE9A8
:102A0800035103A900F0B6FF11B030BDAFF3008049
:102A1800000000000100000004050406040204048C
:102A280030B504462DED028B83B089B3012240F204
:102A380001130092ADF80430694604F1300002F049
:102A48008BFA204600F04CF8E01C01F0E5F804F1A0
:102A5800250000F0F3FF04F1140504F1290000F04B
:102A6800EDFF2046FFF7A0FF284600F0B9FF2846F3
:102A7800B0EE408A00F0B0FFD0ED007AF8EE677A49
:102A880088EE277A84ED0E7A03B0BDEC028B30BD58
:102A980040F201130091ADF80430CDE710B584B0D1
:102AA80003460124ADF8040003A8ADF80C30ADF8D6
:102AB8000E4000F0C3FF214603A801F09BF8204612
:102AC80002F07EF9002103A801F094F8204602F0F4
:102AD80077F9214603A801F08DF804B010BD00BFB6
:102AE800F0B53F4C8BB0A06303781BB10025284696
:102AF8000BB0F0BD0022079301233A49201D616005
:102B08000321C4E902230822202306910A21C4E9EB
:102B1800042340224FF4C073089102A9C4E9062394
:102B280000224FF40063C4E908234FF480520023C5
:102B3800C4E90A2302220723CDE902230422082339
:102B4800CDE9042306F090FC0546002844D1102363
:102B580001220126002702A90190201DCDE90223A8
:102B68004FF48052CDE9046706F0A8FC642002F017
:102B7800F3FB02A94FF48052201DCDE90467022619
:102B88001027CDE9026706F099FC0322102302A959
:102B9800201DCDE9022300230422CDE904234FF4AC
:102BA800805206F08BFC40F23223042202A90193E2
:102BB8001023201DCDE90223019A012305924FF429
:102BC8008052049306F07AFC40F60601201D06F0B8
:102BD80095FC28460BB0F0BD012528460BB0F0BD8A
:102BE80018060024404100526A4A00232DE9F043A8
:102BF80015688FB00A9315B10FB0BDE8F083664B26
:102C080001210C244FF0030811600026D3F8D420CA
:102C18000327624842F48052DFF89891C3F8D42021
:102C2800D3F8D42002F480520092009AD3F8E0201E
:102C380042F01002C3F8E020D3F8E02002F01002BE
:102C48000192019AD3F8E02042F04002C3F8E02054
:102C5800D3F8E02002F040020292029AD3F8E02072
:102C680042F00802C3F8E020D3F8E02002F008029E
:102C78000392039AD3F8E02042F48072C3F8E0206C
:102C8800D3F8E02002F480720492049AD3F8E0208A
:102C980042F08002C3F8E020D3F8E02002F080027E
:102CA8000592059AD3F8E02042F02002C3F8E0200C
:102CB800D3F8E02002F020020692069AD3F8E0202A
:102CC80042F00402C3F8E0204FF68372D3F8E030F4
:102CD8000C9403F00403CDF82C8007930223079982
:102CE80008A9CDE9082303F043FB48F23712022371
:102CF80008A92B480C94CDE90823CDE90A6703F00D
:102D080037FB4CF20372022308A926480C94CDE93C
:102D18000823CDE90A6703F02BFB40F2FF62022388
:102D280008A921480C94CDE90823CDE90A6703F0E6
:102D38001FFB4FF60C72022308A91C480C94CDE91E
:102D48000823CDE90A6703F013FB4FF63F0202237D
:102D580008A917480C94CDE90823CDE90A6703F0C0
:102D680007FBD9F83800013002F0D4F9D9F8383027
:102D78000646581C02F0D6F90223089008A93046E6
:102D88000A950993CDE90B8403F0F2FA0FB0BDE878
:102D9800F08300BF100600240044025800100258B7
:102DA80000180258000C025800200258001C025853
:102DB80000140258180600242DE9F04FDFF810849B
:102DC80006460D46144608F114002DED028B89B015
:102DD80000AF01F079FCD8F8143073B3D8F8183084
:102DE800D8F80490002B43690BBF4FF0080A4FF046
:102DF800100A4FF0020B4FF0040BB9F1000F2AD064
:102E0800A200EA46012B02F1070222F00702ADEB0D
:102E1800020D6846ADEB020D694600F03F81022BBA
:102E280000F0D680002B6FD02246C847D5462437FD
:102E3800BD46BDEC028BBDE8F08FD8F81830002BEA
:102E4800F5D0D8F804904FF0080A4FF0020B436908
:102E5800B9F1000FD4D1FB61D8F80030BB61002B69
:102E6800E5D0D54801F078FC6B46BBF1020F7861DC
:102E780008EE103AFB6900F083816A465146A2EBDE
:102E8800C40295466200EA46B2FBFBF2AAEBC40014
:102E980085460AEB8200EE46F861ADEB010DF86954
:102EA8000EEB820CC7F810C0EC46ADEB010D00EB41
:102EB8008201CCF80400CCF8081001EB82013869D3
:102EC800E946CCF80C1000EB8201CCF800A001EB2D
:102ED8008202C9E900E0C9E90212012B00F064830B
:102EE800022B00F06C82002B00F0808162084946BA
:102EF8006046BB69984718EE103A24379D46BD4690
:102F0800BDEC028BBDE8F08F002C8DD01A46D8EDB1
:102F18000B6A9FEDB27A8446331D36F922E00CF134
:102F2800080C07EE90EA33F922E00232F8EEE77A6D
:102F3800944267EE877A67EEA67A4CED027A07EE3E
:102F480090EAF8EEE77A67EE877A67EEA67A4CEDB4
:102F5800017AE2D8F9612246C847984ED8ED046A4A
:102F68000020F9692B1D9FED9E7A9FED9E6ADFED8B
:102F78009E5A22E0F4EEC67AF1EE10FAC0F2C88446
:102F880047F6FE72D1ED017A45F8202066EEA77A61
:102F9800F4EEC77AF1EE10FA40F2F080F4EEC67A59
:102FA800F1EE10FAC0F2D58447F6FE7243F82020FD
:102FB8000230083184427FF639AFD1ED007A66EEEF
:102FC800A77AF4EEC77AF1EE10FAD3D83246D9E7E9
:102FD800002C3FF429AFD8ED0B6A84469FED787A30
:102FE8000022331D8E4656F822100CF1080C07EE0D
:102FF800901A53F822100232F8EEE77A944267EEFC
:10300800877A67EEA67A4CED027A07EE901AF8EE08
:10301800E77A67EE877A67EEA67A4CED017AE2D80E
:1030280071462246C7F81CE0C847664ED8ED046AC8
:103038000020F9692B1D9FED6A7A9FED6A6ADFF817
:1030480094C120E0F4EEC67AF1EE10FAC0F2798469
:103058003246D1ED017A45F8202066EEA77AF4EEE3
:10306800C77AF1EE10FA40F28780F4EEC67AF1EEF4
:1030780010FAC0F25E84324643F82020023008314C
:1030880084427FF6D3AED1ED007A66EEA77AF4EEED
:10309800C77AF1EE10FAD5D86246DAE7002C3FF489
:1030A800C3AED8ED0B6A86469FED477A4FF0000C09
:1030B800331D56F82C200EF1080E82F40002A2F5FA
:1030C800000207EE902A53F82C200CF1020CF8EEBF
:1030D800E77A82F400026445A2F5000267EE877A77
:1030E80067EEA67A4EED027A07EE902AF8EEE77AB6
:1030F80067EE877A67EEA67A4EED017AD9D8F9613C
:103108002246C847314ED8ED046A0020F9692B1DC4
:103118009FED337A9FED336ADFF8BCC01FE0F4EE11
:10312800C67AF1EE10FAC0F2FC833246D1ED017A8C
:1031380045F8202066EEA77AF4EEC77AF1EE10FA89
:1031480018D9F4EEC67AF1EE10FAC0F2DA833246F4
:1031580043F820200230083184427FF667AED1ED73
:10316800007A66EEA77AF4EEC77AF1EE10FAD6D8AE
:103178006246DBE76246EBE762467DE7324615E7E3
:10318800A100D6466208073121F00701ADEB010D19
:10319800EA46ADEB010D6946ADEB0E0D0AEB820078
:1031A800EC46ADEB0E0D01EB8202F861E946CCE985
:1031B80000A0C9E9001290E66C0600240280FFFF17
:1031C800000000300082FF7F0000003482FF7F0093
:1031D80054060024007E00807E0080FF0000003836
:1031E80004FF7FBF04FF7F3F00FEFF46002C00F076
:1031F800C982BBF1020FD8F8202000F0FA82796961
:10320800C7F8049002EB810E5FED0C5A8A00DCF8D7
:1032180008100EF104007A611A46DCF80C303B61A4
:10322800331DD7F810903D61FD69C7E902CB8C4684
:10323800834636F92210D8ED0B7A06EE101A33F9C8
:10324800221006EE901A3EF92210B8EEC66A07EE72
:10325800101AF8EEE66A3BF92210B8EEC77A26EEA5
:10326800256A66EEA56A27EE257A26EE276A66EEB7
:10327800A76A27EE277A07EE901A51080232F8EE6D
:10328800E77A0AEB8100944280ED006A05EB810041
:1032980067EEA57AC0ED006A0CEB810009EB8101AD
:1032A80080ED007A98ED0B7A67EE877AC1ED007AA7
:1032B800BFD8D7F804903D69D7E902CB60466208C9
:1032C800BB6949469847D8F828307A69D8ED046A26
:1032D8001A441FED3D7A1FED3D6A2B1D904602F101
:1032E800040A5FED3F5A0022A84ED9E900EC51E0EC
:1032F800F4EEC67AF1EE10FAC0F2C78247F6FE7015
:1033080045F822000CEB0100D0ED007A66EEA77AB2
:10331800F4EEC77AF1EE10FA4BD9F4EEC67AF1EE74
:1033280010FAC0F2BA8247F6FE70BBF1020F43F8FA
:1033380022002BD0D9F808000844D0ED007A66EEB8
:10334800A77AF4EEC77AF1EE10FA36D9F4EEC67A17
:10335800F1EE10FAC0F2CD8247F6FE7048F822006E
:10336800D9F80C000144D1ED007A66EEA77AF4EEA4
:10337800C77AF1EE10FA1ED9F4EEC67AF1EE10FA19
:10338800C0F2AF8247F6FE714AF822100232944228
:103398007FF6B1AD51080EEB81008900D0ED007ABF
:1033A80066EEA77AF4EEC77AF1EE10FAA0D83046A6
:1033B800A6E73046B9E73146E6E73046CEE7002CC7
:1033C80000F0E081BBF1020FD8F8203000F0E18175
:1033D8007A69DCF8081003EB820EC7F804909300B2
:1033E800DFED6B5A0EF1040000227B61DCF80C3033
:1033F8003B61331DD7F810903D61FD69C7E902CBE9
:103408008C46834656F82210D8ED0B7A07EE101A30
:1034180053F82210B8EEC76A07EE101A5EF82210A9
:10342800F8EEC76A07EE101A26EE256A5BF8221036
:10343800B8EEC77A66EEA56A26EE276A27EE257AE1
:1034480066EEA76A27EE277A07EE901A510802322D
:10345800F8EEE77A0AEB8100944280ED006A05EB0A
:10346800810067EEA57AC0ED006A0CEB810009EBDC
:10347800810180ED007A98ED0B7A67EE877AC1EDCD
:10348800007ABFD8D7F804903D69D7E902CB6046E7
:103498006208BB6949469847D8F828307A69D8ED58
:1034A800046A1A449FED3E7A9FED3E6A131D9246C8
:1034B800DFF8E4C00022FB612B1D364ED9E9008EEF
:1034C8004EE0F4EEC67AF1EE10FAC0F2FC81304616
:1034D80045F822000EEB0100D0ED007A66EEA77ADF
:1034E800F4EEC77AF1EE10FA49D9F4EEC67AF1EEA5
:1034F80010FAC0F2EF813046BBF1020F43F8220008
:103508002AD0D9F808000844D0ED007A66EEA77AE8
:10351800F4EEC77AF1EE10FA35D9F4EEC67AF1EE88
:1035280010FAC0F2C98130464AF82200D9F80C00D6
:103538000144D1ED007A66EEA77AF4EEC77AF1EE8F
:1035480010FA1ED9F4EEC67AF1EE10FAC0F2AD8187
:103558003146F86940F82210023294427FF6CBAC2B
:10356800510808EB81008900D0ED007A66EEA77A51
:10357800F4EEC77AF1EE10FAA3D86046A8E76046E1
:10358800BAE76146E5E76046CEE700BF0280FFFF85
:10359800000000300082FF7F007E008000000034C1
:1035A80004FF7FBF04FF7F3F002C00F0EB807A69A7
:1035B8000021D8F82030C7F8109003EB820ED7F816
:1035C8001C909300FD610EF104021FED0C6A7B61F3
:1035D800331D154656F821204808D8ED0B6ABBF173
:1035E800020F82F40002A2F5000207EE902A53F8B7
:1035F800212082F40002B8EEE77AA2F5000227EE55
:10360800067A07EE902A0AEB8002F8EEE77A27EEB0
:10361800267A67EE867A82ED007A09EB80024FEA15
:10362800800067EEA67AC2ED007A27D05EF82120E6
:1036380082F40002A2F5000207EE902A55F8212034
:1036480082F40002B8EEE77AA2F5000227EE067AC5
:1036580007EE902ADCF80820F8EEE77A024427EE15
:10366800267A67EE867A82ED007A98ED0B7ADCF896
:103678000C2067EE877A0244C2ED007A02318C4250
:10368800A8D8D7F8109060466208BB694946FD691A
:103698009847D8F828307A69D8ED046A1A441FED9B
:1036A800407A1FED406A131D9246DFF8C4C200221B
:1036B800FB612B1DAB4ED9E9008E4EE0F4EEC67AC5
:1036C800F1EE10FAC0F2C580304645F822000EEB44
:1036D8000100D0ED007A66EEA77AF4EEC77AF1EE33
:1036E80010FA49D9F4EEC67AF1EE10FAC0F2BF80AA
:1036F8003046BBF1020F43F822002AD0D9F808005F
:103708000844D0ED007A66EEA77AF4EEC77AF1EEB7
:1037180010FA35D9F4EEC67AF1EE10FAC0F2AE809E
:1037280030464AF82200D9F80C000144D1ED007A5D
:1037380066EEA77AF4EEC77AF1EE10FA1ED9F4EE27
:10374800C67AF1EE10FAC0F28B803146F86940F87B
:103758002210023294427FF6CEAB510808EB81006A
:103768008900D0ED007A66EEA77AF4EEC77AF1EE1A
:1037780010FAA3D86046A8E76046BAE76146E5E7CD
:103788006046CEE7224649466046BB699847FFF740
:10379800B2BBC7F810B0002298ED0B6A331DDFEDFD
:1037A800726AD7F81CB0786956F8221007EE901A9A
:1037B80053F82210B8EEE77A07EE901A5108023251
:1037C800F8EEE77A27EE267A0AEB810E94420BEBA5
:1037D800810167EEA67A27EE067A67EE867A8EED85
:1037E800007AC1ED007ADFD88300D7F810B07B618A
:1037F8004DE61A46C7F810B098ED0B6A331DDFED99
:103808005B6AD7F81CB0786936F9221007EE101AEF
:1038180033F9221007EE901AB8EEC77A510802322F
:10382800F8EEE77A27EE267A0AEB810E94420BEB44
:10383800810167EEA67A27EE067A67EE867A8EED24
:10384800007AC1ED007ADFD88300D7F810B07B6129
:1038580034E5F0EE675AFEEEE45A15EE900A34E7C6
:10386800F0EE675AFEEEE45A15EE901A6EE7F0EEA7
:10387800675AFEEEE45A15EE900A3AE7F0EE675AF8
:10388800FEEEE45A15EE900A4BE767EEA57AFDEED8
:10389800E77A17EE900A00B232E567EEA57AFDEEF8
:1038A800E77A17EE900A00B23FE5F0EE675AFEEEAF
:1038B800E05A15EE901A4CE6F0EE675AFEEEE05A22
:1038C80015EE900A30E6F0EE675AFEEEE05A15EE75
:1038D800900AFDE5F0EE675AFEEEE05A15EE900A02
:1038E8000AE667EEA57AFDEEE77A17EE901A09B2B6
:1038F8004AE567EEA57AFDEEE77A17EE900A00B280
:103908002CE5F0EE675AFEEEE45A15EE902A1FE415
:1039180067EEA57AFDEEE77A17EE902A12B2FFF766
:1039280031BBF0EE675AFEEEE45A15EE902AFFF727
:10393800FDBBF0EE675AFEEEE05A15EE902AFFF74F
:103948009BBBF0EE675AFEEEE05A15EE902AFFF7A1
:1039580080BB67EEA57AFDEEE77A17EE902A12B2E1
:10396800FFF724BB82FF7F00000000300000003812
:103978007E0080FF30B5154C154685B0046004F113
:10398800080C01AB07C98CE80700D4ED047AF5EE02
:10399800C07A83E80700F1EE10FA14DDF7EE006A4A
:1039A80086EEA77A84ED0B7A6DB1204640F8145F55
:1039B80000F08AFE064903690020064AE161626256
:1039C800E36005B030BD012005B030BD54060024C9
:1039D800002000300000003000680830704700BF49
:1039E8000068143000F0A6BE30B5046883B00D46F8
:1039F800A3694BB1A3680020A26A216A9B000090CA
:103A080004F1180000F062FEA3680748626A9B0090
:103A1800E169009004F1140000F058FE0020C4E9A8
:103A2800005003B030BD00BFC12D0008024B00227A
:103A3800C3E90522704700BF5406002430B58378D7
:103A48008FB00446022B37D0032B33D0012B31D053
:103A580000230A93E378012B2AD0022B28D00023D5
:103A68000B93002320460C9301F054FB0546204697
:103A780001F058FB23780990082B13D8DFE803F0EE
:103A88001F3245586B7E91A40500594BD3F8E020AE
:103A980042F48072C3F8E020D3F8E03003F4807376
:103AA8000893089B09A9284602F062FC0FB030BDB4
:103AB8000B93D6E70A93CDE711230A93CAE74C4B39
:103AC80009A92846D3F8E02042F00102C3F8E02013
:103AD800D3F8E03003F001030093009B02F048FCA8
:103AE8000FB030BD424B09A92846D3F8E02042F078
:103AF8000202C3F8E020D3F8E03003F00203019398
:103B0800019B02F035FC0FB030BD394B09A928469E
:103B1800D3F8E02042F00402C3F8E020D3F8E03004
:103B280003F004030293029B02F022FC0FB030BDA5
:103B38002F4B09A92846D3F8E02042F00802C3F821
:103B4800E020D3F8E03003F008030393039B02F06E
:103B58000FFC0FB030BD264B09A92846D3F8E0204A
:103B680042F01002C3F8E020D3F8E03003F010036D
:103B78000493049B02F0FCFB0FB030BD1C4B09A959
:103B88002846D3F8E02042F02002C3F8E020D3F81A
:103B9800E03003F020030593059B02F0E9FB0FB02A
:103BA80030BD134B09A92846D3F8E02042F0400263
:103BB800C3F8E020D3F8E03003F040030693069BF7
:103BC80002F0D6FB0FB030BD094B09A92846D3F83F
:103BD800E02042F08002C3F8E020D3F8E03003F0A0
:103BE80080030793079B02F0C3FB0FB030BD00BFF3
:103BF8000044025870B506460D4601F08BFA04469B
:103C0800304601F08FFA2A1E0146204618BF0122CD
:103C1800BDE8704002F0B4BD2DE9F04FC84C034632
:103C28002DED048B2046ABB023655D781E7802F03D
:103C3800FFFEE0B9012D4FF00107C24A14BF4FF44F
:103C480080134FF40003E0602260C4E9017793FA1F
:103C5800A3F3B3FA83F34FF48078013BC4F81480DC
:103C6800C4E907002046236102F076FE28B101204E
:103C78002BB0BDEC048BBDE8F08F662313901B902E
:103C880041F288320EA90E93CDE91480CDE91600D1
:103C9800CDE91900204602F0E9FE0028E7D1992372
:103CA80041F288320EA920460E9302F0DFFE00286A
:103CB800DDD14FF0050A4FF08079249041F2883326
:103CC800219008AA29901CA9CDF870A0CDF894904D
:103CD8009FED917B9FED929B9FED938BCDE9228089
:103CE800CDE9270020468DED087B8DED0A9B8DEDF3
:103CF8000C8B03F027F80028B9D11897ADF8080005
:103D080013901B90CDE91480CDE91609CDE919006F
:103D1800002D00F0BA80F023ADF80830C02341F23E
:103D280088320EA986480E9302F0A0FE00289ED184
:103D380041F28832824802A902F002FF002896D197
:103D48004FF480744FF005084FF080754FF0000A6B
:103D58004FF0010B2190299041F2883308AA1CA941
:103D68002294CDF8708025959FED6D9B9FED6E8B0D
:103D7800CDE92300CDE927007148CDE908AB8DEDE9
:103D88000A9B8DED0C8B02F0DDFF00287FF46FAFEE
:103D9800012706238DF8070041F2883213901CA9E9
:103DA8001B90219029900E971C93CDE91440CDE9E2
:103DB8001605CDE91900CDE92240CDE92400CDE969
:103DC80027005F4802F052FE00287FF450AF41F20E
:103DD800883308AA1CA95A48CDF8708025959FED0C
:103DE800547B8DED0A9B8DED0C8B8DED087B02F0DD
:103DF800A9FF00287FF43BAF41F288320EA9504852
:103E080002F034FE00287FF432AF402341F28832BA
:103E18000DF107014A488DF8073002F091FE00289D
:103E28007FF425AF02AA41F288330EA94448CDF8A1
:103E3800388017959FED407B8DED049B8DED068BAB
:103E48008DED027B02F07EFF00287FF410AF2190F9
:103E580008AA299041F288331CA92294CDF87080D1
:103E68002595CDE92300CDE927003548CDE908ABF4
:103E78008DED0A9B8DED0C8B02F064FF00287FF41A
:103E8800F6AE002E60D00020F2E6612341F28832BF
:103E98000EA920460E9302F0E9FD00287FF4E7AE54
:103EA80041F2883202A9204602F0C8FE00287FF4B9
:103EB800DEAEBDF8083041F2883221901CA923F00B
:103EC8007803299043F04003ADF808300623CDE984
:103ED8002280CDE92400CDE9270020461C9302F07A
:103EE800C5FD00287FF4C3AE20460225022441F216
:103EF800883308AA1CA9CDF870A0CDF894908DED50
:103F08000A9B8DED0C8BCDE9084502F01BFF0028BC
:103F18003FF404AFABE600BF000000000100000062
:103F28001000000001000000000000000000400038
:103F380002000000020000004000000040000000F5
:103F48008406002400500052EB204FF480740023B4
:103F580000251C904FF4005022944FF440641F90A9
:103F6800A02020930EAA23944FF4404427931CA921
:103F780028934FF080531E90062024940024299300
:103F88004FF04073219005482593CDE90E4502F086
:103F980051FF003818BF01206AE600BF84060024DC
:103FA8003E4B02682DE9F0479A428CB04FF000056D
:103FB800CDE90755CDE909550B9502D00CB0BDE800
:103FC800F087374B0226374905AFD3F8D420B146DE
:103FD800DFF8D4A04FF0030842F48042C3F8D4209D
:103FE800D3F8D42002F480420092009AD3F8E0205B
:103FF80042F04002C3F8E020D3F8E02002F040028B
:104008000192019AD3F8E02042F02002C3F8E020A0
:10401800D3F8E02002F020020292029AD3F8E020BE
:1040280042F01002C3F8E020D3F8E02002F01002BA
:104038000392039AD3F8E02042F00202C3F8E0208A
:10404800D3F8E03003F002030493049B03C90590FE
:10405800ADF81810DAF8504034440236204601F022
:1040680059F8034620461C4601F05CF817F8013B56
:1040780007A907902046CDE90895CDE90A8302F003
:1040880077F90E2EE6D100225C20114601F08EF958
:104098005C2001F0C9F90CB0BDE8F087005000526F
:1040A8000044025818B1000884060024124B026824
:1040B8009A4200D07047114AD2F8D43070B523F430
:1040C800804302250E4EC2F8D430346D2C4402359C
:1040D800204601F01FF8034620461C4601F022F84E
:1040E8000146204602F084FA0E2DEED15C20BDE890
:1040F800704001F0A7B900BF0050005200440258B8
:1041080084060024014802F021BF00BF8406002471
:1041180038B5036871B9026A00F1280500F5AC7476
:10412800012A0CBF002140218BBB1D4B5722C0F830
:1041380058310DE0426A00F1C00500F5E874012A23
:104148000CBF00214021EBB1164B5A22C0F8D031E8
:1041580000232046C4E901214FF480524FF48061C6
:10416800636262614FF48042C4E903314FF48073A3
:10417800C4E906234FF40033236201F0C9FA58B1A9
:10418800FFBEFEE7084B5822C0F8D031E0E7074BE6
:104198005922C0F85831DBE7C5E92044A56338BD8A
:1041A80010000240700002402800024058000240FF
:1041B8002DE9F043821D05468BB0031D05F10A0168
:1041C8000830CDE9052305F10C02AB69CDE90701FB
:1041D8000992002B3DD0EB69B3FA83F84FEA5818DF
:1041E8000123022205AE0AAF4FF006090393CDE979
:1041F800012356F8044B2B792278934216D02B686A
:10420800F3B1012B02D1F2B10A230493204600F046
:1042180089FF03462046009300F07CFF694602F0C0
:10422800A7F8BE42E5D10BB0BDE8F08369796378A1
:104238009942E4D1B8F1000FF3D02B68002BE0D1FC
:10424800CDF81090E2E76378022B14BF0A23082305
:10425800DBE74FF00108C3E7534A0368934230B5E0
:1042680005468BB055D02032934252D04F4A9342E4
:1042780004D02032934201D00BB030BD4C4C4D4895
:10428800D4F8E03043F00103C4F8E030D4F8E0306B
:1042980003F001030593059BD4F8E03043F00803CD
:1042A800C4F8E030D4F8E03003F008030693069B26
:1042B800D4F8E03043F04003C4F8E030D4F8E030FC
:1042C80003F040030793079BD4F8F03043F400034E
:1042D800C4F8F030D4F8F03003F400030893089BD6
:1042E800FFF766FFD4F8D830296843F001032F4A56
:1042F8003048C4F8D830891AD4F8D83018BF01210A
:1043080003F001030993099B0BB0BDE83040FFF7A8
:10431800FFBE274C2848D4F8E03043F00103C4F826
:10432800E030D4F8E03003F001030093009BD4F8A8
:10433800E03043F01003C4F8E030D4F8E03003F084
:1043480010030193019BD4F8E03043F04003C4F814
:10435800E030D4F8E03003F040030293029BD4F835
:10436800F03043F48003C4F8F030D4F8F03003F4AC
:1043780080030393039BFFF71BFFD4F8D830296809
:1043880043F00103084A0C48C4F8D830891AD4F815
:10439800D83018BF012103F001030493049B0BB02C
:1043A800BDE83040FFF7B4BE04580140045C01404A
:1043B8000044025834090024D8060024014801F0BA
:1043C80085BC00BF30080024014801F07FBC00BF55
:1043D800A8080024014801F079BC00BF8C0A002419
:1043E800014801F073BC00BF040B00241A4A03689B
:1043F800934210B40BD02032934208D0174A93420C
:1044080016D02032934213D05DF8044B7047144BFA
:104418000022D3F85442C3F85822002CF4D0D3F821
:104428004802D3E9931223465DF8044B5208184713
:104438000B4B0022D3F8B044C3F8B424002CE3D0CB
:10444800D3F8AC24D3F8A814D3F8A404520823460C
:104458005DF8044B184700BF04580140045C014054
:10446800D8060024184A0368934210B40BD02032AF
:10447800934208D0154A934217D02032934214D061
:104488005DF8044B7047124BD3E994245208C3F8E3
:104498005822002CF4D0D3E99201234601EB820183
:1044A80000EB82005DF8044B1847094BD3F8AC24A5
:1044B800D3F8B0445208C3F8B424002CE0D0D3F8A1
:1044C800A814D3F8A404E8E704580140045C0140A8
:1044D800D8060024000000002DE9F04F0C684FF4C6
:1044E8001776754F87B004FB06F6012C07EB060A12
:1044F800C0F800A000F3A0800D468E464FF00008DB
:10450800D44669A3D3E9002369A1D1E90001CDE923
:10451800022306ABCAF8508203EB8403CDE90401F9
:1045280053F810BC53F8083CCAE992880193BEE8D6
:104538000F00ACE80F00BEE80F00ACE80F00019BCD
:104548009EE80300CAF828B0CAF8C0308CE8030017
:104558002B69042B0CD8DFE803F0737D87910300E7
:104568004FF41773554A03FB04739A64C3F8E020A9
:10457800AA692B6A002A43D0002B4FF4177308BF8F
:10458800022203FB047318BF0322DA6201221A63B2
:10459800EA696B6A002A40D1191E4FF4177318BFD5
:1045A800012103FB0473C3E931126B69022B05D89F
:1045B800434A12F80380434A52F823904FF4177382
:1045C80006F128004246494603FB04740023384498
:1045D80063646363E365C4F8DC30C4F8CC30C4F8C2
:1045E800F430C4E90F33C4E91533C4E93533C4E9F9
:1045F8003B33022304F0D6FC002849D0FFBEFEE777
:10460800191E4FF4177318BF012103FB0473C3E984
:104618000B12EA696B6A002ABED0002B4FF417739D
:1046280008BF022203FB047318BF0322C3F8C42087
:104638000122C3F8C820B8E7012007B0BDE8F08F11
:104648004FF417734FF4FA5203FB04739A64C3F8D8
:10465800E0208DE74FF417734FF47A5203FB04738D
:104668009A64C3F8E02083E74FF417734FF4FA42D3
:1046780003FB04739A64C3F8E02079E74FF41773D7
:104688004BF6803203FB04739A64C3F8E0206FE7AB
:1046980006F1C000022342464946384404F082FC31
:1046A8000028CAD0FFBEFEE704580140045C014060
:1046B80024580140245C0140D806002400770100FA
:1046C80020B1000824B100080068704770B504687C
:1046D80082B015460E46C4F85032C4E99212069AC2
:1046E800C4F85422226A012A9AB211D0294604F148
:1046F8002800019204F012FD636A019A012B10D080
:10470800294604F1C00004F009FD002002B070BD84
:1047180004F12800019204F093FD636A019A012BC9
:10472800EED1314604F1C00004F08AFD002002B049
:1047380070BD00BF03681B69042B05D8044A02EB4F
:10474800830393ED000A70479FED020A704700BF8C
:1047580030B1000800803B470368D3F8580270471F
:104768002DE9F043002387B002220446056904932B
:10477800CDE90223D0E902128E00FAB1022D7AD0D7
:104788002178B5FA85F54FF00108276A0B294FEA19
:10479800551521D1A2780B2A02D0B8F1000F38D1D3
:1047A80023790B2B01D0002D6CD1A37917B10B2BDA
:1047B80040F09980002007B0BDE8F08335F002038F
:1047C8002178276A0CBF4FF001084FF00008023D1E
:1047D80018BF01250B29DDD07D4B94F801C053F893
:1047E800262010780B2802D0884200F0AD80D378BC
:1047F800D01C994202D10B2B40F0BD809379901DBB
:104808008B4202D10B2B40F0BC80012007B0BDE8E1
:10481800F083711C6E4BE07853F8213019780B291E
:1048280002D08A4200F0B580D97803F1030C0B2935
:1048380002D08A4200F0BB80997903F1060C0B295B
:10484800E3D08A42E1D1DB798342DED1634604F1C9
:1048580002099B784846059300F05CFC8046484670
:1048680000F060FC01A90190404601F081FD237928
:104878000B2B98D199E70178076A0B2940F08680BD
:1048880001258DE7B11C524A607952F82120117830
:104898000B2902D08B4200F08180D178D51C0B29DE
:1048A80002D08B4200F08D809179951D8B42ACD15E
:1048B8000B29AAD0D3798342A7D12A46251D9378FC
:1048C8002846059300F026FC034628461D4600F0BE
:1048D80029FC01A90190284601F04AFDA379002F7F
:1048E8007FF465AF66E7F11C394AE07952F8212078
:1048F80011780B2901D08B425FD0D178D51C0B29B8
:1049080001D08B424FD09179951D8B427FF47DAFBA
:104918000B293FF47AAFD37983427FF476AF2A46E6
:10492800A51D93782846059300F0F4FB0446284615
:1049380000F0F8FB034601A92046019301F018FD99
:10494800002007B0BDE8F083537863457FF44FAF8C
:1049580093782046059300F0DDFB8146204600F061
:10496800E1FB01A90190484601F002FDA2780B2A5B
:104978007FF413AF14E7137963457FF43FAF024622
:10498800E6E7D37963457FF440AFF8E79846012519
:1049980022E7597881427FF447AF58E7517881423E
:1049A8007FF47BAF8AE711798142ACD1B7E71979F7
:1049B80081427FF441AF634649E7517881429CD1F7
:1049C800AEE7117981427FF46FAF2A4676E700BFE0
:1049D8006CB10008504A0368934200F08F80A2F53A
:1049E8007842934200F08C8002F58062934200F096
:1049F800898002F57842934200F0868002F5E05201
:104A0800934200F08380454A934240F08180052319
:104A1800B021434A01FB03F310B5D418D05C86B02B
:104A280000F088FBA07800F085FB207900F082FB7D
:104A3800A07900F07FFBA368052B11D8DFE803F00D
:104A4800182634425003374BD3F8F42042F02002A2
:104A5800C3F8F420D3F8F43003F020030593059B42
:104A68002046FFF77DFE012800D1FFBE06B010BD2D
:104A78002C4BD3F8F02042F48052C3F8F020D3F83E
:104A8800F03003F480530093009BE9E7254BD3F8FB
:104A9800E82042F48042C3F8E820D3F8E83003F471
:104AA80080430193019BDBE71E4BD3F8E82042F4D7
:104AB8000042C3F8E820D3F8E83003F40043029337
:104AC800029BCDE7174BD3F8F02042F40052C3F80D
:104AD800F020D3F8F03003F400530393039BBFE7AF
:104AE800104BD3F8F02042F48012C3F8F020D3F82A
:104AF800F03003F480130493049BB1E7002387E7A5
:104B0800012385E7022383E7032381E704237FE763
:104B180000231B78FFDE00BF00300140001400585E
:104B2800900B0024004402582DE9F0418F68B0240E
:104B38003B4E8C4607FB04F4052F06EB0405056085
:104B4800AE46BCE80F00AEE80F00BCE80F00AEE8C8
:104B58000F009CE803008EE803005BD8EB68002B8D
:104B68005BD0012B56D10021B02303FB07631A69E0
:104B7800032A4FD8D3F814C0ACF104001C2849D834
:104B88009B691BB1012B45D14FF00073B02000FB8E
:104B98000760C06918B101283CD14FF08070B0257A
:104BA80005FB0765D5F820E0BEF1020F32D8D5F82D
:104BB8002480B8F1070F2DD85204E962C5E90E30F8
:104BC8000CF1FF332A6304F128006B634FEA087382
:104BD80030446B640023C5E91233C5E91433C5E9D1
:104BE8001833C5E91A33C5E91C33C5E91E33C5F8BE
:104BF80080300C4B53F82E200B4B2A6453F8273087
:104C0800AB624FF08043EB6504F0ECFC18B1FFBEDB
:104C1800012000E00120BDE8F0814FF48001A3E706
:104C2800900B00245CB1000844B10008006892B2FF
:104C380008B5283004F084FD003818BF012008BDED
:104C4800424B43481A8819689B7830B4C280037273
:104C58004048414CC2800372080CE2802372A4F8D9
:104C6800032063712180A0703C4C3D4DE28023728B
:104C7800A4F8032063713B4CEA80E28023723A4C2B
:104C88002B72E2802372A4F803206371374CE28010
:104C98002372374CE2802372364CA4F803206371E8
:104CA800E2802372344C2180A070A4F80320637141
:104CB800E2802372314C2180A070A4F80320637134
:104CC800E28023722E4C2180A070A4F80320637127
:104CD800E28023722B4C2180A070A4F8032063711A
:104CE800E2802372284C2180A070A4F8032063710D
:104CF800E2802372254C2180A070E2802372A4F800
:104D080003206371224C2180A070E2802372A4F8F2
:104D1800032063711F4C21801F49A070E2801F4847
:104D28002372A1F803204B71CA800B72A4F80320E8
:104D38001B4963711B4CC280E28023720372A1F885
:104D480003204B71CA800B7230BC704768B10008F1
:104D58004000002404000024C80F00245800002448
:104D68004C00002464000024880000247000002403
:104D78007C0000241C000024EC0F0024D40F002425
:104D8800E00F0024B00F002410100024F80F0024B6
:104D980004100024BC0F0024AC000024A000002450
:104DA8002800002494000024704700BF08B500F0D4
:104DB800C1FABDE8084000F0C1BB00BF704700BFA2
:104DC80000F0CABA2DE9F041CEB004464C220021C9
:104DD8000AA806F06FF82022002102A806F06AF857
:104DE800BC2200211EA806F065F8022001F0CCFCC8
:104DF8002368012B4FF0000354D0534A0225019336
:104E0800C820D16A514B21F00101D162D26A02F067
:104E1800010201929A6942F440429A619B6903F443
:104E280040430193019B494A93699B04FCD5484937
:104E38000224002201268B6A04274FF0080823F079
:104E4800030323438B62052316900AA818934FF493
:104E580080331096179419941597CDF86880CDE98A
:104E68001B222122CDE91344CDE90A2302F076F969
:104E780000B1FEE73F220323294602A8CDE9022319
:104E880000220823CDE9042340224023CDE906234C
:104E980040234FF48062CDE9082302F08DFC0346DD
:104EA800B8B1FEE7294A04250093F0209169264B02
:104EB80041F440419161926902F440420092DA6AF9
:104EC80042F00102DA62DB6A03F001030093009BFF
:104ED800A9E720224FF4805125934FF440152B92D7
:104EE80080222D931EA83093269135914FF480711E
:104EF800249234920C223394439140F22711209249
:104F08001022CDF884802A971F96CDE92E34CDE95A
:104F18003B334FF48033CDE9224631930024469346
:104F28000623CDE93E4527934FF48063094C2C9323
:104F38001E94CDE9281202F04DFE00B1FEE701F003
:104F480049FC4EB0BDE8F081000400580048025802
:104F5800004402580F130F032DE9F04104460D4693
:104F680084B001264FF480774FF00008D1E90001A2
:104F780084E8030000F0AEF92046FFF723FF00F0B5
:104F88008BFA4FF040536846ADF800600193364BFA
:104F98000397029300F09EFA4FF0404319226846A7
:104FA8008DF80F6001938DF80820ADF80D708DF81D
:104FB80001608DF80A8000F08DFA042000F07AFA7A
:104FC80004F03AFF04F0F2FD2B791BBB6B799BB11F
:104FD800BFF34F8FBFF36F8F244B0022C3F85022CB
:104FE800BFF34F8FBFF36F8F5A6942F400325A6193
:104FF800BFF34F8FBFF36F8F0022002369461C4811
:10500800CDE9002304F0ACFE194804F00BFF04B00E
:10501800BDE8F081154CC4F88480BFF34F8FD4F8F5
:10502800803043F6E071C3F3C906C3F34E334FEA49
:10503800431C0CEA0100334640EA8372013BC4F882
:1050480060225A1CF8D1ACF1200C1CF1200FF0D1D1
:10505800BFF34F8F636943F480336361BFF34F8FAE
:10506800BFF36F8FB2E700BF0E00010300ED00E051
:105078001C10002403480023034A0449036005F078
:10508800F9BA00BF1C10002400000024B14D00082C
:1050980010B41A4C00221A4BD4F88810194841F45D
:1050A8007001C4F888101968174C41F001011960A3
:1050B8001A6119680840154918609A61DA611A621C
:1050C8009A62DA621A635A639A63DA631A645A64F0
:1050D800186820F4802018601A6623681940B1F116
:1050E800005F03D20A4B0122C3F80821034B4FF09B
:1050F80000625DF8044B9A60704700BF00ED00E065
:10510800004402587FEDF6EA0010005C0000FFFF43
:1051180000800051024B027853F82200704700BF0C
:10512800FCB10008024B427833F81200704700BF08
:10513800DCB100088CB00A2814D8DFE800F0152389
:10514800313F4D5B6977859306004D4BD3F8E020DE
:1051580042F48062C3F8E020D3F8E03003F48063BF
:105168000B930B9B0CB07047454BD3F8E02042F0F3
:105178000102C3F8E020D3F8E03003F00103019303
:10518800019BEFE73E4BD3F8E02042F00202C3F860
:10519800E020D3F8E03003F002030293029BE1E73A
:1051A800374BD3F8E02042F00402C3F8E020D3F8EC
:1051B800E03003F004030393039BD3E7304BD3F8A9
:1051C800E02042F00802C3F8E020D3F8E03003F012
:1051D80008030493049BC5E7294BD3F8E02042F069
:1051E8001002C3F8E020D3F8E03003F01003059371
:1051F800059BB7E7224BD3F8E02042F02002C3F822
:10520800E020D3F8E03003F020030693069BA9E7DB
:105218001B4BD3F8E02042F04002C3F8E020D3F85B
:10522800E03003F040030793079B9BE7144BD3F848
:10523800E02042F08002C3F8E020D3F8E03003F029
:1052480080030893089B8DE70D4BD3F8E02042F4C8
:105258008072C3F8E020D3F8E03003F48073099338
:10526800099B7FE7064BD3F8E02042F40072C3F8AD
:10527800E020D3F8E03003F400730A930A9B71E747
:1052880000440258704700BF0F4B1B780BB9012030
:10529800704710B504464FF47A700C4AB0FBF3F32C
:1052A8001068B0FBF3F000F0E1F80F2C00D808B15B
:1052B800012010BD002221464FF0FF3000F076F8A3
:1052C800034B00201C6010BDC0000024B80000245F
:1052D800C400002438B50320124D00F055F8124CD4
:1052E80002F0CAF9114A12499369C3F30323CB5C4C
:1052F80003F01F0320FA03F30F202B60926902F0DA
:105308000F028A5C02F01F02D3402360FFF7BCFF44
:1053180010B10124204638BD0446FFF7B3FF2046EC
:1053280038BD00BFB8000024BC0000240044025867
:10533800CCB10008034A044B11681B780B44136076
:10534800704700BF20100024C0000024014B1868DB
:10535800704700BF2010002438B50446FFF7F6FF59
:105368000546631C02D0044B1B781C44FFF7EEFF74
:10537800431BA342FAD338BDC0000024014B186870
:10538800000C70470010005C06494FF6FF0C000245
:10539800054BCA6800F4E06002EA0C0210430343BC
:1053A800CB60704700ED00E00000FA051B4BDB689E
:1053B800C3F3022300B5C3F1070E03F1040CBEF1D9
:1053C800040F28BF4FF0040EBCF1060F1AD9033B97
:1053D8004FF0FF3C0CFA03FC22EA0C024FF0FF3CB2
:1053E80000280CFA0EFC21EA0C0101FA03F141EA4B
:1053F80002010ADB09010A4BC9B2034483F800130E
:105408005DF804FB00221346E8E700F00F000901ED
:10541800044BC9B2034419765DF804FB00ED00E0C3
:1054280000E100E0FCEC00E0002807DB00F01F01D1
:1054380001234009024A8B4042F82030704700BFE0
:1054480000E100E000280DDB4309012200F01F0005
:105458000549203302FA00F041F82300BFF34F8FCB
:10546800BFF36F8F704700BF00E100E0431EB3F148
:10547800807F0CD24FF0E022002006494FF0F00C5C
:105488005361072381F823C090611361704701209D
:10549800704700BF00ED00E0BFF35F8F044B0021B1
:1054A8005A6A22F480325A62C3F89410704700BFD7
:1054B80000ED00E0064B40F00100C3F894005A6A82
:1054C80042F480325A62BFF34F8FBFF36F8F704739
:1054D80000ED00E0174A4378C2F89830017821B30C
:1054E800436800B5C2F89C30C37A90F80CC01B061C
:1054F80090F80FE043EA0C7390F80AC00B43817BE5
:1055080043EACC4390F80DC043EA8C4390F809C0B5
:1055180043EA4143017A43EA0E4343EA0C2343EA50
:105528004103C2F8A0305DF804FBC2F89C10C2F831
:10553800A010704700ED00E0704700BF08B5FFF706
:10554800FBFF08BD0268344B344930B4344D354C48
:10555800AA4218BF9A420CBF012300238A4208BFFF
:1055680043F001033031A24208BF43F00103303455
:105578008A4208BF43F001033031A24208BF43F01A
:10558800010330348A4208BF43F0010301F55C711E
:10559800A24208BF43F0010304F55C748A4208BFC5
:1055A80043F001033031A24208BF43F00103303415
:1055B8008A4208BF43F001033031A24208BF43F0DA
:1055C800010330348A4208BF43F001033031A2425C
:1055D80008BF43F001038A4208BF43F0010313B92F
:1055E800114B9A4213D1D3B21049114C103BA1FB75
:1055F80003515F2B0F4BC1F3021103EA0203615CF5
:1056080088BF0433C1658365184630BC704722F0F3
:10561800FF038365F8E700BF100002404000024026
:105628002800024058000240B8040240ABAAAAAAC7
:105638002CB2000800FCFFFF0368294A294930B44E
:10564800294D2A4CAB4218BF93420CBF01220022BD
:105658008B4208BF42F001022831A34208BF42F042
:10566800010228348B4208BF42F001022831A342CC
:1056780008BF42F001028B4208BF42F0010212B992
:105688001B4A934213D1DBB21A4C1B4A0121083B37
:105698001A4DA4FB0343456602EB1312C3F304132C
:1056A800920001FA03F30266836630BC7047DAB2EF
:1056B8001349144C1944103AA829A4FB02234FEAB1
:1056C800131300D80833104A03F01F0501210F4CAB
:1056D8001A44A9404466920081660266E5E700BF65
:1056E80008540258305402581C5402584454025862
:1056F80094540258CDCCCCCC009600168058025851
:10570800F0FBFDBFABAAAAAA0082001080080240E5
:1057180070B50446FFF71AFE002C00F0C680236817
:105728000546954A934248D01832934245D03032C4
:1057380092498B4218BF934201F130010CBF0122FC
:1057480000228B4208BF42F0010218318B4208BF89
:1057580042F0010218318B4208BF42F001021831B1
:105768008B4208BF42F0010201F556718B4208BF17
:1057780042F0010218318B4208BF42F00102183191
:105788008B4208BF42F0010218318B4208BF42F039
:10579800010218318B4208BF42F0010218318B42D6
:1057A80008BF42F0010218318B4208BF42F00102E3
:1057B8001AB9734A934240F0F5800222002184F816
:1057C800352084F834101A6822F001021A6005E0C6
:1057D800FFF7BCFD431B052B40D823681A68D10787
:1057E800F6D4D4E9022521692A43A0691D680A4331
:1057F80061690A43E16902430A4362492940256A0B
:105808002A430A43616A04292FD01A605A6922F090
:105818000702114359612046FFF794FEE26D3F23CA
:1058280002F01F02934083602046FFF705FFA3683C
:10583800802B3CD06368A06EDAB2013BD4E91851E2
:10584800072B2A60486026D90023C4E91B33636705
:1058580000200123606584F8353070BD20220323C1
:105868000120626584F8353070BDD4E90B512943B5
:105878000A431A605969A26A21F00701114341F0ED
:105888000401002DC6D000284FD1012A6ED032F075
:105898000202BFD151E0501E072810D9626FD4E927
:1058A8001B31002018604A60D2E7012070BD002338
:1058B800A16ED4E91802636003605160C4E72168EF
:1058C800314B324DA94218BF994205F114050CBF5E
:1058D80001230023A94208BF43F001031435A9425C
:1058E80008BF43F001031435A94208BF43F0010380
:1058F8001435A94208BF43F001031435A94208BF73
:1059080043F001033BB9224B994204D0214B224971
:1059180013449B0003E0214B214913449B000122BF
:105928008240C4E91B316267BBE7B0F5005F0ED067
:10593800022A05D9032A7FF46DAFEA017FF56AAF21
:10594800012340221846626584F8353070BD032A69
:105958003FF660AF01A050F822F000BF4959000897
:10596800435900084959000875590008B5F1C07F26
:105978007FF450AFE4E700BF10000240400002404F
:10598800B80402403F8010FE085402581C540258C4
:10599800945402583F820010400902403F96001676
:1059A80040590258324A33483349834218BF934218
:1059B80000F128000CBF012200228B4208BF42F0F0
:1059C80001022831834208BF42F0010228308B428D
:1059D80008BF42F001022831834208BF42F00102A9
:1059E8008B4208BF42F0010212B9244A934238D1CF
:1059F80002220021224D84F8341084F835201A68D8
:105A08001540A268402A2AD0802A0CBF4FF4804053
:105A18000846266AD4E90312D20842EAD10261692B
:105A280042EAD102A16942EAD102E16942EAD1021D
:105A3800144942EA161219442A4302431248A0FBA9
:105A4800010120461A600B099B00E365FFF77AFD08
:105A5800E26D012302F01F0293404360E4E6102048
:105A6800D7E7402203230120626584F8353070BDF2
:105A7800085402581C54025830540258945402587E
:105A88000F00FEFFF8ABFDA7CDCCCCCC002800F072
:105A9800BC80844690F83400012800F0B8800120CA
:105AA8002DE9F0419CF835408CF83400844208D048
:105AB80000224FF400638CF83420CCF85430BDE851
:105AC800F0810220DCF800507A4C8CF83500002078
